:020000040000fa
:08000000aa3f0400000000000b
:020000040000fa
:10000800c04c0000c04c0000c04c0000c04c0000b8
:10001800c04c0000c04c0000c04c0000c04c0000a8
:10002800c04c0000c04c0000c04c0000c04c000098
:10003800c04c0000c04c0000c04c0000c04c000088
:10004800c04c000082230000c4230000ac4800001c
:10005800c04c0000c04c0000ea3f0000c04c00004b
:10006800c04c0000c04c0000c04c0000c04c000058
:10007800c04c0000c04c0000c04c0000c04c000048
:10008800c04c0000c04c0000c04c0000c04c000038
:10009800c04c0000c04c0000c04c0000c04c000028
:1000a800c04c0000c04c0000c04c0000c04c000018
:1000b800c04c0000c04c0000c04c0000c04c000008
:1000c800c04c0000c04c0000c04c0000c04c0000f8
:1000d800c04c0000c04c0000c04c0000c04c0000e8
:1000e800c04c0000c04c0000c04c0000c04c0000d8
:0800f800c04c0000c04c0000e8
:020000040000fa
:10010800c04c0000c04c0000c04c0000c04c0000b7
:10011800c04c0000c04c0000c04c0000c04c0000a7
:10012800c04c0000c04c0000c04c0000c04c000097
:10013800c04c0000c04c0000c04c0000c04c000087
:10014800c04c000082230000c4230000ac4800001b
:10015800c04c0000c04c0000ea3f0000c04c00004a
:10016800c04c0000c04c0000c04c0000c04c000057
:10017800c04c0000c04c0000c04c0000c04c000047
:10018800c04c0000c04c0000c04c0000c04c000037
:10019800c04c0000c04c0000c04c0000c04c000027
:1001a800c04c0000c04c0000c04c0000c04c000017
:1001b800c04c0000c04c0000c04c0000c04c000007
:1001c800c04c0000c04c0000c04c0000c04c0000f7
:1001d800c04c0000c04c0000c04c0000c04c0000e7
:1001e800c04c0000c04c0000c04c0000c04c0000d7
:0801f800c04c0000c04c0000e7
:020000040000fa
:1002000000c0da00000006000a00fa00e20f500009
:1002100034003e00e03c8100e10f5000030032005a
:10022000e20f500011003a000c003700c3202000fc
:100230000300e00001003a000040da000c02e20096
:10024000020035001422ef000de2a8000f42ab00bf
:100250000d003a000f42a8000b0037006321200078
:100260000300e00001003a000040da001602e2005c
:10027000020035001e22ef0017e2a8001942ab0071
:1002800001003a001942a800820178000b003700f3
:100290003102fb00e10f500004003a000f22ab00d6
:1002a000feff3a0084108800030037001922ab00db
:1002b000feff3a00d41088008301e9000300e0004b
:1002c000f3ff3a00e10f500003003a000f02ab00c9
:1002d000feff32000b0037001902ab00feff3200b8
:1002e0000800370033002000b3bf9f00c0bf9f004d
:1002f000d1bf9f00e2bf9f006a805700c0ff070088
:100300006fb99700020078000080fa000000060034
:10031000839f68000100e00002003d0060001000c3
:10032000e08018000300e00002003d0060011100c1
:10033000e0811900fd0107004f00e00002003b00d2
:1003400060001000e0801800000006004f89de0009
:100350008201780005023700889fbe008a9fbe0098
:100360008c1f7800110207001802330003866c000e
:100370006450e100240032006420e10027003200d4
:100380006150e100220032006120e10021003200d2
:100390008b854200eb07b1000134b800003ab80089
:1003a0000804420089844a00013ab8000030b800cd
:1003b0008880400009014a0004003300000040002a
:1003c00081804800020149008b05e900c909dd0070
:1003d000830170000100320013002000c814de0009
:1003e0004814dd004709de001200b200c808de0034
:1003f000088470000502070001f0a1000cf0a700be
:1004000001f0a000fa0137006120e100fc01320098
:100410000801be000200be00f7ff37006150e10096
:10042000fcff3a00f6013700889fbe008a9fbe009d
:100430008c1f7800dd010700e401330003866c00a7
:100440006450e1002e0032006420e10033003200ed
:100450006150e1002f0032006120e10031003200e4
:1004600085855500eb07b000090020000804200036
:10047000050037000804440089844c000a0031005c
:100480000603430087834b000001530081815b001a
:10049000f8ff33000203be000800a0000804440077
:1004a00089844c00f6ff3900c639dd0083017300f2
:1004b00001003200130020008904d1000884d30019
:1004c0000998a300050032000800a7000300a0005f
:1004d0008904d1000884d3008b05e8008904d10089
:1004e0000884d3000001eb000281d200c70107009d
:1004f00001f0a1000cf0a70001f0a000bc01370042
:100500006420e100be0132000801be000200be000e
:10051000f7ff37006120e100b90132006000b80048
:10052000f3ff37000000200001f82700f0ff37003c
:100530000001be00db0107000470a70003f0a1006a
:1005400003f8a30013003a006509b100100032005f
:10055000090035006928e10002003500010028008b
:100560000000050000004000818048008502e9008d
:10057000fcff3a0000000600f88f4200050035003d
:100580008100d1000080d3008502e800fcff3a0022
:10059000000006008000eb00000005006011b800bc
:1005a000d50137000c00fa00889fbe008a9fbe006c
:1005b0008c9fbe007d0107000206be008405780006
:1005c0000200be0002002000fa01070005003a0008
:1005d0008b02b30012002000f601070001003a0070
:1005e000f8856d000c01be00c60007000800be00c3
:1005f0009b0032000b08a3009e003a000df0a700fc
:100600000be0a00009f0a7000bf0a00009f0a1008a
:100610000801be00bb0007000bf0a60095003200e9
:1006200001003c000bd0a0008acf7500b20033005f
:100630006000b8006250e10099003900a1003e005e
:100640000b28a300a2003a000bf8a300060032001a
:100650000b58a300a70032000801be00a900070044
:100660000800be00940032000800be00f801070038
:100670000004be00050578000bf0a7000b30a600b3
:100680000bf0a1005b079800324f200053f32300ca
:10069000fc01070005003d000800be00120020001c
:1006a000fa0107000004be000a05e9004a079800a5
:1006b0006150b90025ff0700008fbe000c01be008d
:1006c00025ff0700f8000700300798000100e00050
:1006d00002003d0060001000e0801800f2ff2700db
:1006e000820f5000e08f580064003e000c00be00f6
:1006f000ed00070020079800f2072000820f50004d
:10070000e08f580005003c0012f82f00f3ff2f0087
:10071000820f5000838f580009003d000a00e0005e
:100720000300320001003c000201ea0002057800eb
:100730006000b800200798003a07980019003700b9
:100740003e0090006100b90000ff0700809fbe00de
:100750000c00be004109dd004811de007208b10046
:10076000940107000005be001e01be00fafe07004e
:100770004f01be006e000700809fbe000c00be004f
:100780000a01be006a0007001e01be00f2fe07005b
:100790004f01be00670007008221270013f32300ea
:1007a000edfe07000005be002e0090006100b900bc
:1007b000e6fe070001f0a2000c01be005d0007008c
:1007c0000006be000800be00d20107000c01be00fa
:1007d000e1fe07000a01be0056000700809fbe0030
:1007e0004a0007002e0590000af0a7000a05ea005b
:1007f000050037000800be000801be00d6fe070055
:100800000004be000c00be000801be000a00a700e4
:10081000d1fe07000006be000a05d100f5ff3a0030
:100820005e01900002e0a600030037000001be0058
:1008300036000700fcfe07000004be004f00be00ab
:100840000b0207000801be00c3fe07003e01900036
:100850008e010700de0590000bf0a70001f0a2005a
:100860004f06be004f05be004f04be000080fa00d8
:100870000000060025000700f9ff370027000700e9
:100880006000b8000bd0a7000bc0a0000be0a700d1
:100890000bc0a2000bc0a70001f82700f0ff370033
:1008a0000df8a300020032001e0007001900070027
:1008b0000bf8a300eaff32000b30a70001f0a20002
:1008c000e7ff37000df8a300f9ff3a00f7ff370004
:1008d0000801be000b000700e6ff320001003c00eb
:1008e0000df0a2006000b8000df0a700090007009d
:1008f000dbff37000b000700f1ff2700f0ff2f00a0
:10090000d7ff3700010007005e01370001f8230020
:100910000000050001f8270000000500200220006b
:10092000010037001002200000448800000006008b
:1009300003f0a200889fbe008a9fbe008c1f780033
:100940009a000700a10033006450e1004f0032001c
:100950006420e1005200320003826c0007003b007b
:100960000905d0000306d000820f54000c065d007c
:100970000200390002003200890178000306780085
:100980008582550004003d000003fd008103fd0049
:100990008502ea008b854200840f720002003b0052
:1009a00060001000e08018006011b8000005eb0046
:1009b0007a28e1000a00390006007800c75ddd00f2
:1009c000f707b200878075002d0037008281710023
:1009d0000a017800610560008180d1000080d300a9
:1009e0008502e900f9ff3b000604400087844800c7
:1009f00002003b0060041400e0841c000988a3008e
:100a0000070032008a8171008281710061016400f7
:100a10008904d1000884d3008b05e8001700370053
:100a20000978a30013003a000b00e0001300340023
:100a30008b05e9000804440089844c000a447400d2
:100a40000978a3000d003a000b00e0000700340015
:100a50008b05e9000804440089844c0001003a0039
:100a60000b0020000978a300f7ff32000001eb0023
:100a700002003700828171000a01780063000700dc
:100a80000cf0a70001f0a000590037006420e1003d
:100a900002003a00838f6c00590033000801be0049
:100aa0000200be00520037000001be007d000700ba
:100ab0000470a70003f0a1006509b1001600320020
:100ac0000d0035006828e10006003500f0ff2f001a
:100ad000f1ff27000300e00013003b0001002800a5
:100ae0000000050000004000818048008502e90008
:100af000fcff3a0008003700f88f420002003c007b
:100b00008000eb00000005008100d1000080d300d0
:100b10008502e800fcff3a000300e00002003b0011
:100b200060001000e0801800000006006022b8009d
:100b3000060220000000d0008180d2000482d20092
:100b40008582d2000000a0000202520083825a0077
:100b5000030031000202420083824a000000a1002b
:100b60000603e900f3ff3a0000000600881f780042
:100b7000030478000300e00007003d00600010005f
:100b8000e080180060011900e081190002003b00bc
:100b900001f02d00030037005700070008f0a70000
:100ba00001f0a0004f047800000006000004be0021
:100bb0003c0007000003be000405be000200be00aa
:100bc00038000700844f7500000006000200be00d8
:100bd0006450e100050036006420e10002003600a8
:100be0000968a30001003a000800be000160a000ef
:100bf0004f0678004f05be004f04be0000000600ff
:100c0000f0ff2f00f1ff2700f9ff370081002000df
:100c1000618055000b003d000b00200061fe2f009d
:100c20000100e1001d003400828171006101640057
:100c30008904d1000884d3000000e800faff3a00dc
:100c40007100200061006400030070000200600079
:100c50000900320061044400e0844c000988a500ca
:100c6000050032008b05e8006808e10002003a0048
:100c70008904d1000884d300f20f20000258e1005b
:100c800005003d00c75ddd00f907b20089807500f1
:100c900008007800000006000bf827008b007800a1
:100ca00000000500c70ade00f107b200f50fb20030
:100cb00008003200e1cf4200020032000170a000c3
:100cc00024000500810f70000100320004080500b7
:100cd00044000500810f700002003a001400050076
:100ce0008502e9000000400081c04800fcff3b0095
:100cf0000170a00024000500889fbe008a9fbe00ee
:100d0000008270000402710004827100260032002b
:100d10000004be000200be006011b8006b09200094
:100d2000950220000182cf000a0039000541b10080
:100d30000082cf00070039000541b1000982cf00d1
:100d4000040039000541b1000882cf0001003900dc
:100d50000541b10005425200120032000a003b007a
:100d600082817100610164008100d1000080d300a4
:100d70008984d3000884d3008b05e8000442e8008e
:100d8000f7ff3a00070037000804440089844c004c
:100d900000004800818048008b05e9000442e9001a
:100da000f9ff3a0099ff07004f05be004f04be004f
:100db00000000600889fbe008a9fbe000003be00a0
:100dc000b8ff0700850578008281520002002000ec
:100dd0006220e10004003a00f307b100040035008e
:100de0007718e100040035000600be00140037004b
:100df0006000b8000f003700f50f2000faff2f0049
:100e00008502d1000a85d3008301e900fcff3b0085
:100e10008184620000046500890f7400f2ff3200d3
:100e20008582ea000a85ea00818462000004650088
:100e300076ff070007f0a70001f0a0000081eb009b
:100e40000200e0004f05be004f04be000000060097
:100e50000003be0093ff07006220e10002003200a1
:100e60000600be0005000500e507b100f107b2006d
:100e700004f023008480700007f0a70001f0a000b8
:100e80002400050014002000db0037000003be0032
:100e900084ff07006220e100020032000600be006d
:100ea0000000060085024100e30f20000328e10056
:100eb00005003c00a3fe2f000328e10007003d00d1
:100ec0000500200001003700f50f2000200220005f
:100ed000004488006000b8000800370013002000bc
:100ee0008381520005003d008100d1000080d300c5
:100ef0008301e800fcff3a0005002000c72add005e
:100f0000f107b2008580700007f0a70001f0a00093
:100f100000000600889fbe008a9fbe008c9fbe0016
:100f2000cbff0700850478000005be006420e100c7
:100f300049003e006220e100030032000900350054
:100f40000bf8a300440032000bf8a30008003200a5
:100f50001002200000448800f0ff2f00f1ff27005e
:100f60003d00370001f82f00000020003a00370054
:100f70003d0007006efe07000006be000a00be002e
:100f8000324f200053f32300b60007000600340060
:100f90000c00be003400070065fe07000006be001e
:100fa0000a00be00020037008904e9000c00be0000
:100fb0002d000700e8fc07002b0007005dfe07007e
:100fc0000001be000c00be0017fd07000005be00ba
:100fd0000001be00e0fc07000006be00a2f32300f3
:100fe000430d2c0053fe0700809fbe000c00be0086
:100ff000d2e32700d3f02b00d7fc07004f01be003f
:1010000009fd07000006be000a01be00d2fc070071
:101010000a01be0047fe07000006be006148b90095
:10102000cafc07000005be0032082800e3952b002b
:10103000c9fc07000c01be003efe07000006be0012
:101040000a00be000200280013f32300c2fc0700c0
:101050000c01be0037fe07004f06be004f05be0064
:101060004f04be000000060003f02300020005004c
:10107000889fbe008a9fbe008c9fbe000004be00f9
:1010800008ff07000800be006420e10048003e00a1
:101090005500320072212700132b24007100070035
:1010a00047003c000800be00c2ec2800e32c2c00e6
:1010b00074ff0700470035000800be0001f0a100e2
:1010c00002002000033823006eff070043003500b4
:1010d0000800be00b2a32a0083fb23009efc070089
:1010e0000200200003f0230001f0a70003f0a0009d
:1010f00010fe07006cfe07000005be0093fc070011
:1011000001f0a2000006be000200280013f3230035
:1011100091fc07000801be0006fe0700809fbe008c
:101120000c00be0032082800e3952b008afc070063
:101130004f01be00fffd07000006be000001be001b
:1011400085fc0700809fbe004241250083b8230034
:1011500081fc07000200200003e82300f5fd0700e2
:101160000c01be007cfc07000006be004f00be0064
:10117000f2f92b00c3d4230077fc07000200200003
:1011800003f02300ebfd07000c01be00e8fd0700a3
:101190000001be000c00be00a3fc070002002000fe
:1011a00003f02300e3fd07006101450037ff07005e
:1011b0004f06be004f05be004f04be0000000600f3
:1011c00001f82700000020002202200002448800cd
:1011d000f7ff37006000b800fbff370001f823007d
:1011e00000002000f2ff370009f8a300f0ff3200f2
:1011f0006000b800eeff3700889fbe008a9fbe00e7
:10120000841f780069fe07004f007800110033004a
:10121000f0ff2f00838f6c0006003b000405650083
:101220000a00a7000800370009f0a60010002000ff
:1012300008003700820f5400838f5c0003003900e0
:101240001000200001003e000000200009f0a7006f
:101250000000ea004f05be004f04be000000e000a1
:1012600000000600f4ff2f00e3ff3700020ab90078
:10127000001bb9000200b800810042008100430059
:10128000000006008103780086fe07000001be0012
:101290006000b8000478a30013003a006220e10067
:1012a00015003e000d0039008301d1000281d300fa
:1012b0008180d3008301d1000281d3008180d300db
:1012c0008301d1000281d3008180d3000538b000b2
:1012d000c42add00f300b2008381720007f0a7008a
:1012e00003f0a00000000600f3ff2700f2ff2f002c
:1012f0006110b900fbff370003ff2700f7ff37003d
:101300008f1fd100010107008f87e9000000e00076
:1013100000000600801feb00fc0007008f87e9003b
:101320000000e000000006001400fa00889fbe00e4
:101330008a9fbe008c9fbe00040678000004be0099
:101340000205be00680047000a90be000890be007b
:10135000170107006200e1000800be000a01be009c
:10136000040020000b003a001e029000e43fb10090
:101370006e009000fe0090000e0990009e09900003
:10138000f300b20005fe2300858171000bf0a70079
:1013900003f0a000040e7800ab003700809feb0044
:1013a000da0007008f87e9000000e0000000060077
:1013b0001400fa00889fbe008a9fbe008c9fbe006a
:1013c0000004be000205be00680047000a90be008f
:1013d0000890be00f60007000070a7000bf0a10007
:1013e0000bf8a30020003a009e0990000e0990001f
:1013f000fe0090006e0090009e029000344320009a
:1014000084825200900032000a003c00b4fc2f009d
:101410000428e100140034008301d1000281d300cc
:101420008180d3000080d3008502e800faff3a00f3
:1014300085003700b40020000428e10007003c00cc
:10144000000040008180480002014900838149007a
:101450008502e900faff3a007b003700030028000c
:1014600002002000010037006011b8006000b800e1
:10147000750037002800fa00889fbe008a9fbe00d2
:101480008c9fbe0003866b005b0007006400e100d8
:10149000440032006408e1004a0032006100e100cb
:1014a000460032006108e10049003200ec064700c6
:1014b0006000b8003d02be003d03be00f486570048
:1014c0006011b8003d04be003d05be007d03200054
:1014d0000b0037000000a0008d06e9001300320069
:1014e0000402420085824a0006034b0087834b00ba
:1014f00000004000818048000201490083814900ca
:101500000802520089825a000a035b008b835b0049
:10151000f0ff3b000802420089824a000a034b00a8
:101520008b834b008d06e900edff3a008482720048
:1015300086827200f707b2008782720001003200d3
:10154000150020001e0490003e0b9000060354007e
:10155000e63fb0000368a300070032000000a700c8
:101560000500a0008301d1000281d3008180d30057
:101570000080d3000603e8008301d1000281d3007c
:101580008180d3000080d3000002eb000482d200ef
:101590003200070003f0a1000cf0a70003f0a00048
:1015a00029003700640247006408e100230032008c
:1015b0003400be003401be00f6ff37006108e100d0
:1015c0001e0032006011b8006000b800f1ff370063
:1015d00003ff270002002000fbff37006011b80066
:1015e0009a00370007f0a200f70737004ffd070009
:1015f0000400be0000000600680447000294be001c
:101600000094be00fc0447008694be008494be0093
:1016100009007800660007000800780064000700f1
:1016200099007800814f70000b003b000800be005d
:10163000b10007004f00b10003003700f3ff27009f
:10164000f2ff2f006110b9004f06be004f05be002b
:101650004f04be000080fa000000060018002000c1
:1016600057002000080453000d003d000600200034
:1016700097fc2f000740e1001e00340084827200b6
:10168000610260008301d1000281d3008180d30018
:101690000080d3000804e800f8ff3a00470020006b
:1016a0006104600005047400040464000d0032004d
:1016b00061004000e080480060014900e08149008d
:1016c00003b8a500070032000603e8006538e10012
:1016d00004003a008301d1000281d3008180d3004d
:1016e0000080d300f87f20000830e10003003500bf
:1016f000080378006000b8006011b8004433dd00d2
:10170000f300b2008301730000000600889fbe0052
:101710008a9fbe008c9fbe000404be000605be006a
:10172000809fbe00829fbe008100070004067800f3
:101730000800be000a01be007d0007008406780094
:101740004f03be004f02be008d4f76007fb0970062
:1017500013003300f0ff2f008b8f6b0006003b005f
:101760000d0666000c00a7000a00370007f0a6006f
:10177000100020000a003700880f5200898f5a009d
:101780008a0f5b008b8f5b00030039001000200084
:1017900001003e000000200007f0a7000000ea0062
:1017a0004f06be004f05be004f04be0000000600fd
:1017b000800078005002be005003be004439de00b5
:1017c000f700b200f37f200003016100090032003e
:1017d0000218e10016003a008501720083017300cf
:1017e000838173000008200015003a0040002000ab
:1017f0001300370085017200830173008381730039
:1018000005003a0004a8be0006a8be001000200093
:101810000b0037000201e9000402420085824a0001
:1018200006034b0087834b000748a300f9ff3200f3
:101830000740a00004a8be0006a8be0020002000ab
:10184000800098009200980000000600889fbe006b
:1018500000827000040271000482710024003200d2
:1018600036432000c50020008383cf000a003900e2
:101870000541b1008283cf00070039000541b10066
:101880008183cf00040039000541b1008083cf007f
:10189000010039000541b10085c353006022b80042
:1018a000120032000a003b00848272006102600074
:1018b0008301d1000281d3008180d3000080d30056
:1018c0000603e8008743e800f7ff3a000700370007
:1018d00000004000818048000201490083814900e6
:1018e0000603e9008743e900f9ff3a005bff0700c0
:1018f0004f04be0000000600e48240001078a30000
:1019000007003200640240001178a3003400be00da
:101910001401be00040032000330a70000000600de
:101920003500be001501be000330a0000000060017
:1019300005ff270005826100070032000428e1004e
:1019400001003200240005000600070001003a00f3
:10195000440005000408050002000700f9ff3a00f2
:10196000140005006f826100810270008502710021
:101970008502720000000600889fbe008a9fbe009c
:101980008c9fbe004400f800070f2000270288004b
:101990003400f80007f02f000338e10004003200a3
:1019a000270280004700b30027028800a3018800b7
:1019b000811f780019002000804cdd0013002000fa
:1019c00002047800800678008904d100424edd00d0
:1019d000010578000302e9000480080017000000f8
:1019e0008a0546004218dd000902e900048008006b
:1019f00010000000000000004620c3003b0252001f
:101a0000df35c100080440001381c200ab825200e0
:101a1000264dc5003e85c400bb00cd00bb80cd0077
:101a20003a00ca002a80ca000700c9000580c90020
:101a3000ba00cd00ba80cd000a0546000204780045
:101a40008301d0008d06e900dfff3c004f007800e5
:101a50003400f9004400f9004f06be004f05be00f7
:101a60004f04be00000006004600f8005000f800d9
:101a7000022020003202880002002800130020000b
:101a80008019dd0002817100820288000100780067
:101a90000101780026002000470020008301e900b2
:101aa00003800800070000000110e100040034007a
:101ab0001102be0092087800e2307b000489be006b
:101ac00087804000121978005000f9004600f900a4
:101ad00000000600800078003104e000feff3a00bc
:101ae0000080ea0000804000000006000c00fa00c0
:101af000889fbe0000047800f0ff2700d0bf9f0041
:101b00008004eb0099bf9f0088bf9f00a8bf9f0083
:101b1000200c2000b0bf9f0078815700cfb0970005
:101b200070805700cf0007000fb897000948780071
:101b30008fb89700088050004f04be000080fa0064
:101b4000000006000800fa00889fbe008a9fbe00c1
:101b50000084fb00d1c6b300814f50003400360032
:101b60004b062000110009000b84d8008105780085
:101b7000720040004300dd002993200000804400f3
:101b80006022b8000600200007fe23005001be00be
:101b90004000be00160607000002be000203be00a1
:101ba00084bf9f0095bf9f00a6bf9f00b7bf9f0047
:101bb000aa002000110009008a85d800800578005d
:101bc000e9854500c35ddd008b8544003b02be0016
:101bd0002b03be000fb897009fb897002fb997004e
:101be000bfb99700020607000002be000203be0054
:101bf00084bf9f0095bf9f00a6bf9f00b7bf9f00f7
:101c0000110009000a84d800010478004344dd0073
:101c1000888444003902be002903be000fb8970033
:101c20009fb897002fb99700bfb997001d003700e4
:101c3000ea4f500013003600aa00200011000900ee
:101c40000a84d80001057800690440004344dd009f
:101c500029932000088444006022b8000600200078
:101c600007fe23003800be002801be00e005070083
:101c70004355dd008a8444003902be002903be00ba
:101c8000080037004344dd00209320000804400092
:101c90006022b8000600200007fe23003800be00c6
:101ca0002801be00d20507004f05be004f04be004c
:101cb0000080fa00000006000800fa00889fbe00bd
:101cc0008a9fbe00d1c6b3000004e00023003d009f
:101cd0000040ea000004fb00814f50000a0034007d
:101ce00042062000110009000204d800a9002000cb
:101cf000110009008900d800e9004000c308dd0098
:101d00002a93200021003700ea4f500010003400d1
:101d1000a2002000110009000204d800010178008f
:101d2000690040004300dd00219320000080400056
:101d30004311dd00828040003102be002103be005d
:101d40005001be004000be00a90507003800370062
:101d50004344dd0020932000320037000004fb00e4
:101d6000814f50002300340042062000110009007a
:101d70000204d800a9002000110009008900d80041
:101d8000e9004000c308dd002a88200081004500ea
:101d90003102be002103be008b0920008a85450068
:101da0003b00be002b01be00910507000002be00f3
:101db0000203be0084bf9f0095bf9f00a6bf9f0087
:101dc000b7bf9f00110009000904d8000104780082
:101dd0004344dd00080545003a02be002a03be0068
:101de0000fb897009fb897002fb99700bfb9970019
:101df000d5ff3700ea4f500008003400a200200051
:101e0000110009000204d8000101780069004000b7
:101e10004300dd0021882000c4ff37004344dd007b
:101e200020882000080440003800be002801be00c1
:101e30004f05be004f04be000080fa0000000600ff
:101e4000d0019000028151004240a90003003400fb
:101e500010017800014978000208e80001007800cc
:101e6000000006006f02b000889fbe008a9fbe007f
:101e70008c9fbe008e1f780000067800b1af9f00d7
:101e800092b79f006000b8006011b800d0af9f000b
:101e9000e1af9f00f2af9f0083b79f008006eb0089
:101ea000c5043700bfa897008100e800b1af9f00cc
:101eb00051c2b300814f500003003a00bfa8970001
:101ec0000007eb0011003700bc0090000000fb0091
:101ed0000168a300070032000d017800800078003f
:101ee0000c007800d6ff07000000e00005003a0073
:101ef000b10437008c007800bb040700e10f4000fc
:101f0000ad0432008d06e800ab0437000101780013
:101f100031407800d3c2b300834f50000c00320030
:101f200007003c00edc15100834f50000a00320011
:101f3000ebc14100834f50000d003a00080037000c
:101f400003c3b300834f500009003a000600370076
:101f50000e30a000edff37000e00a000ebff3700b1
:101f60000e10a000e9ff37000e20a000e7ff3700a9
:101f70000e18a300010032000e00a1000e38a300cd
:101f8000010032000e20a1008000fb000103b1001f
:101f9000e98f50000c003e00020078008005eb0045
:101fa0006a59b900b005fb000b03b10082854500fa
:101fb000000178009000fb000103b100e98f5000a0
:101fc000f7ff3600080037008005eb00a1c2b30020
:101fd000814f500004003a009fb19700c30578007c
:101fe00093b79f000201e800e0c2b300924f1000d7
:101ff00016003a000ee0a00064405000d24f1000de
:1020000003003200020078008001eb000800370076
:102010009fb297004503780095b79f00e6b79f00f1
:102020000201e8000c0037006a19b9008281400003
:1020300000017800b000fb000103b100e98f5000ff
:10204000f9ff3600e3b79f00030037000ec0a00081
:102050008003eb00e7b79f008201780033407800ef
:1020600003017800c1c6b300814f50002b0032003d
:10207000b3af9f0014003c00e8c05000814f5000f7
:102080002400320009003c00ecc05000814f500099
:102090002a003200ebc04000814f50008c0032001b
:1020a0000004e00049043200a200370061c6b3001a
:1020b000814f50001b003200e3c04000814f5000b0
:1020c0009c003a001300370031c7b300814f500025
:1020d0001e00320007003c00e4c05000814f500059
:1020e000130032008140e800814f500091003a0017
:1020f0001200370051c7b300814f500092003200e8
:10210000e3c04000814f50008a003a00e0cf9f00ba
:102110000c003700e0cf9f008d0037000e40a0007c
:10212000cdff3700e0cf9f000ea0a0008800370051
:10213000e0cf9f000e60a00085003700e0cf9f0039
:102140000e50a0000e70a00081003700e0cf9f006d
:102150009fb097004100780091b79f00000478007d
:102160000000e00001003a00c8b9200088007800b3
:102170000000eb00010037000000e800614178003a
:102180000204e000fcff3a00800478006fb1970081
:102190000200e00003003200890f5100010031000d
:1021a000820478000005eb00898f5500010036009d
:1021b00009855500680767002a003a0011003700ba
:1021c0003c0090000068a300070032000d01780079
:1021d000010220000c00780019ff07000000e00059
:1021e00006003a00060037008c007800000220004c
:1021f000fd030700e10f4000010032008d06e800fa
:102200000a05e9000a00e000edff3a000085eb0056
:10221000140037003c0090000068a3000900320061
:1022200008007800b000fb00000478000d01780081
:102230000c00780002ff07000000e00008003a00f0
:1022400008003700880078003100fb0001047800a6
:102250008c007800e4030700e10f40000100320029
:102260008d06e800090078008004e9000000e00025
:10227000e8ff3a000e00e000cf0332001100370003
:102280003c0090000068a300070032000d017800b8
:10229000010220000c007800e9fe07000000e000c9
:1022a00006003a00060037008c007800000220008b
:1022b000cd030700e10f4000010032008d06e80069
:1022c0000a05e9000a00e000edff3a00ba03370012
:1022d0009fb197004302780093b79f00cfa2de0022
:1022e000482bdd004820de0000007300c828de0017
:1022f000e0cf9f000e48a300080032000004e00079
:1023000006003200e14f400004003200f0cf9f0091
:1023100084d79f002900200002003700f4cf9f00df
:1023200019002000e7fc2f008f8343000704e8001a
:1023300096ff3700e0cf9f00e8fc2f000f04440019
:102340001900200091ff3700e0cf9f000e0cb30072
:102350000170200081006700700067000100e0004c
:10236000190232000ec8a3000200320061002000f2
:10237000e1b79f000000e000060032001fb09700a8
:10238000680050003002be002003be0090b79f00de
:10239000060037001fb197004200be0092b79f00b1
:1023a000b8fb07000002be000203be00a4b79f00f6
:1023b000b5b79f00c6b79f00d7b79f006022b8008f
:1023c0006033b8002fb09700bfb097004fb19700af
:1023d000dfb19700cafb07000000e0000a003d00e3
:1023e0002fb09700bfb097004fb19700dfb19700b3
:1023f00003f0a200a0b79f00b1b79f00c2b79f0033
:10240000d3b79f003e00b3000000eb0090af9f00e9
:102410006022b8006033b8002fb09700bfb09700bb
:102420004fb19700dfb19700bafb07000000e00052
:102430003400320024fd2f000f0242002fb097001d
:10244000bfb097004fb19700dfb19700b6fb070010
:102450001fa897000000e9006302b900a200200055
:10246000110009000202d80090af9f000000e000b8
:1024700002003d000000e90090af9f001fac9700f4
:102480000840ea000cfe07002fb29700bfb2970089
:102490004fb39700dfb39700d50307000002be00db
:1024a0000203be00d4af9f00e5af9f00f6af9f00d0
:1024b00087b79f006022b8000600200007ff2300b6
:1024c0008ffb07000000e00002003d000804e90067
:1024d0000b0037006022b8000600200047022400ed
:1024e0005fa89700efa897007fa997008fb197008a
:1024f000aafb07000000e000020035000804e80025
:1025000098af9f00efb29700ec8f52000f003c0095
:10251000054078008bfd07000002be000203be00ec
:102520002fb09700bfb097004fb19700dfb1970071
:10253000250407000002be000203be00a4b79f00ee
:10254000b5b79f00c6b79f00d7b79f001fac9700d5
:10255000e90f540015003c006022b8006033b80059
:102560002fb09700bfb097004fb19700dfb1970031
:1025700068fb07000000e000310032002fb0970038
:10258000bfb097004fb19700dfb1970088fb0700fd
:10259000e00f5000e08f5800e00f5900e08f590025
:1025a00027003a00e10f5400250034000400200009
:1025b00005002e00b6e02200170124005fa8970056
:1025c000efa897007fa997008fb197004cfb0700f9
:1025d0000000e00002003d006904540001003700e3
:1025e0006804540098af9f002fd09700b2fd0700f9
:1025f0000002be000203be00d4af9f00e5af9f0003
:10260000f6af9f0087b79f002fb09700bfb097002d
:102610004fb19700dfb1970096fb070064fb0700fe
:102620000004be006000b8006011b800a0b79f00b1
:10263000b1b79f00c2b79f00d3b79f001600370005
:102640002fb09700bfb097004fb19700dfb1970050
:1026500057fb07000004be00e0fb07000002be00bd
:102660000203be002fb09700bfb097004fb1970094
:10267000dfb19700dbfb07000002be000203be00d3
:10268000a4b79f00b5b79f00c6b79f00d7b79f00fc
:102690000000eb0090af9f0041ba200010c0b300d3
:1026a00005003700e4804000b10f5400a18f5c00aa
:1026b000030039000040e800ea4f5000f9ff3a00fb
:1026c000e0cf9f009fa8970081805500efb2970050
:1026d000858050000000fb00008550000500e000f0
:1026e000010032000a05e9006300670001003200c2
:1026f0000a05e9000e28a3003900320061016700d5
:102700000e18a3000f0032003c0090000068a300e8
:1027100006003200b10220000200e0000100320099
:102720008180e8000d0178000d003700b002200024
:102730000200e000010032000080e8008c00780018
:102740000e0037000200e000220032003c00900042
:102750000068a300070032000d017800010220008c
:102760000c007800b6fd07000000e00006003a000b
:10277000180037008c007800000220009a02070041
:10278000e10f4000130032008d06e8001100370011
:102790003c0090000068a300070032000d017800a3
:1027a000010320000c007800a5fd07000000e000f8
:1027b00006003a00060037008c0078000003200075
:1027c00089020700e10f4000010032008d06e80099
:1027d0000a05e9000a00e000edff3c005700370061
:1027e0000e38a30014003a00110037003c0090009e
:1027f0000068a300070032000d01780001022000ec
:102800000c0078008efd07000000e00006003a0092
:10281000060037008c0078000002200072020700da
:10282000e10f4000010032008d06e8000a05e900d2
:102830000a00e000edff3c00610167000e18a300f4
:102840000e0032003c0090000068a300050032003a
:10285000b10220000200e000220032008180e80086
:1028600020003700b00220000200e000010032002a
:102870000080e8008c0078002c0037000200e000a7
:102880002e0032003c0090000068a30003003200dc
:102890000d01780001022000130037008c00780041
:1028a00000022000210037003c01900040ba2000c7
:1028b0008100fb000268a30010003200c208dd00a6
:1028c000810040001101be000800be0097f807001b
:1028d000a20020000300200044fb070001032000a9
:1028e000808040000d0178000c00780054fd070046
:1028f0000000e00010003a0010003700c208dd00c0
:10290000810040001101be000800be0087f80700ea
:10291000a20020000300200034fb07000203200077
:10292000000141008c007800020078002e020700b0
:10293000e10f4000010032008d06e8006fc89700eb
:102940008040e900e1cf9f000004e000d6ff3a009c
:10295000130037003c0090000068a300070032001d
:102960000d017800010320000c00780034fd070001
:102970000000e00006003a00060037008c007800f6
:102980000003200018020700e10f400001003200a0
:102990008d06e8001fa897000000e90090af9f0097
:1029a0001fa897000000e000eaff3c006fb397000b
:1029b000e80f53000300340080c0b300e0cf9f0055
:1029c00002003700cfeb9700e7cf9f006fc897005a
:1029d0008005fb00efb097008b8550000004e000fd
:1029e000100032003c0090000068a3000700320095
:1029f0000d017800e10220000c00780010fd0700b6
:102a00000000e00006003a00060037008c00780065
:102a1000e0022000f4010700e10f40000100320055
:102a20008d06e8006fc89700a3fc07000002be00f7
:102a30000203be002fb09700bfb097004fb19700c0
:102a4000dfb197006a02070059fa07002d0037002e
:102a50003c01900041ba20000000fb000268a30086
:102a6000100032004200dd00808040001101be00f5
:102a70000800be002df80700a2002000030020007f
:102a8000dafa070001032000808040000d01780081
:102a90000c007800eafc07000000e00010003a009b
:102aa000100037004200dd00808040001101be00b0
:102ab0000800be001df80700a2002000030020004f
:102ac000cafa070002032000000141008c007800d0
:102ad00002007800c4010700e10f4000010032004d
:102ae0008d06e8006fc997000200fb004200dd0080
:102af00041ba2000008040001001be000800be0066
:102b0000bafa07000004be00efc897000140e900d0
:102b1000e0cf9f000104e000cdff3a001100370034
:102b20003c0090000068a300070032000d0178000f
:102b3000010320000c007800c1fc07000000e00049
:102b400006003a00060037008c00780000032000e1
:102b5000a5010700e10f4000010032008d06e800ea
:102b60008b05e9000b00e000edff3a000e38a300f2
:102b7000910132000a00e0008f0134003c00900017
:102b80000068a300070032000d0178000102200058
:102b90000c007800aafc07000000e00006003a00e4
:102ba000060037008c007800000220008e0107002c
:102bb000e10f4000010032008d06e8000a05e9003f
:102bc000eeff3a007c0137008e007800010cb20065
:102bd00011003a000000e000040032009fb19700ad
:102be0004304be0093b79f00040037001fb2970054
:102bf0004404780094b79f00cfc4de00e00f540077
:102c0000e08f5c000e003d003e00b3006004140045
:102c1000e0841c000a0037000000e00004003200dd
:102c20009fb297004504be0095b79f00040037008f
:102c30001fb397004604780096b79f008004eb000e
:102c4000efb397000700e00006003a000880740028
:102c500000f0a7000000ea000000e9004f00de00dd
:102c6000e0b79f000e007800000cb200c0af9f00dc
:102c700000042000cfa89700808f5000230032006e
:102c800003003c000100e000080032002d00370086
:102c9000000820004fa99700800f51000d0032005e
:102ca000000c2000800f510026003a0041ba20009d
:102cb00010c0b300e4804000b10f5400a18f5c004d
:102cc0001f0039000040e800ea4f5000f9ff3a00c9
:102cd0001b00370010c0b3000201200003002000d9
:102ce000820f5400838f5c0015003900441add0008
:102cf000cc11de00830172004411dd000040e800c9
:102d0000e84f5000f6ff3a000d00370010c0b30046
:102d10008200200003002000820f5400838f5c009b
:102d200007003900c31add00cd11de008381720077
:102d30004311dd000040e800eb4f5000f6ff3a0081
:102d4000e0cf9f006fcb97000600fb00efb397002a
:102d5000870f500002003d00e7cf9f0004003700be
:102d6000efb09700808f500001003d00e0b79f005a
:102d70000b00e00003003200630067000100320036
:102d80008b05e9000ee8a300060032006fb1970042
:102d9000828f550002003400828555000100370003
:102da0008005eb00efc997000300fb000002eb0079
:102db000a4b79f00808f55000200340000805500aa
:102dc000a0b79f000e28a3003c00320061016700fd
:102dd0000e18a3000f0032003c0090000068a30012
:102de00006003200b10220000200e00001003200c3
:102df0008180e8000d0178000d003700b00220004e
:102e00000200e000010032000080e8008c00780041
:102e10000e0037000200e000100032003c0090007d
:102e20000068a300070032000d01780001022000b5
:102e30000c00780002fc07000000e00006003a00e9
:102e4000060037008c00780000022000e600070032
:102e5000e10f4000010032008d06e800afb297009c
:102e60000500e00052003200050578003c009000ab
:102e70000068a300070032000d0178000103200064
:102e80000c007800eefb07000000e00006003a00ae
:102e9000060037008c00780000032000d2000700f5
:102ea000e10f4000010032008d06e8000a05e9004c
:102eb000eeff3a00aab79f003d0037002fb39700fe
:102ec0000600e000160032000e38a30014003a009d
:102ed000060578003c0090000068a300070032005f
:102ee0000d017800010220000c007800d4fb0700df
:102ef0000000e00006003a00060037008c00780071
:102f000000022000b8000700e10f4000010032007d
:102f10008d06e8000a05e900eeff3a00aab79f0017
:102f2000610167000e18a3000f0032003c00900002
:102f30000068a30006003200b10220000200e00099
:102f4000010032008180e8000d0178000d0037009b
:102f5000b00220000200e000010032000080e80022
:102f60008c0078000e0037000200e00010003200f4
:102f70003c0090000068a300070032000d017800bb
:102f8000010220000c007800adfb07000000e0000b
:102f900006003a00060037008c007800000220008e
:102fa00091000700e10f4000010032008d06e800ab
:102fb000efb397000702e9006320b9000001780031
:102fc000a2af9f004222dd0040ba20000002420072
:102fd00004057800cfad97005c003700efb1970093
:102fe0008301e900e3b79f0000042000808f5500b3
:102ff0003700320003003c000b00e0000700320005
:103000003d00370000082000808f5500200032006e
:10301000000c2000808f550037003a000e48a300b6
:10302000100032001a02be000401be000800be00fb
:10303000f4b79f0085bf9f00bcf60700e0cf9f005c
:103040000000fb00cf80de007fb297008fba9700b0
:103050000401be0085f807000004540081845c0070
:10306000070037001a017800110009000284d80017
:10307000a2002000110009000280d800e1cf9f00cb
:103080006fca97000443b000e4cf9f001a003700d6
:10309000b0b820000e58a30001003200a0b72000f5
:1030a00041ba2000810055000801be008100e900fe
:1030b000030033008301d1000281d300fbff3700fe
:1030c0006f01610060417900e2cf9f000a00370084
:1030d0000800be00afaa97008502e9000300330094
:1030e0008100d1000080d300fbff37006740600003
:1030f0000043b000e0cf9f00bc0090006fcb970072
:103100000600fb000168a300070032000d017800f3
:10311000800078000c00780049fb07000000e00008
:1031200005003a00050037008c0078002e000700eb
:10313000e10f4000010032008d06e800afab9700c0
:10314000e3835300a7af9f00640555006fb097005d
:103150000000e000a1ff3a000e38a3001600320084
:10316000afb097000100e0001300340001057800c3
:103170003c0090000068a300070032000d017800b9
:10318000010220000c0078002dfb07000000e00089
:1031900006003a00060037008c007800000220008c
:1031a00011000700e10f4000010032008d06e80029
:1031b0000a05e900eeff3a003fa9970012407800a7
:1031c000e0cf9f000004e00036fb3a000d007800dd
:1031d0004f0778004f06be004f05be004f04be00eb
:1031e0006f02b10000000600889fbe000104780055
:1031f000b80090008084eb000118a3003a00320070
:10320000180190000198a30002003a000200e000bb
:1032100035003a000190a000310498008004780045
:10322000f90fb2000200e00002003a00280090000e
:10323000000c7800ea8f540005003a000178a300e2
:1032400003003a0088007800d0002000e6ff070065
:1032500018009000d8009000810f50000b00320041
:103260000000e80010049800180078000948780071
:10327000000ce80011c0b30000be20000148780037
:10328000ea8f540018003a000500370088007800e3
:10329000094078001700070080047800120037000a
:1032a000380090000088a3000f0032001801900041
:1032b000a800900048009000d3f307009800900009
:1032c000810f500004003200380090000003b3006a
:1032d000300498008084eb000000eb00100498009c
:1032e00028009000000c7800090078004f04be0010
:1032f000000006000200fa00889fbe00a0ff9f00a9
:1033000001047800380090000068a30033003a0000
:10331000e200600005003a000003b30030049800aa
:10332000110498000080eb002e003700d8049000b4
:103330000900e00006003a0012002000e680570075
:1033400048009000b0f307001904980023003700ec
:10335000a80090000100e00008003a0031be200003
:1033600021049800010c78002100200051049800ed
:10337000110498000030a00030049800180190005b
:10338000a8009000480090009ff3070028009000dc
:103390008080eb0011049800aff897000148780096
:1033a000000ce8002ff89700ea4f50000b003a009d
:1033b000380090000088a300080032001801900037
:1033c000a8009000480090008ff307000000eb0079
:1033d00010049800a8009000010c7800aff8970046
:1033e0000100fb004f04be000080fa000000060050
:1033f0002800fa00889fbe008a9fbe008c9fbe00f6
:1034000003866b007cf807000028a30064003a00e4
:103410000128a30067003a000008a30062003a00f8
:103420000108a30065003a001e009000be0890004d
:1034300081064000ed3fb100f4805700ee0190009e
:10344000111ab8008e099000311bb8009e09900037
:10345000311cb800511db800f48557004600070024
:10346000fe0190003a0007008b85e8003e0007004f
:103470008e09900040000700ee0190003400070024
:103480008b85e800380007008e0990004000070097
:103490009e0990001b18b800890440000a85480066
:1034a000fe019000340007008b85e800380007001b
:1034b000ee019000300007008e0990001b18b80044
:1034c000890440000a8548000a98a30008003a00d1
:1034d0000402420085824a0006034b0087834b00aa
:1034e00008044c0089844c000a054d008d06e90053
:1034f00084827200850273004c3add0085027200fe
:103500000100320015002000443ade001400b20031
:103510004538de00cb45dd000b007000c540de0005
:10352000cb4ddd008b8070004549de00cb55dd00c2
:103530000b017100c551de000d03780047f807004c
:1035400003f0a1000cf0a70003f0a0003ef8370044
:103550001b18b8008502400006834800e0834b003a
:1035600060044c00070037001b18b8000603400039
:1035700087834800faff37001b18b8008703400014
:1035800008844800e0844c0060054d0000000600ff
:103590001b18b8000804400089844800faff37006f
:1035a0000108a30025f83a005800be005801be00eb
:1035b000e3ff37000008a30020f83a000904780070
:1035c000f9ff3700000000002800fa00889fbe00c5
:1035d0008a9fbe008c9fbe00070678008786690020
:1035e0000c003b00030478008704780008f0a10079
:1035f00009f0a100840f5000858f5800860f5900f4
:10360000890f5c00030033000cf0a20001003a00b7
:103610000cf0a100f8f707006400e1005f00320041
:10362000780147006408e100610032006c01470046
:10363000748557003200be001201be003a04be007d
:103640001a05be001e039000be0a900085035300b9
:1036500006003d000004fd008104fd000205fd00a0
:103660008305fd008703ea00050378000df8a30039
:103670000400320060041400e0841c0060051d009a
:10368000e0851d006022b8007d0320000d38e100b8
:103690008006eb000b0039004433dd00f300b2007c
:1036a0008301730039003700848272000d027800b4
:1036b000e10664008b85d1000a85d3008984d3009c
:1036c0000884d3008703e900f7ff3b0008004000af
:1036d000898048000a0149008b81490004003b00b1
:1036e00060001000e080180060011900e0811900fe
:1036f0000358a300090032008d8272008482720098
:10370000610260008301d1000281d3008180d30077
:103710000080d3000603e8001b0037000348a30025
:1037200017003a000600e000170034000603e90025
:103730000d00a300000048008180480002014900fc
:10374000838149000348a3000f003a000600e0000f
:10375000090034000603e9000000400081804800b1
:10376000020149008381490001003a000003eb0097
:103770000348a300f5ff32006022b80002003700c2
:103780008482720061826600b4f7070003f0a10032
:103790000cf0a70003f0a000abf73700640147006e
:1037a0006408e10002003a000df8a300a3f73a0014
:1037b0003200be001201be00a3f737000000000077
:1037c0000000fa000080fa00000006000200fa0083
:1037d0000000eb00000f7800b30307003000070083
:1037e0000c0e0700000f78001e007800e10f50005b
:1037f00011003200e10f500003003c000000e00027
:103800000b00320010003700e20f50000c003200b5
:10381000ef0f50000c003a000040eb006e00070074
:10382000570e0700401f2000c70d07000800370093
:10383000d6040700060037008c0607000400370096
:10384000f409070002003700ddff07000000000058
:10385000e3ff37000200fa00360a0700cd0a07002e
:103860003c0a0700f1c0b300c0c3b300410a07001f
:10387000004f78003b0a070000c4b3009e40780068
:1038800080cf500003003a0010c0b3007ce8b700be
:10389000010037007c68ef000080fa00000006009d
:1038a0000000fa00c4c2a900c4e2a900c522a90010
:1038b000c582a900c542a900c5a2a900c5c2a90028
:1038c000c5e2a900c0c2a900c0e2a900c122a900a6
:1038d000c182a900c142a900c1a2a900c1c2a90018
:1038e000c1e2a900d022a900cc22a900d042a9009f
:1038f000cc42a900e2e2a900e302a900e802a90083
:10390000e822a900dee2a900df02a900e402a90082
:10391000e422a900e202a900de02a900d602a90061
:10392000d622a900d642a900d662a900d682a90053
:10393000d6a2a900d6c2a900d6e2a900d202a90047
:10394000d222a900d242a900d262a900d282a90043
:10395000d2a2a900d2c2a900d2e2a900d1a2a90094
:10396000cda2a900e842a900e862a900e442a900aa
:10397000e462a900de22a800dec2a800e4c2a8001a
:10398000e4e2a800e502a800e522a800d302a8000e
:10399000d322a800d342a800d362a800d382a800f3
:1039a000d3a2a800d3c2a800d3e2a800a9ff0700b1
:1039b0007cc8bf000004e000010032001a0c0700c0
:1039c0000080fa00000006000000fa007cc8bf007a
:1039d0000080fa00000006000200fa00004f7800a4
:1039e0008c0d0700604288001e407800e14f5000b7
:1039f00003003a0010c0b3004ae8b70001003700e6
:103a00004a68ef00a022ef00a222ef00a422ef00fc
:103a1000a622ef0060428000ea0f500009003a0041
:103a2000c1048000f0ff28008080600000002600b4
:103a300001007000c0048800a802a900a822a90003
:103a400002003700a802a800a822a800a842a900e6
:103a5000a862a900a882a900a8a2a900a8c2a900da
:103a6000a8e2a900a902a900a922a900a942a900c7
:103a7000a962a900a982a900a9a2a900a9c2a900b6
:103a8000a9e2a900aa02a900aa22a900aa42a800a4
:103a9000aa62a800aa82a800aaa2a900aac2a90094
:103aa000aae2a900ab02a900ab22a900ab42a9007f
:103ab000ab62a900ab82a900aba2a900abc2a9006e
:103ac000abe2a90001158000f0cf2f00008060005c
:103ad00000158800a042a80001158000000e2000fb
:103ae00001007000001588001115800030fc2f00c7
:103af000008060000030a00010158800a342a800dc
:103b000021158000f00f2e00008060000080a000d2
:103b1000201588004ac8bf000004e00006003200fb
:103b20002115800000fc2f00008060003001b300f0
:103b300020158800060037002115800000fc2f00aa
:103b40008080600070022000010070002015880055
:103b50008560a9008d60a800a1e2a8004ac8bf0046
:103b60000004e00005003a0000000000314280003f
:103b700000032000808f5000fbff36000080fa0019
:103b8000000006000000fa0048c8bf000080fa00ec
:103b9000000006000000fa0049c8bf000080fa00db
:103ba000000006000000fa00a1e2a8000080fa0070
:103bb000000006000000fa00a1e2a9000080fa005f
:103bc000000006000200fa00000f7800204280008a
:103bd0009e007800c808dd000080400080004000a2
:103be0000000220000804000100078000080fa00f1
:103bf000000006000c00fa004007980051079800ea
:103c00006000b800008fbe004e009000e20f500030
:103c10002f003e005e0090000000e0002c0032000b
:103c2000de00900000102000808f500028003e0031
:103c30000000eb0020079800214280005e00900009
:103c4000008050001010b00080007800f00f2000bd
:103c50000080600030079800190037004e00900087
:103c6000c800dd003e009000008040008000400061
:103c7000000022000080400010007800cf80de00ad
:103c80001e0f40005e9748002e0090000000e800e4
:103c9000200798003e0090008000e800f00f280008
:103ca000008060000000e00004003d000000e9002a
:103cb00001f02f00008070000000e800300798003d
:103cc000ae0090005e009000808f5000e3ff39004e
:103cd0005e0090008000eb000001be001e00be00f0
:103ce0008bf10700000078000080fa000000060059
:103cf0000800fa00300798000000eb001007980059
:103d000070382100200798000000eb00000f7800b9
:103d1000260037003e0090004800dd001e004000f5
:103d200080004000000022000080400090007800e9
:103d30001e009000808f5000090034003e0090006b
:103d40004800dd001e00400080004000000022000e
:103d500000804000900078001107980012003700a2
:103d60003e0090004800dd001e0040008000400042
:103d70000000220000804000900078002e0090009b
:103d8000808f500008003d003e0090004800dd009c
:103d90001e00400080004000000022000080400023
:103da00090007800210798001e0fe800f00f200017
:103db0009e007800808f5000d6ff34009e00900057
:103dc0002e009000008050000080fa0000000600e5
:103dd0000800fa00100798002107980032079800a1
:103de0003e0090000000e00021003200be00900084
:103df00000102000808f50001d003e000000eb00ee
:103e0000000f7800160037001e007800be009000fa
:103e100080805000f0ff270000804000000040003c
:103e2000ae00900080804000224280001e0078009a
:103e300000014100f00f2000000061001e01900011
:103e40004811dd0000004100000140000000220098
:103e50000000410010007800800878001e0fe80084
:103e60009e0078003e009000808f5000e6ff3900f1
:103e70000080fa00000006000400fa00000f78003d
:103e8000110798001e007800e30f50006100320017
:103e9000e30f500005003e00e10f50002700320004
:103ea000e10f500040003e0009003700e50f5000d0
:103eb0008e003200e50f500071003900e60f50000f
:103ec000a5003200e70f5000be003200d6003700d8
:103ed0001e009000e10f50000d00360020168000fb
:103ee0004600de00614060000004a2006140600006
:103ef0000080fb00610060004600dd0021168000ac
:103f00000160a100010070002016880078013700d0
:103f10001e00900000407800614060000080fb00bf
:103f2000610060004600dd00211680000160a100f4
:103f300001007000201688006d0137001e009000ff
:103f4000e10f50000d003600201680004700de0013
:103f5000614060000004a200614060000080fb003e
:103f6000610060004700dd00211680000170a100a3
:103f700001007000201688005d0137001e009000cf
:103f800000407800614060000080fb00610060003c
:103f90004700dd00211680000170a10001007000c3
:103fa00020168800520137001e009000e10f5000db
:103fb0000d003600201680004900de0061406000e0
:103fc0000004a200614060000080fb00610060000e
:103fd0004900dd00211680000190a1000100700061
:103fe00020168800420137001e0090000040780033
:103ff000614060000080fb00610060004900dd005e
:10400000211680000190a100010070002016880098
:10401000370137001e009000e10f50000d00360000
:10402000201680004c00de00614060000004a20009
:10403000614060000080fb00610060004c00dd001a
:104040002116800001c0a100010070002016880028
:10405000270137001e00900000407800614060009a
:104060000080fb00610060004c00dd002116800034
:1040700001c0a10001007000201688001c0137005b
:104080001e009000e10f50000d0036002016800049
:104090004a00de00614060000004a2006140600050
:1040a0000080fb00610060004a00dd0021168000f6
:1040b00001a0a10001007000201688000c0137004b
:1040c0001e00900000407800614060000080fb000e
:1040d000610060004a00dd002116800001a0a100ff
:1040e0000100700020168800010137001e009000ba
:1040f000e10f50000d003600201680004d00de005c
:10410000614060000004a200614060000080fb008c
:10411000610060004d00dd002116800001d0a1008b
:104120000100700020168800f10037001e0090008a
:1041300000407800614060000080fb00610060008a
:104140004d00dd002116800001d0a10001007000ab
:1041500020168800e60037001e009000e10f500096
:104160000d003600201680004e00de006140600029
:104170000004a200614060000080fb00610060005c
:104180004e00dd002116800001e0a100010070005a
:1041900020168800d60037001e00900000407800ee
:1041a000614060000080fb00610060004e00dd00a7
:1041b0002116800001e0a100010070002016880097
:1041c000cb0037001e009000e10f50000c003600bd
:1041d000201680004f00de00004078000004a2009e
:1041e000614060000080fb004f00dd002116800070
:1041f00001f0a1000100700020168800bc0037000b
:104200001e00900000407800614060000080fb00cc
:104210004f00dd002116800001f0a10001007000b8
:1042200020168800b20037001e009000e10f5000f9
:1042300060003600201680004600de00614060000d
:104240000004a200614060000080fb00610060008b
:104250004600dd00211680000160a1000100700011
:1042600020168800201680004700de0061406000b4
:104270000004a200614060000080fb00610060005b
:104280004700dd00211680000170a10001007000d0
:1042900020168800201680004900de006140600082
:1042a0000004a200614060000080fb00610060002b
:1042b0004900dd00211680000190a100010070007e
:1042c00020168800201680004c00de00614060004f
:1042d0000004a200614060000080fb0061006000fb
:1042e0004c00dd002116800001c0a100010070001b
:1042f00020168800201680004a00de006140600021
:104300000004a200614060000080fb0061006000ca
:104310004a00dd002116800001a0a100010070000c
:1043200020168800201680004d00de0061406000ed
:104330000004a200614060000080fb00610060009a
:104340004d00dd002116800001d0a10001007000a9
:1043500020168800201680004e00de0061406000bc
:104360000004a200614060000080fb00610060006a
:104370004e00dd002116800001e0a1000100700068
:1043800020168800201680004f00de0000407800d4
:104390000004a200614060000080fb004f00dd00cf
:1043a0002116800001f0a100010070002016880095
:1043b0004f0037001e009000004078006140600010
:1043c0000080fb004f00dd002116800001f0a100fd
:1043d0000100700020168800201680004f00de00cb
:1043e000004078000080fb00610060004e00dd00ae
:1043f0002116800001e0a100010070002016880055
:10440000201680004e00de00614060000080fb004e
:10441000610060004d00dd002116800001d0a10088
:104420000100700020168800201680004d00de007c
:10443000614060000080fb00610060004a00dd0018
:104440002116800001a0a100010070002016880044
:10445000201680004a00de00614060000080fb0002
:10446000610060004c00dd002116800001c0a10049
:104470000100700020168800201680004c00de002d
:10448000614060000080fb00610060004900dd00c9
:10449000211680000190a100010070002016880004
:1044a000201680004900de00614060000080fb00b3
:1044b000610060004700dd00211680000170a1004e
:1044c0000100700020168800201680004700de00e2
:1044d000614060000080fb00610060004600dd007c
:1044e000211680000160a1000100700020168800e4
:1044f0000080fa00000006000200fa00000f7800b9
:104500001e007800e10f50000d003600801680007c
:104510004200de00614060000004a20061406000d3
:104520000080fb00610060004200dd008116800019
:104530000120a10001007000801688000a003700e9
:104540001e00780000407800614060000080fb00a1
:10455000610060004200dd00811680000120a100a2
:1045600001007000801688000080fa00000006003c
:104570000200fa00000f78001e007800e10f5000e2
:104580000d003600801680000000d1006140600000
:104590000004a200614060000080fb006100600038
:1045a00000004000811680000110a1000100700091
:1045b000801688000a0037001e007800004078004e
:1045c000614060000080fb0061006000000040006e
:1045d000811680000110a100010070008016880083
:1045e0000080fa00000006000000fa00c4c2a90022
:1045f000c4e2a900c522a900c582a900c542a9003c
:10460000c5a2a900c5c2a900c5e2a9000080fa00a0
:10461000000006000201e9000500200002800800f9
:1046200001000000b018780085187800000006002e
:104630000200fa00000f78000000200080007800df
:1046400000002c0081017800000178009e007800b5
:1046500080002000c8f407009e0078008000200041
:1046600001f507000080fa0000000600801f7800b6
:104670001201c3008100e900018009003000c90077
:104680000200c800230180004f007800801f7800de
:104690000180080001000000100278000318520099
:1046a0004f007800000006000c22ef000e22ef0001
:1046b0000ee2a9000ec2a9008520a9008d20a80045
:1046c0000de2a80070002000a01088008540a9001d
:1046d0008d40a80081e0a900c0048000f1002f00f7
:1046e000008060000155200000804000c004880068
:1046f0000fe2a8000f42a8004028ef004228ef0078
:1047000000000600809fbe008520a9000e22a9009f
:104710000e02ab000800320000428000f003b2003d
:10472000018020008100400012c2bf008048780054
:104730004028ec00f6ff37004f00be0000400600a6
:10474000004280001142800001005000000006007d
:1047500001428000124280000208e100080032009d
:10476000f203b200018020000281400092407800f4
:10477000014878004228ec001000200000000600ec
:104780000000eb00000006008540a900809fbe00ed
:10479000821f78006408e200150032006008e20021
:1047a000160032006208e20014003200014380006b
:1047b000420020000f22af00feff370010438000b0
:1047c0000000e000070032000000e90062a8b70026
:1047d0003140780010e2b7000201e900f5ff3a002d
:1047e000020037006028ef00010037000143880015
:1047f0004f0178004f00be0000400600000020007e
:10480000204388004f0178004f00be0000400600a2
:104810006408e200feff3a008d40a9008100e90033
:1048200011438800b0407800811088000043880060
:1048300011002000214388008d40a80000000600e0
:1048400020438000000006000200fa00000f7800fc
:104850008000eb001e007800edff07000000000064
:10486000f7ff07000000e000fdff3a000080fa00bb
:10487000000006000200fa00000f78001e00780019
:1048800094f40700800078001e007800e0ff070025
:1048900000000000eaff07000000e000fdff3a0012
:1048a0000080fa00000006000401fa0000079900e9
:1048b000110799000e0091009e009100809fbe009c
:1048c000e03d2c00801f78000e00780087f4070080
:1048d000e68757000e007800e6ff07000080fa0028
:1048e000000006000401fa00000799001107990072
:1048f0000e0091009e009100809fbe00203e2c0083
:10490000801f78000e00780078f40700e6875700d3
:104910000e007800d7ff07000080fa0000000600b4
:104920000200fa00004f7800110020000e0078000d
:10493000b7ff070000000000c1ff07000000e00013
:10494000fdff3a000080fa00000006000800fa00af
:1049500060479800640047007dff0700ce4090004c
:104960006e40900080cf5000faff3a006000b8001f
:10497000008fbe000500370000000000120020007c
:10498000030020001e0f41005e974900f023240021
:10499000f10020001e01be00800f5100818f5900e0
:1049a000f5ff34000080fa00000006000200fa0063
:1049b000000f78000cff07000000eb00cefe0700a0
:1049c0000000eb00eafe0700d03b81009e0f500084
:1049d00006003500110020004000200026fd0700e1
:1049e00010002000c4fe070066003700e03b810095
:1049f0009e0f5000060035001100200050002000de
:104a00001dfd070010002000bbfe07005d00370001
:104a1000f03b81009e0f5000060035001100200081
:104a20006000200014fd070010002000b2fe070007
:104a300054003700003c81009e0f500006003500f6
:104a400011002000700020000bfd07001000200066
:104a5000a9fe07004b003700103c81009e0f50005c
:104a600004003500110020001000200002fd0700a6
:104a700044003700203c81009e0f500004003500a8
:104a80001100200020002000fbfc07003d00370043
:104a9000303c81009e0f50000400350011002000c2
:104aa00030002000f4fc070036003700403c810055
:104ab0009e0f50000400350011002000400020002f
:104ac000edfc07002f003700503c81009e0f500086
:104ad000040035001100200050002000e6fc070013
:104ae00028003700603c81009e0f50000400350014
:104af0001100200060002000dffc070021003700cb
:104b0000703c81009e0f5000040035001100200011
:104b100070002000d8fc07001a003700803c81009c
:104b20009e0f5000060035001100200010002000ec
:104b3000d1fc0700100020008dfe07001100370097
:104b4000903c81009e0f50000600350011002000af
:104b500020002000c8fc07001000200084fe070091
:104b600008003700a03c81009e0f50000500350072
:104b70001100200030002000bffc070010002000c2
:104b80007bfe07000080fa00000006006800fa00c3
:104b900043fb070010c0b3008ffb070000202c0070
:104ba00034ff0700f0212c0032ff0700e0252c0025
:104bb00030ff070070272c002eff070051438000b4
:104bc00064004700811f7800f1272c00811f7800c6
:104bd000c6f30700e48757006400470025ff07007d
:104be000f0212c0023ff0700504380001c0c07001d
:104bf0000300370000000000010037000000000043
:104c0000500c0700000f7800304380009e007800b1
:104c1000808f5000f7ff3500404380009e007800f1
:104c2000808f5000f5ff3c001e0078005fff0700fa
:104c3000640047009e1f78009e009000811f78004e
:104c400041292c00811f7800a8f30700e687570050
:104c50006400470007ff0700e9ff37000400fa007f
:104c6000802a2c0003ff07000000eb00000f7800f3
:104c7000140037000000eb00100798000d0037000b
:104c80001e0078006500b900800078001e009000ca
:104c90000080400080004000209e200000804000f6
:104ca0008080eb00010878001e0090000000e80002
:104cb000100798001e009000e40f5000f0ff340031
:104cc0001e0fe8001e007800ed0f5000e9ff3400d1
:104cd00040282000104f880080d92000204f8800f5
:104ce000e0452300204f8800c0c62300304f8800d5
:104cf00010ef2300404f880050302000604f8800a4
:104d000000912000704f8800c0f92000704f88008b
:104d1000605a2100804f880080842200904f8800d4
:104d2000c0352300a04f880060382000b04f8800b5
:104d3000e0112100c04f8800b0822100d04f8800d0
:104d400040b9200000508800303a210010508800ff
:104d500000b3210020508800d0ac220030508800e1
:104d6000504a21006050880030cb2100505088000c
:104d7000305422007050880080482000a0508800e5
:104d800010d52000b0508800a0032200d050880029
:104d9000d09a2200e050880090502000f050880007
:104da000e09a210010518800104422002051880010
:104db0009058200040518800d009210050518800af
:104dc0004064220060518800a0602000905188005b
:104dd000102a2100a051880070eb2100b0518800fa
:104de00080842200c0518800d0b42200d0518800b5
:104df000c0702000e0518800700523002052880018
:104e0000d07820003052880040ed220050528800b7
:104e10001066230060528800f0de23007052880084
:104e2000e080200080528800c08a210090528800d3
:104e3000a0942200a052880070962300b0528800ef
:104e400030e52200d0528800b02d2300e0528800c7
:104e5000b0be2300f052880030a920002053880003
:104e600080f3210090528800d03d230040538800f9
:104e70000080fa00000006000400fa00102c2c004c
:104e80007cfe07000000eb00000f780014003700e4
:104e90000000eb00100798000d0037001e0078009e
:104ea0006500b900800078001e009000008040007e
:104eb00080004000209e2000008040008080eb00a9
:104ec000010878001e0090000000e800100798001c
:104ed0001e009000e40f5000f0ff34001e0fe800a9
:104ee0001e007800ed0f5000e9ff3400b0f1200003
:104ef000104f8800506c2200204f8800109920002d
:104f0000604f880070622100704f880020a120004f
:104f1000b04f8800d0092100c04f88009072210056
:104f2000d04f8800f019210000508800c08a21006d
:104f300010508800b0f1200050508800f0a22100ed
:104f40006050880040422100a050880070d12000ad
:104f5000f0508800605a210000518800a07a21009a
:104f600040518800c0a42200505188009050200079
:104f700090518800209c2100a0518800c0f9200099
:104f8000b051880090582000e0518800e0112100c5
:104f9000f0518800a060200030528800f0642000aa
:104fa00040528800102a21005052880080f32100ce
:104fb0006052880090fb210070528800c070200071
:104fc00080528800f0332200905288008015230020
:104fd000a052880030ff2300b0528800e0802000fb
:104fe000d052880070052300e052880050862300cc
:104ff000f0528800305c22002053880050f52200d7
:10500000305388000080fa00000006000600fa0015
:105010002007980074fd07000000eb0036fd070034
:105020000000eb0052fd07000000eb00000f7800cd
:10503000160037000000eb00100798000f00370043
:105040001e0078006500b900800078001e00900006
:105050000080400080004000209e20000080400032
:10506000900078002e009000808f50000c003200dd
:105070001e0090000000e800100798001e0090003d
:10508000e40f5000eeff34001e0fe8001e00780011
:10509000ed0f5000e7ff34000080eb007100370097
:1050a000000000001e0078000000e00006003a004a
:1050b00011002000400020006ffb070010002000be
:1050c0000dfd0700660037001e007800e10f50005c
:1050d00006003a00110020005000200066fb070087
:1050e0001000200004fd07005d0037001e0078005e
:1050f000e20f500006003a0011002000600020007e
:105100005dfb070010002000fbfc07005400370087
:105110001e007800e30f500006003a001100200046
:105120007000200054fb070010002000f2fc070074
:105130004b0037001e007800e40f500004003a00d6
:1051400011002000100020004bfb07004400370036
:105150001e007800e50f500004003a001100200006
:105160002000200044fb07003d0037001e007800af
:10517000e60f500004003a0011002000300020002b
:105180003dfb0700360037001e007800e70f500097
:1051900004003a00110020004000200036fb070008
:1051a0002f0037001e007800e80f500004003a007e
:1051b00011002000500020002ffb070028003700be
:1051c0001e007800e90f500004003a001100200092
:1051d0006000200028fb0700210037001e00780037
:1051e000ea0f500004003a00110020007000200077
:1051f00021fb07001a0037001e007800eb0f50005b
:1052000006003a0011002000100020001afb0700e1
:1052100010002000d6fc0700110037001e007800a7
:10522000ec0f500006003a00110020002000200082
:1052300011fb070010002000cdfc0700080037001c
:105240001e007800ed0f500005003a00110020000c
:105250003000200008fb070010002000c4fc0700fd
:105260001e0078000080fa00000006006800fa00c6
:105270007afe07008af9070010c0b300d6f90700cc
:10528000f0212c007bfd0700a02d2c0079fd0700ec
:1052900070272c0077fd0700514380006400470011
:1052a000811f7800712f2c00811f78000ff20700fa
:1052b000e4875700640047006efd0700f0212c00d2
:1052c0006cfd070050438000650a070003003700ab
:1052d000000000000100370000000000990a0700ec
:1052e000000f7800304380009e007800808f5000cf
:1052f000f7ff3500404380009e007800808f50000b
:10530000f5ff3c00640047009e1f78009e0090005f
:10531000811f780041292c00811f7800f3f10700dc
:10532000e68757006400470052fd07001e00780022
:1053300036ff07008000780064004700811f780076
:10534000d1302c00811f7800e8f10700e487570076
:105350006400470047fd0700e0ff37000200fa0045
:105360000000eb00000f7800070037001e007800f7
:1053700080004000a0af2000008040008000eb00d3
:10538000010878001e0fe8001e007800ed0f5000a5
:10539000f6ff34000080fa00000006000200fa0068
:1053a000000f780090fc07001e0078000000e0006d
:1053b00006003a001100200040002000aefa07006d
:1053c000100020004cfc0700660037001e0078002b
:1053d000e10f500006003a001100200050002000ac
:1053e000a5fa07001000200043fc07005d0037000d
:1053f0001e007800e20f500006003a001100200065
:10540000600020009cfa0700100020003afc070012
:10541000540037001e007800e30f500006003a00e9
:10542000110020007000200093fa070010002000f7
:1054300031fc07004b0037001e007800e40f5000dd
:1054400004003a0011002000100020008afa070032
:10545000440037001e007800e50f500004003a00b9
:10546000110020002000200083fa07003d003700d3
:105470001e007800e60f500004003a0011002000e2
:10548000300020007cfa0700360037001e0078004c
:10549000e70f500004003a001100200040002000f7
:1054a00075fa07002f0037001e007800e80f500043
:1054b00004003a0011002000500020006efa07009e
:1054c000280037001e007800e90f500004003a0061
:1054d000110020006000200067fa0700210037005b
:1054e0001e007800ea0f500004003a00110020006e
:1054f0007000200060fa07001a0037001e007800d4
:10550000eb0f500006003a001100200010002000b0
:1055100059fa07001000200015fc070011003700a1
:105520001e007800ec0f500006003a001100200029
:105530002000200050fa0700100020000cfc07009b
:10554000080037001e007800ed0f500005003a00fb
:10555000110020003000200047fa07001000200052
:1055600003fc07000080fa00000006000800fa00b3
:10557000a0312c00bffc070050002000200798003d
:1055800010002000300798000000eb00000f7800aa
:10559000140037000000eb00100798000d003700e2
:1055a0001e0078006500b900800078001e009000a1
:1055b0000080400080004000209e200000804000cd
:1055c0008080eb00010878001e0090000000e800d9
:1055d000100798001e009000e40f5000f0ff340008
:1055e0001e0fe8001e007800ed0f5000e9ff3400a8
:1055f0000000eb00000f7800140037000000eb0003
:10560000100798000d0037001e0078006500b900f3
:10561000800078001e009000008040008000400064
:10562000e0a6200000804000ae0090000108780055
:105630001e0090000000e800100798001e00900077
:10564000e40f5000f0ff34001e0fe8001e00780049
:10565000ed0f5000e9ff340040282000104f880073
:1056600080d92000204f8800be0090008153880020
:1056700020322100304f880080152300404f8800e1
:10568000e0452300504f8800c0c62300604f8800cb
:1056900010ef2300704f880050302000604f8800ca
:1056a00000912000704f8800be009000d153880008
:1056b000c0f92000804f8800be009000e1538800b0
:1056c000605a2100904f880080842200a04f8800fb
:1056d000c0352300b04f880060382000b04f8800ec
:1056e000e0112100c04f8800b0822100d04f880017
:1056f00080f32100e04f8800be00900041548800f4
:105700007040200000508800be0090006154880066
:1057100040b9200010508800303a21002050880005
:1057200000b3210030508800203222004050880011
:105730002e0090004200dd00a0548800d0ac220072
:10574000405088007040200050508800be009000fb
:10575000b1548800504a21006050880030cb2100ad
:1057600070508800204c2200805088003054220065
:105770009050880080482000a050880010d520005c
:10578000b050880080d92000c05088003e009000b2
:105790006300b90000007800205588009072210055
:1057a000c0508800a0032200d0508800d09a220068
:1057b000e050880090502000f0508800c0f9200090
:1057c000005188003e0090006300b900000078009e
:1057d00060558800e09a2100105188001044220092
:1057e000205188009058200040518800d0092100a5
:1057f00050518800406422006051880010bb210095
:1058000070518800be009000d1558800a060200033
:1058100090518800102a2100a051880070eb2100cf
:10582000b051880080842200c0518800d0b422008a
:10583000d051880030762300e0518800c0702000ed
:10584000e0518800504a2100f0518800e02b2200ee
:1058500000528800b09c2200105288000000eb002b
:10586000705688007005230020528800307623008f
:1058700030528800d0782000305288009072210089
:1058800040528800506c22005052880040ed2200a7
:10589000605288001066230070528800f0de2300fa
:1058a00080528800e080200080528800c08a210059
:1058b00090528800a0942200a052880080152300f6
:1058c000b052880070962300c052880000912000da
:1058d000d052880010bb2100e0528800204c2200ea
:1058e000f052880030e5220000538800b02d2300dc
:1058f00010538800b0be23002053880030a9200038
:105900002053880080f3210030538800d03d2300cd
:10591000405388000080fa00000006000800fa00ea
:1059200080332c00d3fb0700500020002007980094
:1059300010002000300798000000eb00000f7800f6
:10594000140037000000eb00100798000d0037002e
:105950001e0078006500b900800078001e009000ed
:105960000080400080004000209e20000080400019
:105970008080eb00010878001e0090000000e80025
:10598000100798001e009000e40f5000f0ff340054
:105990001e0fe8001e007800ed0f5000e9ff3400f4
:1059a0000000eb00000f7800140037000000eb004f
:1059b000100798000d0037001e0078006500b90040
:1059c000800078001e0090000080400080004000b1
:1059d000e0a6200000804000ae00900001087800a2
:1059e0001e0090000000e800100798001e009000c4
:1059f000e40f5000f0ff34001e0fe8001e00780096
:105a0000ed0f5000e9ff340040282000104f8800bf
:105a100080d92000204f8800be009000815388006c
:105a200020322100304f880080152300404f88002d
:105a3000e0452300504f8800c0c62300604f880017
:105a400060382000b04f8800e0112100c04f88006e
:105a5000b0822100d04f880080f32100e04f880001
:105a6000be00900041548800704020000050880023
:105a7000be0090006154880040b92000105088009a
:105a8000303a21002050880000b3210030508800b7
:105a900020322200405088002e0090004200dd009d
:105aa000a0548800d0ac22004050880070402000f4
:105ab00050508800be009000b1548800504a210028
:105ac0006050880030cb210070508800204c2200ac
