:020000040000fa
:080000000001040000000000f3
:020000040000fa
:04000800f6050000f9
:020000040000fa
:04000c00f6050000f5
:020000040000fa
:04001000f6050000f1
:020000040000fa
:04001400f6050000ed
:020000040000fa
:04001800f6050000e9
:020000040000fa
:04001c00f6050000e5
:020000040000fa
:04002000f6050000e1
:020000040000fa
:04002400f6050000dd
:020000040000fa
:04002800f6050000d9
:020000040000fa
:04002c00f6050000d5
:020000040000fa
:04003000f6050000d1
:020000040000fa
:04003400f6050000cd
:020000040000fa
:04003800f6050000c9
:020000040000fa
:04003c00f6050000c5
:020000040000fa
:04004000f6050000c1
:020000040000fa
:04004400f6050000bd
:020000040000fa
:04004800f6050000b9
:020000040000fa
:04004c00aee2000020
:020000040000fa
:040050004ee200007c
:020000040000fa
:04005400e2010000c5
:020000040000fa
:04005800f6050000a9
:020000040000fa
:04005c00f6050000a5
:020000040000fa
:04006000cc010000cf
:020000040000fa
:04006400f60500009d
:020000040000fa
:04006800f605000099
:020000040000fa
:04006c00f605000095
:020000040000fa
:04007000f605000091
:020000040000fa
:04007400f60500008d
:020000040000fa
:04007800f605000089
:020000040000fa
:04007c00f605000085
:020000040000fa
:04008000f605000081
:020000040000fa
:04008400f60500007d
:020000040000fa
:04008800f605000079
:020000040000fa
:04008c00f605000075
:020000040000fa
:04009000f605000071
:020000040000fa
:04009400f60500006d
:020000040000fa
:04009800f605000069
:020000040000fa
:04009c00f605000065
:020000040000fa
:0400a000f605000061
:020000040000fa
:0400a400f60500005d
:020000040000fa
:0400a800f605000059
:020000040000fa
:0400ac00f605000055
:020000040000fa
:0400b000f605000051
:020000040000fa
:0400b400f60500004d
:020000040000fa
:0400b800f605000049
:020000040000fa
:0400bc00f605000045
:020000040000fa
:0400c000f605000041
:020000040000fa
:0400c400f60500003d
:020000040000fa
:0400c800f605000039
:020000040000fa
:0400cc0062e10000ed
:020000040000fa
:0400d000f605000031
:020000040000fa
:0400d400f60500002d
:020000040000fa
:0400d800f605000029
:020000040000fa
:04010800f6050000f8
:020000040000fa
:04010c00f6050000f4
:020000040000fa
:04011000f6050000f0
:020000040000fa
:04011400f6050000ec
:020000040000fa
:04011800f6050000e8
:020000040000fa
:04011c00f6050000e4
:020000040000fa
:04012000f6050000e0
:020000040000fa
:04012400f6050000dc
:020000040000fa
:04012800f6050000d8
:020000040000fa
:04012c00f6050000d4
:020000040000fa
:04013000f6050000d0
:020000040000fa
:04013400f6050000cc
:020000040000fa
:04013800f6050000c8
:020000040000fa
:04013c00f6050000c4
:020000040000fa
:04014000f6050000c0
:020000040000fa
:04014400f6050000bc
:020000040000fa
:04014800f6050000b8
:020000040000fa
:04014c00aee200001f
:020000040000fa
:040150004ee200007b
:020000040000fa
:04015400e2010000c4
:020000040000fa
:04015800f6050000a8
:020000040000fa
:04015c00f6050000a4
:020000040000fa
:04016000cc010000ce
:020000040000fa
:04016400f60500009c
:020000040000fa
:04016800f605000098
:020000040000fa
:04016c00f605000094
:020000040000fa
:04017000f605000090
:020000040000fa
:04017400f60500008c
:020000040000fa
:04017800f605000088
:020000040000fa
:04017c00f605000084
:020000040000fa
:04018000f605000080
:020000040000fa
:04018400f60500007c
:020000040000fa
:04018800f605000078
:020000040000fa
:04018c00f605000074
:020000040000fa
:04019000f605000070
:020000040000fa
:04019400f60500006c
:020000040000fa
:04019800f605000068
:020000040000fa
:04019c00f605000064
:020000040000fa
:0401a000f605000060
:020000040000fa
:0401a400f60500005c
:020000040000fa
:0401a800f605000058
:020000040000fa
:0401ac00f605000054
:020000040000fa
:0401b000f605000050
:020000040000fa
:0401b400f60500004c
:020000040000fa
:0401b800f605000048
:020000040000fa
:0401bc00f605000044
:020000040000fa
:0401c000f605000040
:020000040000fa
:0401c400f60500003c
:020000040000fa
:0401c800f605000038
:020000040000fa
:0401cc0062e10000ec
:020000040000fa
:0401d000f605000030
:020000040000fa
:0401d400f60500002c
:020000040000fa
:0401d800f605000028
:020000040000fa
:100200002f0e21000e7f22000e018800000000004a
:10021000000020000000e000020032000001200089
:100220002002880014000700720207000000e000ae
:1002300003003a0040c82d000100200002003700f2
:100240000000200001002000810f7000010032003a
:1002500014000700000020000000e000020032004f
:1002600000000200000000006edb02000000000041
:100270000040da000000fe004440a9008000200099
:100280000000e0000300320000002000a001880010
:100290004440a800000006008a1f78008b1f7800e9
:1002a0000000060091018800800478000000eb0047
:1002b0001a003700e284440032a0b4009905ba0065
:1002c000e284440032a0b4009906ba00e2844400fb
:1002d00032a0b4000006eb00476fde00fd07b2005d
:1002e000636ce10003003a00ebff07000000eb0045
:1002f0000a003700606ce10004003a00005deb008a
:100300008b05e900fdff3e00040037006168e10055
:10031000010032000086eb000b00070019c7ba008d
:100320001905ba000e04e00003003a000a00e000dc
:10033000e0ff3a0000000600fe07b2009e018800c0
:100340008a047800f5ff3700395dba008b05e900b3
:100350000c003200295dba008b05e900080032006c
:100360000c00e00003003a00e284440032a0b40034
:10037000f5ff370019ddba008b05e900faff3a00f6
:100380008904e800e184440032a0b40000000600c3
:10039000780d0400000000003400f800881f780089
:1003a00008002000a80188004f0478000000fa002f
:1003b00085c0a9007468ef000080fa003400f900dd
:1003c00000400600809fbe00829fbe003400f800ff
:1003d00000002000a00188000200fa004868ef0039
:1003e0004968ef008560a900e18420009140780011
:1003f000f0c3b30080cf500003003e004ec8bf00e2
:100400000040e8004ee8b70080428000e10f400065
:1004100003003200804280000000e8008042880033
:100420004ac8bf000004e000270032000028200076
:10043000000f7800204280009e0078009100780034
:1004400000014000e0872000000041000108780022
:100450001e8fe800204280009e0078009100780006
:100460000010b00000014000e087200000004100c3
:10047000010878001e8fe800204280009e0078006e
:10048000910078000020b00000014000e0872000cb
:1004900000004100010878001e8fe8002042800023
:1004a0000000e8002042880021428000f00f200078
:1004b000808f5000c60136004428ef0010c0b30002
:1004c00049e8b700c2013700a1e2a900c00120003d
:1004d000501588001115800030fc2f00008060004e
:1004e0000030a000101588002115800000fc2f00ae
:1004f00080806000700220000100700020158800dc
:100500002185200091407800d0c3b30080cf5000f7
:100510000d003a00c00f2000501588001115800012
:1005200030fc2f00008060004001b30010158800ef
:100530002115800000fc2f00008060003001b30016
:10054000201588005b00370021852000914078004d
:10055000e0c3b30080cf50002a003a00111580009c
:1005600030fc2f00008060000040a00010158800c3
:100570002115800000fc2f00008060007001b30096
:100580002015880053c8bf000080fb00e20f500018
:1005900012003200e20f500005003c000000e000b5
:1005a00008003200e10f500009003200410037001e
:1005b000e30f50000c003200e40f50000e00320038
:1005c0003c003700c0112100501588003900370069
:1005d000c02122005015880036003700c041240099
:1005e0005015880033003700c0812800501588005e
:1005f000000000002f003700f00120005015880097
:100600002c00370052c8bf00e24f500029003a00ca
:100610001115800030fc2f00008060000040a00019
:10062000101588002115800000fc2f00008060005c
:100630007001b3002015880053c8bf000080fb0084
:10064000e20f500012003200e20f500005003c00a3
:100650000000e00008003200e10f50000900320005
:1006600014003700e30f50000c003200e40f50007c
:100670000d0032000f003700c01121005015880016
:100680000c003700c02122005015880009003700f7
:10069000c04124005015880006003700c0812800a2
:1006a0005015880003003700f00120005015880025
:1006b00000000000a1e2a80000282000000f780040
:1006c0002185200091407800f0c3b30080cf500016
:1006d00003003a0053c8bf00e44f50002a00320024
:1006e00052c8bf00e34f500003003a0053c8bf0098
:1006f000e44f500024003200204280009e00780029
:100700009100780000014000e087200000004100d7
:10071000010878001e8fe800204280009e007800cb
:10072000910078000010b00000014000e087200038
:1007300000004100010878001e8fe8002042800080
:100740009e007800910078000020b0000001400079
:10075000e087200000004100010878001e8fe800bb
:10076000204280000000e8002042880021428000f2
:10077000f00f2000808f5000030036004428ef0067
:1007800010c0b30049e8b7002185200091407800ef
:10079000e0c3b30080cf500022003a003042800016
:1007a0000000e80030428800314280001003200041
:1007b000808f5000010036004628ef003042800054
:1007c0009e0078009100780000014000e0e72000e2
:1007d00000004100010878001e8fe80030428000d0
:1007e0009e007800910078002003b00000014000d6
:1007f000e0e7200000004100010878001e8fe800bb
:10080000304280009e007800910078004006b000e1
:1008100000014000e0e720000000410001087800ee
:10082000dc0037002185200091407800f0c3b30040
:1008300080cf500063003a0053c8bf000080fb0027
:10084000e20f50001e003200e20f500005003c0095
:100850000000e00008003200e10f50000f003200fd
:10086000cc003700e30f50001e003200e40f5000b0
:1008700026003200c70037001e0078001000780004
:10088000507d88001e8fe8001e0078001000780060
:10089000907d8800e2e2a800be0037001e007800cc
:1008a00010007800607d88001e8fe8001e00780030
:1008b00010007800a07d8800e302a800b500370092
:1008c0001e00780010007800707d88001e8fe80000
:1008d0001e00780010007800b07d8800e802a800b3
:1008e000ac0037001e00780010007800807d880082
:1008f0001e8fe8001e00780010007800c07d880080
:10090000e822a80000000000a20037001e007800c6
:1009100010007800e07d88001e8fe8001e0078003f
:1009200010007800d07d88001e8fe80020428000f3
:100930009e0078009100780000014000e0872000d0
:1009400000004100010878001e8fe800204280006e
:100950009e007800910078000010b0000001400077
:10096000e087200000004100010878001e8fe800a9
:10097000204280009e007800910078000020b000a6
:1009800000014000e08720000000410001087800dd
:10099000204280000000e8002042880021428000c0
:1009a000f00f2000808f5000030036004428ef0035
:1009b00010c0b30049e8b700d042a800d022a80078
:1009c0007400370052c8bf00e34f500071003a0076
:1009d00053c8bf000080fb00e20f5000220032002d
:1009e000e20f500005003c000000e000080032006b
:1009f000e10f50001100320066003700e30f500095
:100a000024003200e40f5000320032006100370051
:100a10001e00780010007800f07d88001e8fe8002e
:100a20001e00780010007800307e8800e2e2a90005
:100a300010c0b30053e8b700560037001e0078001e
:100a400010007800007e88001e8fe8001e007800ed
:100a500010007800407e8800e302a90020c0b300a7
:100a600053e8b7004b0037001e00780010007800f4
:100a7000107e88001e8fe8001e00780010007800ad
:100a8000507e8800e802a90030c0b30053e8b700e8
:100a9000400037001e00780010007800207e88009b
:100aa0001e8fe8001e00780010007800607e88002d
:100ab000e822a90060428000ea0f500003003a00db
:100ac00040c0b30053e8b700320037005368ef006e
:100ad000300037001e00780010007800807e88000b
:100ae0001e8fe8001e00780010007800707e8800dd
:100af0001e8fe800d042a900d022a9005368ef0061
:100b0000204280009e0078009100780000014000a3
:100b1000e087200000004100010878001e8fe800f7
:100b2000204280009e007800910078000010b00004
:100b300000014000e087200000004100010878002b
:100b40001e8fe800204280009e007800910078000f
:100b50000020b00000014000e087200000004100bc
:100b600001087800204280000000e8002042880050
:100b700021428000f00f2000808f500004003600da
:100b80004428ef0010c0b30049e8b7000100370067
:100b90000000000021852000914078008181fb0049
:100ba00010c0b300f2032000828f510001003c000e
:100bb0000040eb008140e800814178002285200060
:100bc000034978000004e000010032005268ef00a1
:100bd00010c0b30048e8b7000080fa003400f90004
:100be0004f01be004f00be00004006000040da008a
:100bf0000000fe000000050003f0a200889fbe0078
:100c00008a9fbe008c1f7800190107002001330065
:100c10006450e1004f0032006420e10052003200d5
:100c200003826c0007003b000905d0000306d000da
:100c3000820f54000c065d000200390002003200f1
:100c400089017800030678008582550004003d0084
:100c50000003fd008103fd008502ea008b85420050
:100c6000840f720002003b0060001000e08018005a
:100c70006011b8000005eb007a28e1000a00390095
:100c800006007800c75ddd00f707b20087807500b9
:100c90002d003700828171000a0178006105600033
:100ca0008180d1000080d3008502e900f9ff3b007c
:100cb000060440008784480002003b0060041400e2
:100cc000e0841c000988a300070032008a817100bb
:100cd00082817100610164008904d1000884d3001d
:100ce0008b05e800170037000978a30013003a00cd
:100cf0000b00e000130034008b05e90008044400f9
:100d000089844c000a4474000978a3000d003a005d
:100d10000b00e000070034008b05e90008044400e4
:100d200089844c0001003a000b0020000978a300e0
:100d3000f7ff32000001eb000200370082817100f2
:100d40000a0178008f0007000cf0a70001f0a00056
:100d5000d80037006420e10002003a00838f6c0065
:100d6000d80033000801be000200be00d1003700e9
:100d7000889fbe008a9fbe008c1f7800bc000700c1
:100d8000c300330003866c006450e1002e00320083
:100d90006420e100330032006150e1002f00320096
:100da0006120e1003100320085855500eb07b0007d
:100db0000900200008042000050037000804440052
:100dc00089844c000a0031000603430087834b00ee
:100dd0000001530081815b00f8ff33000203be0075
:100de0000800a0000804440089844c00f6ff390084
:100df000c639dd00830173000100320013002000ba
:100e00008904d1000884d3000998a30005003200aa
:100e10000800a7000300a0008904d1000884d300c3
:100e20008b05e8008904d1000884d3000001eb00a1
:100e30000281d2005300070001f0a1000cf0a700ce
:100e400001f0a0009b0037006420e1009d0032000b
:100e50000801be000200be00f7ff37006120e1007c
:100e6000980032006000b800f3ff37000000200057
:100e700001f82700f0ff3700f4ff2f004102370090
:100e80000001be00650007000470a70003f0a10088
:100e90006509b100160032000d0035006828e10038
:100ea00006003500f0ff2f00f1ff27000300e000ef
:100eb00013003b0001002800000005000000400076
:100ec000818048008502e900fcff3a0008003700f5
:100ed000f88f420002003c008000eb00000005009b
:100ee0008100d1000080d3008502e800fcff3a00b9
:100ef0000300e00002003b0060001000e0801800ea
:100f0000000006000001be00440007000470a700b6
:100f100003f0a10003f8a30013003a006509b10033
:100f200010003200090035006928e1000200350098
:100f300001002800000005000000400081804800fa
:100f40008502e900fcff3a0000000600f88f42002d
:100f5000050035008100d1000080d3008502e80043
:100f6000fcff3a00000006008000eb0000000500d6
:100f70004f89de00820178001f0237006011b8003f
:100f80002d02370081002000618055000b003d00dc
:100f90000b00200061fe2f000100e1001d00340065
:100fa00082817100610164008904d1000884d3004a
:100fb0000000e800faff3a007100200061006400c0
:100fc0000300700002006000090032006104440068
:100fd000e0844c000988a500050032008b05e8007c
:100fe0006808e10002003a008904d1000884d300b7
:100ff000f20f20000258e10005003d00c75ddd0052
:10100000f907b2008980750008007800000006002a
:101010000bf827008b00780000000500c70ade00ef
:10102000f107b200f50fb20008003200e1cf420034
:10103000020032000170a00024000500810f700042
:10104000010032000408050044000500810f700013
:1010500002003a00140005008502e900000040008b
:1010600081c04800fcff3b000170a0002400050087
:101070000004be00e9ff07000003be000405be0037
:101080000200be00e5ff0700844f75000000060067
:101090000200be006450e100050036006420e1005b
:1010a000020036000968a30001003a000800be00f3
:1010b0000160a0004f0678004f05be004f04be003f
:1010c00000000600f0ff2f00f1ff2700f9ff3700b6
:1010d000889fbe008a9fbe008c1f7800e4ff070037
:1010e000ebff330003866c006450e1002400320003
:1010f0006420e100270032006150e100220032004c
:101100006120e100210032008b854200eb07b10035
:101110000134b800003ab8000804420089844a004b
:10112000013ab8000030b8008880400009014a0048
:1011300004003300000040008180480002014900a3
:101140008b05e900c909dd00830170000100320050
:1011500013002000c814de004814dd004709de003b
:101160001200b200c808de000884700085ff070086
:1011700001f0a1000cf0a70001f0a000cdff3700a6
:101180006120e100cfff32000801be000200be0076
:10119000f7ff37006150e100fcff3a00c9ff37005c
:1011a0000c00fa00889fbe008a9fbe008c9fbe0084
:1011b000afff07000206be00840578000200be00f3
:1011c000020020004801070005003a008b02b3002e
:1011d000120020004401070001003a00f8856d006c
:1011e0000c01be00c60007000800be009b003200d4
:1011f0000b08a3009e003a000df0a7000be0a00032
:1012000009f0a7000bf0a00009f0a1000801be0042
:10121000bb0007000bf0a6009500320001003c0067
:101220000bd0a0008acf7500b20033006000b80078
:101230006250e10099003900a1003e000b28a30094
:10124000a2003a000bf8a300060032000b58a300de
:10125000a70032000801be00a90007000800be0078
:10126000940032000800be00b00007000004be0079
:10127000050578000bf0a7000b30a6000bf0a100cd
:101280005b079800324f200053f3230058010700fa
:1012900005003d000800be00120020009501070077
:1012a0000004be000a05e9004a0798006150b90031
:1012b0002fff0700008fbe000c01be0084ff070057
:1012c000effe0700300798000100e00002003d003b
:1012d00060001000e0801800f2ff2700820f50002d
:1012e000e08f580064003e000c00be00e4fe0700e2
:1012f00020079800f2072000820f5000e08f58006e
:1013000005003c0012f82f00f3ff2f00820f500061
:10131000838f580009003d000a00e00003003200fe
:1013200001003c000201ea00020578006000b800fc
:10133000200798003a079800190037003e009000f7
:101340006100b9000aff0700809fbe000c00be00cc
:101350004109dd004811de007208b100e20007001b
:101360000005be001e01be0059ff07004f01be0070
:1013700021fe0700809fbe000c00be000a01be00d7
:101380001dfe07001e01be0051ff07004f01be00f9
:101390001afe07008221270013f323004cff0700e9
:1013a0000005be002e0090006100b900f0fe0700ad
:1013b00001f0a2000c01be0010fe07000006be00f6
:1013c0000800be006d0107000c01be0040ff0700d1
:1013d0000a01be0009fe0700809fbe004a00070008
:1013e0002e0590000af0a7000a05ea000500370064
:1013f0000800be000801be0035ff07000004be0063
:101400000c00be000801be000a00a70030ff070064
:101410000006be000a05d100f5ff3a005e0190000b
:1014200002e0a600030037000001be0036000700fe
:101430004ffe07000004be004f00be00480007003a
:101440000801be0022ff07003e01900029010700ad
:10145000de0590000bf0a70001f0a2004f06be00d1
:101460004f05be004f04be000080fa0000000600d9
:1014700025000700f9ff3700270007006000b800cb
:101480000bd0a7000bc0a0000be0a7000bc0a20070
:101490000bc0a70001f82700f0ff37000df8a300ec
:1014a000020032001e000700190007000bf8a3001d
:1014b000eaff32000b30a70001f0a200e7ff37007f
:1014c0000df8a300f9ff3a00f7ff37000801be004e
:1014d0000b000700e6ff320001003c000df0a20007
:1014e0006000b8000df0a70009000700dbff37001f
:1014f0000b000700f1ff2700f0ff2f00d7ff370098
:1015000001000700ba00370001f8230000000500c1
:1015100001f827000000050020022000010037002c
:1015200010022000e0438800000006000003be0017
:10153000bafe07006220e100020032000600be0091
:1015400005000500e507b100f107b20004f0230033
:101550008480700007f0a70001f0a00024000500bf
:10156000889fbe008a9fbe008c9fbe000004be0004
:10157000aafe07000800be006420e10048003e000b
:101580005500320072212700132b24003afe070079
:1015900047003c000800be00c2ec2800e32c2c00f1
:1015a00093000700470035000800be0001f0a100cd
:1015b00002002000033823008d000700430035009f
:1015c0000800be00b2a32a0083fb2300c0fe070070
:1015d0000200200003f0230001f0a70003f0a000a8
:1015e00086fd070026fe07000005be0060fe07001e
:1015f00001f0a2000006be000200280013f3230041
:10160000b3fe07000801be007cfd0700809fbe00fe
:101610000c00be0032082800e3952b00acfe07004a
:101620004f01be0075fd07000006be000001be00b0
:10163000a7fe0700809fbe004241250083b823001b
:10164000a3fe07000200200003e823006bfd070053
:101650000c01be009efe07000006be004f00be004b
:10166000f2f92b00c3d4230099fe070002002000ea
:1016700003f0230061fd07000c01be005efd0700c2
:101680000001be000c00be00b9fd070002002000f2
:1016900003f0230059fd0700610145009500070094
:1016a0004f06be004f05be004f04be0000000600fe
:1016b00001f827000000200022022000e2438800f9
:1016c000f7ff37006000b800fbff370001f8230088
:1016d00000002000f2ff370009f8a300f0ff3200fd
:1016e0006000b800eeff3700889fbe008a9fbe00f2
:1016f0000003be0049fe0700850578008281520084
:10170000020020006220e10004003a00f307b1006b
:10171000040035007718e100040035000600be0023
:10172000140037006000b8000f003700f50f2000ec
:10173000faff2f008502d1000a85d3008301e9005a
:10174000fcff3b008184620000046500890f740087
:10175000f2ff32008582ea000a85ea008184620095
:101760000004650007fe070007f0a70001f0a000d5
:101770000081eb000200e0004f05be004f04be00f8
:1017800000000600889fbe008a9fbe00841f78006c
:1017900037fe07004f00780011003300f0ff2f00e4
:1017a000838f6c0006003b00040565000a00a7005b
:1017b0000800370009f0a6001000200008003700dc
:1017c000820f5400838f5c0003003900100020005a
:1017d00001003e000000200009f0a7000000ea0020
:1017e0004f05be004f04be000000e00000000600f0
:1017f00014002000e3ff3700881f780003047800fe
:101800000300e00007003d0060001000e0801800c9
:1018100060011900e081190002003b0001f02d0079
:10182000030037000400070008f0a70001f0a00043
:101830004f04780000000600889fbe008a9fbe000b
:1018400000827000040271000482710026003200e0
:101850000004be000200be006011b8006b09200049
:10186000950220000182cf000a0039000541b10035
:101870000082cf00070039000541b1000982cf0086
:10188000040039000541b1000882cf000100390091
:101890000541b10005425200120032000a003b002f
:1018a00082817100610164008100d1000080d30059
:1018b0008984d3000884d3008b05e8000442e80043
:1018c000f7ff3a00070037000804440089844c0001
:1018d00000004800818048008b05e9000442e900cf
:1018e000f9ff3a00a7fd07004f05be004f04be00f8
:1018f000000006000003be00c8fd07006220e100f2
:10190000020032000600be00000006008502410011
:10191000e30f20000328e10005003c00a3fe2f0098
:101920000328e10007003d0005002000010037000a
:10193000f50f200020022000e04388006000b8007e
:1019400008003700130020008381520005003d008d
:101950008100d1000080d3008301e800fcff3a0041
:1019600005002000c72add00f107b2008580700065
:1019700007f0a70001f0a00000000600889fbe004d
:101980008a9fbe008c9fbe00e8fe07008504780099
:101990000005be006420e10049003e006220e10035
:1019a00003003200090035000bf8a30044003200a8
:1019b0000bf8a3000800320010022000e04388006a
:1019c000f0ff2f00f1ff27003d00370001f82f0046
:1019d000000020003a0037003d00070086fc0700a9
:1019e0000006be000a00be00324f200053f3230061
:1019f00021fd0700060034000c00be003400070083
:101a00007dfc07000006be000a00be000200370091
:101a10008904e9000c00be002d000700acfd0700a2
:101a20002b00070075fc07000001be000c00be0083
:101a3000cffc07000005be000001be00a4fd0700aa
:101a40000006be00a2f32300430d2c006bfc070030
:101a5000809fbe000c00be00d2e32700d3f02b0015
:101a60009bfd07004f01be00c1fc07000006be0041
:101a70000a01be0096fd07000a01be005ffc0700d8
:101a80000006be006148b90039fd07000005be0030
:101a900032082800e3952b008dfd07000c01be00e5
:101aa00056fc07000006be000a00be000200280027
:101ab00013f3230086fd07000c01be004ffc070056
:101ac0004f06be004f05be004f04be0000000600da
:101ad00003f0230002000500800078000101780077
:101ae0003104e000fdff3a00000051000000060054
:101af000881f78000204780008017800630407005a
:101b0000080040004f047800000006000000fa00c2
:101b1000881f780000047800ea8157003fb99700d9
:101b20008800780080d72000070007000000e00050
:101b3000020035008040eb00017478004f0478000b
:101b40000080fa00000006006200fa00889fbe00d4
:101b50008a1f78000005780081047800020478006c
:101b60008300780080f92f000f0040006f06070007
:101b70009a979f00a9979f000000eb00b09f9f00dd
:101b80001885fb008a04fb000a05ea004f55de00b9
:101b900050022000808f54000d003200e10f5500ec
:101ba0000b003a000a017800880078002f90970017
:101bb0009f91970003000100a0979f000000e000a4
:101bc0008e0032003f9897000000e800b09f9f0011
:101bd0000a04440050022000808f540004003200a8
:101be0000900e000e6ff3a003f98970084003700c4
:101bf0000000eb00909f9f00809f9f00f0979f0048
:101c0000e0979f00d0979f00c0979f000700370084
:101c1000410c21000100500000004000810b210018
:101c200061007800df98970001007000d09f9f004e
:101c30008804780009047800384578008a00fb00a1
:101c4000400c2100180407000000e000f0ff3a00fb
:101c5000a1c2b300814f55000e003a00cf88970013
:101c60000180e900c08f9f0010007800c09f9f0096
:101c70000000e00005003d000000ea00c09f9f005a
:101c80005f9897000020a000d09f9f000904e80003
:101c90000f003700c09f9f000000eb0005003700d9
:101ca000f2ff2700820f5000020032006a01b900e3
:101cb000028040000904780088047800b900fb0025
:101cc0000103b100e98f5000f5ff3600c09f9f006f
:101cd000e0c2b300984f1000020032000080eb0019
:101ce00019003700a0c2b300d84f100007003a0017
:101cf000cf8897000180e900c08f9f001000780016
:101d0000a09f9f000804e800100037000000eb00cf
:101d1000a09f9f008800780005003700f3ff270090
:101d2000830f5000020032006a02b9000400410033
:101d300001047800880078003101fb000203b10043
:101d4000e90f5100f5ff3600a09f9f0098447800ee
:101d50008900fb00000b2100d30307000000e00016
:101d6000020032000804e800010037008044eb0064
:101d7000c97f9f0080c6b30080cf540004003a00a2
:101d800098cf14000a003a00664050000600370061
:101d9000c0c6b30080cf540005003a0098cf1400ad
:101da00003003a0065404000c07f9f000804e8003f
:101db0001801fb00e3fb2f008f81410081f92f0008
:101dc0008f804000a0f92f000f0040001000070096
:101dd0000000e00009003a00e1fb2f008f80400086
:101de000a0f92f000f004000140507000000e000dc
:101df000020035000804e80061ff37000080eb00b6
:101e00004f0578004f04be000080fa000000060075
:101e1000889fbe008a1f7800000478008244780002
:101e20000305780070c6b30080cf54001a003c0050
:101e300000c0e90080cf5400cd003d006d4050004f
:101e400080cf5400770032000b003c0071405000fe
:101e500080cf540035013c0000c0e90080cf540021
:101e6000c3003d0050c2b30080cf54002c013200ab
:101e70007c4040000500370030c6b30080cf5400de
:101e80001a0032001e003c0000c0e90080cf540060
:101e900026013a00b6003700f0c6b30080cf5400e8
:101ea0006000320007003c006640500080cf5400c4
:101eb000130032006540400080cf54001b013a00ff
:101ec000d400370050c7b30080cf54005500320013
:101ed0006340400080cf54005200320002c7b3007c
:101ee00082cf540011013a00ff0037001181e90050
:101ef0008208780078009000127578001101370090
:101f000028609000c2c6b300824f500007003a001c
:101f10001101780064005100800878001000be00b4
:101f20004f89de00820178001400370012c7b30029
:101f3000824f500003003a001102780068005200fe
:101f400005003700a2c6b300824f500006003a00d9
:101f50009102780068805200800878005001be002d
:101f60004000be00050037001180e90080087800bd
:101f700010007800cf80de006109b900009cbe002f
:101f80000294be002862900085c6b300854f5200bf
:101f90000d00320025c6b300854f520004003a0000
:101fa0000000fb00cf80de006109b90008003700a7
:101fb00045c7b300854f520003003200e6c242001d
:101fc000854f520004003a00cf80de006109b9005d
:101fd000009cbe000294be003802be002803be0072
:101fe00078009000d1c2b300e00f5200e08f5a0099
:101ff000e00f5b00e08f5b00080035008810900068
:102000000118a30002003200b1c2b3000300370080
:102010000108a3005100320001c2b300017578002d
:102020004c00370028609000c2c6b300824f5000b9
:1020300008003a001103780064005300800878001b
:102040001002be006033b8000400be000601be00ee
:102050001400370012c7b300824f500003003a004b
:10206000910278006880520005003700a2c6b300d4
:10207000824f500006003a001103780068005300b8
:10208000800878005001be004000be000500370007
:102090001180e90080087800100078008000eb00d3
:1020a0006011b800009cbe000294be00286290003f
:1020b00085c6b300854f52000d00320025c6b3001f
:1020c000854f520004003a000080fb008000eb00c6
:1020d0006011b8000800370045c7b300854f5200b3
:1020e00003003200e6c24200854f520004003a006d
:1020f0008000eb006011b800009cbe000294be009e
:10210000081090000038a300140032003800be0010
:102110002801be00e00f5000e08f5800e00f59008a
:10212000e08f59000d00320080c7b30080cf54000b
:102130000300320080c5b30080cf540007003a008e
:102140007800900001c3b300017578000000e8003a
:10215000097578000000e80070049800780090008d
:10216000000545006a04980089407800690037003e
:1021700028619000c0c4b300804f510006003a00af
:102180009103780068805300800878005001be00f9
:102190004000be00050037001101780064005100c6
:1021a000800878001000be00e6050700009cbe0015
:1021b0000294be00b8009000780090000100e0009a
:1021c00002003d00d1c2b300080037008810900023
:1021d0000118a30002003200b1c2b30003003700af
:1021e0000108a3000400320001c2b30001757800a9
:1021f0000000e80070049800780090000005450099
:102200006a0498008900fb0008007800530007006a
:102210004e00370028619000c3c6b3001180e9006a
:10222000834f5100240032000a003c00e4c15100f9
:10223000834f51002700320083c1e800834f5100d3
:102240001500320020c6b300804f510020003a0034
:102250000a00370043c7b300834f51001d0032000e
:10226000e6c14100834f51001a00320010c7b3008d
:10227000804f510016003a00060037001180e90037
:102280008008780010007800485c900008487800ca
:102290002e0037001180e9008008780010007800d7
:1022a000680a9000cfa2de00612bb9000498be003e
:1022b0000690be00250037008008780010007800e6
:1022c00068099000cf91de000288be001f00370031
:1022d0001180e9008008780010007800680c9000f8
:1022e00008087800190037001181e9008208780099
:1022f00012027800cfa2de00612bb900049cbe0060
:102300000694be00f8009000010545006a0498009c
:102310008040780008007800990207000b00370021
:10232000780090000975780006003700780090006a
:10233000000545000904e00001003a0059c2b3005d
:10234000094d78000000e800700498000000eb00e0
:102350004f0578004f04be00000006002f04b000b7
:10236000889fbe008a9fbe008c9fbe008e1f780093
:102370000007780081f79f003e04be002e05be00d6
:102380005e0890000000e00002003d0060002000b8
:10239000500f98008e00780020fb2f000f004000a7
:1023a0004d020700e20f50000a003a003000200002
:1023b000100f9800b1c9b3000ff0970081404000a2
:1023c000a0032100e1cf50000d003e00600321007a
:1023d0000b0037000000e0000f0034003000200048
:1023e000100f9800b1c9b3000ff197008140410070
:1023f00020042100e1cf500001003e00e003210055
:10240000ee009000b0487800b06878001040780086
:1024100090409800f30037000000e00005003a000b
:1024200022fb2f000f014100001978008001eb0012
:10243000e70037006022b8006033b8000800be0033
:102440000a01be00870407000000e00001003d0013
:102450000bf0a200705927009f9897000088b900e0
:10246000026a280013002000e204070064065000fe
:102470009c9f9f0013003b0063061600c0ff2f00c7
:10248000000666008c01ea00939f9f006d04210006
:102490000800be000a01be00070037000c08a300b8
:1024a000030032003d02be002d03be00740507008c
:1024b0000c86d100e88646000c00e000f7ff3c00e7
:1024c000180037000c00e00018003200c0ff2f0099
:1024d000000666009c9f9f006d0421006000b8000c
:1024e0000200200003ff2300070037000c08a300b0
:1024f000030032003d02be002d03be006005070050
:102500000c86d100e88646000c00e000f7ff3c0096
:102510000002be000203be000800be000a01be00a9
:102520005a0407000004be000205be00de08900049
:1025300060c6b3000ff29700804f520004003200d3
:102540006000200062c4b300824f520002003a00d3
:102550009f9a97006a80420081004000f1b79f0077
:1025600001037800f30f530002003400370120000c
:10257000f7b79f0000c3b300c0779f0056fb2f0042
:102580000f0343000e007800a0b79f0006077800f5
:102590003d0037000800be000a01be000805070024
:1025a0000006be007fb1970068015100f2b79f009e
:1025b0004240a9000c0034002d0507000002be00b7
:1025c0000203be000800be000a01be00a20507000b
:1025d0006022b80046782d007719240028050700ee
:1025e0000004be000205be00e80047008e00200087
:1025f0000802be000a03be00b4b79f00c5b79f0023
:10260000d6b79f00e7b79f000c01be000104780019
:102610000c003700a400200005002000c0fd2f00a2
:102620000f004000840107006fa89700ffa89700e3
:102630000fb197009fb1970005c3b3000564410037
:102640000001be00e00f5100e08f5900030034008c
:102650000e07e900e10f4700eeff3a00880078001e
:102660003fb49700cfb497005fb59700efb59700e0
:102670000200370000c3b300806078000e07e90055
:10268000fcff3b00688740007fb397000600e00036
:10269000070034006022b8006033b8000800be00b4
:1026a0000a01be00f40307000000e000b9ff3c008f
:1026b0000e0378002fb7970051fb2f008f8040004a
:1026c000010353009f9b970067804300909f9f00ea
:1026d000020037000603e9000000e900010178006c
:1026e0008200780003c3b300b1cf1100f9ff3200bc
:1026f000909f9f00de09900061c6b3000ff2970023
:10270000814f52000300320061c4b300814f520078
:1027100002003a000000e8000a0037001000200024
:1027200051c6b3008ff2970081cf520005003200ee
:102730000540780050c4b2000080fb000000e900b2
:102740004f00de0083014000868f510001003400fd
:10275000860178000300e0001d00350000c3b300cf
:10276000868f510006003d0062c27900694040003a
:1027700041c3b300814f520001003c00694050004a
:102780008300e900810041000100370084017800e6
:102790000302e90001037800a142780080cf5200d3
:1027a000faff320091c3b300814f500001003a009c
:1027b000054be8000400e00005003d000201e900cf
:1027c0008301e8001f9b97000603e800969f9f0087
:1027d0008ff397008700fb001f9a97000e00780088
:1027e000060007004f0778004f06be004f05be00e9
:1027f0004f04be002f04b10000000600f087470020
:10280000889fbe008a9fbe008c9fbe008e1f7800ee
:1028100000047800814478000205be0004067800b8
:102820000b00e00002003c001b0020000a0e21000b
:1028300060c6b30080cf54000e00320060c4b30005
:1028400080cf54000b00320070c6b30080cf54001c
:102850000300320070c4b30080cf540081003a00fe
:10286000e40f46007f00350058089000800f5600a6
:102870007c003d000c06e80060c6b30080cf540029
:102880001000320060c4b30080cf54000d0032004d
:10289000081090000038a30004003a005808900087
:1028a000808f550001003d005b0c98005808900097
:1028b0000c005000500c980002003b000000eb00a0
:1028c000500c980018089000e80090000c00e00000
:1028d00026003c0002c3b300827078000000e800cc
:1028e000100c9800d80890000100e00003003c00a4
:1028f000881090000138a30005003200e800900025
:10290000e2c2b300827078000000e800100c98006a
:10291000580890008c00ea00810f500001003d0033
:102920000006ea008c00ea00210c98000006460030
:102930005c0c98008b0f5600010034000b067800e9
:102940003c0c9800e80090001808900000804000bf
:102950000c0178008a007800cc000700580890002d
:102960000c0650004c0c9800900037008c8f5500de
:1029700018003d00008040000b0178008a007800bc
:10298000c20007001808900000804500100c980055
:102990008b0556002b0c9800d80890000100e00031
:1029a00003003c00881090000138a30006003200ac
:1029b000e8009000e2c2b30082707800380890000e
:1029c0000000e800300c980058089000400c980077
:1029d00076003700008040000c0178008a00780003
:1029e000aa0007001808900000004600100c98008c
:1029f0008c855500d80890000100e00003003c00e1
:102a0000881090000138a30005003200e800900013
:102a1000e2c2b300827078000000e800100c980059
:102a200058089000808f5500010034008005780020
:102a3000e800900018089000008040008c004500dd
:102a40000b01780091000700180890000b0040006f
:102a5000100c9800580890008b0550002b0c980023
:102a60005200370018089000e80090009a70780033
:102a70000000e800100c9800d80890000100e00069
:102a800003003c00881090000138a30005003200cc
:102a9000e8009000e2c2b300827078000000e80015
:102aa000100c9800580890000000e000100034005e
:102ab0008b05e900808f5500010034008005780007
:102ac000e800900018089000008040008a00e800ac
:102ad0000b0178006d000700180890000b00400003
:102ae000100c9800580890008b0550002b0c980093
:102af000e800900018089000008040000958780015
:102b00000007e8000c00e00004003500b1c2b3008b
:102b1000014878008e04780004003700d1c2b30069
:102b2000014878008e0478000c06ea007d85570085
:102b30008006eb0009003700a20020008c0078001e
:102b400072805700310007007fb097008fb8970060
:102b5000016d7800000678008d06e8000c00e000aa
:102b6000f5ff3c000d00e00009003a008e047800fb
:102b700000c3b300805c7800050037008d06e900d3
:102b8000fc80570061c07e0002c3b300825c40003d
:102b90000d00e000f9ff3c00e800900018089000ec
:102ba0000080400080845400390c98000810900088
:102bb00074006000f00f50000e003a00980890007a
:102bc0007800900000804000a808900001004000bc
:102bd000b808900001004000c808900001004000c3
:102be000f8089000810f500002003d000080500066
:102bf000000c98004f0778004f06be004f05be003e
:102c00004f04be000f01b1000000060080027800f2
:102c100001037800110009000203d8008001780048
:102c2000830a78000299b9000201530092029800c9
:102c30000500780000000600881f78008a9fbe000b
:102c40008c9fbe00000478000205be000406be0092
:102c50000401be000a00be00e6020700008cbe00b0
:102c60000c01be00110407000005550081855d00c0
:102c70002a0498003b049800080078004f06be0024
:102c80004f05be004f047800000006008001780068
:102c900002003700b15978000201e9000200e000ab
:102ca000fcff3a0000000600020037000304e000c9
:102cb000060032000001780002007800b041780080
:102cc00081cf5100f9ff3a00010037000001eb000d
:102cd0000200780000000600889fbe000004780013
:102ce000e68440001900d0004500de00f27f20009d
:102cf000820f500010003a00000ceb00990478009d
:102d00006f816400200020001b003a002101900028
:102d10000200e00018003a00110190000200e000fb
:102d200015003a00100020001100e00012003200ef
:102d300020002000100037000000e00004003a00ee
:102d400001007800fb0107000000e00008003c00e3
:102d5000f20028001901610001fe2300810c7100be
:102d600021c02f00010c40000080eb000200370062
:102d7000000ceb000000eb004f04be00000006005a
:102d8000fc874700889fbe008a9fbe008c9fbe00c4
:102d90008e1f78000006780080c5b30080cf5000f9
:102da0000a0032007740400080cf50000a00320015
:102db0006940400080cf50000b003200f009210034
:102dc00080bf9f00ae0020000a003700e20821000b
:102dd00082bf9f0006003700f309210083bf9f00d8
:102de0008e00200003003700f409210084bf9f00fb
:102df0000e0120003c02be002c03be000605be00f2
:102e00000404be0040c6b30080cf5000030032006f
:102e10006540400080cf50000b003a00e00f5200a8
:102e2000e08f5a00e00f5b00e08f5b0006003d0082
:102e30006000b8006011b800040450008584580098
:102e40000605590087855900e80f57000400320035
:102e500040002000f00f570038003a000100370012
:102e600030002000e00f5400e08f5c00e00f5d00b8
:102e7000e08f5d0004003a00dc0890008d01200026
:102e80000100e000060032008e00e900888060004a
:102e90008fba9700e5c07800f1ef9f007d01200018
:102ea000800078008100e900050033008b05d10027
:102eb0000a85d3008984d3000884d300f9ff370042
:102ec000089ebe000a96be00120037008d06e9007b
:102ed0008e00e900848060000fb99700e2c178009d
:102ee00082fd2f000f01410003f17e008000780079
:102ef0008100e900050033008783d1000683d300f9
:102f00008582d3000482d300f9ff3700049ebe00ff
:102f10000696be003c02be002c03be00e00f52002d
:102f2000e08f5a00e00f5b00e08f5b008b00340005
:102f30000d00e000e5ff3c00880037002c609000a9
:102f400081c6b300814f50000b00320006003c00e8
:102f50000004e00008003200e6c05000814f50003d
:102f60004e003a0004003700c1c6b300814f500044
:102f70004a003a00210037000800e00004003a004f
:102f80005c0890008d0120000000e0000600320087
:102f9000110009000e84d8000fb99700e2c0780034
:102fa000f1ef9f007d012000110009000e84d80080
:102fb0000a003700110009000e04d8008d06e90050
:102fc0000e81b900020454008fb8970061417c0063
:102fd00081fd2f008f80400082f07e000004780089
:102fe0000800e000020032000d00e000f1ff3c00ac
:102ff000cfc4de00614db90025003700e00f54005a
:10300000e08f5c0004003a005c0890008d01200015
:103010000000e000070032006171b9000800be0046
:103020001f0307008fb99700e3417800f3ef9f007b
:103030007d0120006171b9000800be00080307008f
:103040000b0037006171b9000800be00e9010700fc
:103050008d06e90000f1b900020454000fba970090
:10306000e4427c0084fd2f000f02420005f27e0046
:103070000004be00e00f5000e08f58000200320054
:103080000d00e000efff3c004fcdde008a05780028
:10309000089ebe000a96be0030003700e00f5400c4
:1030a000e08f5c00e00f5d00e08f5d0004003a00ff
:1030b0005c0890008d0120000000e0000900320053
:1030c0006172b900612bb9000800be000a01be00a0
:1030d0009c0307000fba970064427800f4ef9f004a
:1030e0007d0120006172b900612bb9000800be00ab
:1030f0000a01be008c0307000d0037006172b900a1
:10310000612bb9000800be000a01be009103070050
:103110008d06e90000f2b900040454008fba97004c
:1031200065427c0085fd2f008f82420084f27e0084
:10313000009ebe000296be003c04be002c05be00f0
:10314000e00f5400e08f5c00e00f5d00e08f5d0059
:10315000020034000d00e000e8ff3c00e80f5700db
:1031600010003a000c1090000038a3000d0032004f
:10317000f78f560006003e0085fd2f008f8242002b
:10318000e5c07e0000c3b30080cf500005003200d0
:103190008d06e90002c3b30081fd2f008f8040003f
:1031a00082f07e0078811600120e98006c0090006c
:1031b00083fd2f008f8141008d804100b3fe070009
:1031c0001c089000dc089000810f500006003d00b4
:1031d00000805000000e98000c1090000040a100ec
:1031e000001698000f0037000100e0000d003d00c0
:1031f0008c109000f4806000f08f500009003a00bd
:103200007c099000fc009000810051000c099000a6
:1032100082805000008050004240a900010034002c
:10322000000e98004f0778004f06be004f05be0005
:103230004f04be00cf01b100000006000400fa00f8
:10324000889fbe008a9fbe008c1f78000004780013
:1032500001067800f80d90007800900080855500f8
:10326000080890008085550018089000808555005a
:10327000280890008085550038089000808555000a
:1032800048089000808555000002220090bf9f00f2
:1032900000032300a0bf9f00081090000028a30097
:1032a00015003a000b00e000130034000b05780015
:1032b0008a047800e20f5500010036002900200042
:1032c000c801900009017800ee8057005800900076
:1032d00003000100500498000000e0008c00320060
:1032e0006808900009004000600c9800090555002e
:1032f0004240a900eeff3c00780190000200e0008f
:103300000c003400c80190008c0078005800900038
:1033100003000100500498008080eb000000e000f2
:103320007c003200e80890007800900000804000a7
:10333000600c9800880c90000900e0001100340037
:1033400009057800e28f5400010036002a002000b1
:10335000c80190000a017800ec80570058009000e6
:1033600003000100500498000000e00068003200f3
:10337000680890000a004000600c98008a8454009d
:10338000edff3700180990000200e0000c00340047
:10339000c8019000e8009000580090000300010070
:1033a000500498008080eb000000e00059003200db
:1033b000e80890001808900000804000600c980019
:1033c000a80c90000900e000110034000905780005
:1033d000e28f5400010036002a002000c80190004e
:1033e0000a017800ec8057005800900003000100ab
:1033f000500498000000e00045003200680890008a
:103400000a004000600c98008a845400edff3700e9
:10341000380990000200e0000e003400e80090003f
:103420001808900080804000c8019000580090006b
:1034300003000100500498008080eb000000e000d1
:1034400034003200e8089000380890000080400006
:10345000600c9800c80c90000900e00011003400d6
:1034600009057800e28f5400010036002a00200090
:10347000c80190000a017800ec80570058009000c5
:1034800003000100500498000000e000200032001a
:10349000680890000a004000600c98008a8454007c
:1034a000edff3700081090008000eb000028a3001b
:1034b000180032000b00e000160034008b04780086
:1034c00009057800e28f5400010036002a00200030
:1034d000c80190000a017800ee8057005800900063
:1034e00003000100500498000000e00008003200d2
:1034f000680890000a004000600c98008a8454001c
:103500004240a900eeff3c008000eb0001003700c4
:103510008080eb00010078004f0678004f05be0068
:103520004f04be000080fa00000006000108780089
:1035300000000600e60040001101780005002800a8
:10354000850261006f01610082087800020032008c
:103550001200200011003700a0019000120020008e
:103560000300e0000d003a00900190000300e0002d
:103570000a003a001000e00008003a003600370068
:10358000640340009608780080017800530b7800af
:103590009009780004087800700151001102780049
:1035a0000400e000f6ff3200130037006402400020
:1035b000140378004f33de008381410083087300d9
:1035c00080017800d3037800cf3bde00140378003d
:1035d00006034300068a73001302780004024200c7
:1035e000100378004f33de008609720090017800e6
:1035f000038841000201e90091017800ef8f51003a
:10360000eaff36001000370080017800530378008d
:103610004f33dd001002d100040873006402400043
:1036200094037800cf3bdd001303d100868973003b
:10363000110378004f33dd009401d100030a7300b9
:103640009108d1000201e80091017800ff8f51003c
:10365000edff3e00ef886100918872000200780063
:10366000000006008f1fd100170307008f87e900b5
:103670000000e00000000600809feb00120307003e
:103680008f87e9000000e000000006002800fa0033
:10369000889fbe008a9fbe008c9fbe0003866b0081
:1036a0008f0007006400e100440032006408e1007c
:1036b0004a0032006100e100460032006108e1008a
:1036c00049003200ec0647006000b8003d02be0031
:1036d0003d03be00f48657006011b8003d04be00f3
:1036e0003d05be007d0320000b0037000000a00058
:1036f0008d06e900130032000402420085824a0070
:1037000006034b0087834b00000040008180480087
:1037100002014900838149000802520089825a004f
:103720000a035b008b835b00f0ff3b000802420052
:1037300089824a000a034b008b834b008d06e90007
:10374000edff3a008482720086827200f707b200b1
:103750008782720001003200150020001e049000d4
:103760003e0b900006035400e63fb0000368a30040
:10377000070032000000a7000500a0008301d1006f
:103780000281d3008180d3000080d3000603e800cb
:103790008301d1000281d3008180d3000080d30057
:1037a0000002eb000482d2002100070003f0a10018
:1037b0000cf0a70003f0a0005d0037006402470092
:1037c0006408e100570032003400be003401be003e
:1037d000f6ff37006108e100520032006011b800c6
:1037e0006000b800f1ff370003ff2700020020004f
:1037f000fbff3700839f68000100e00002003d00ee
:1038000060001000e08018000300e00002003d00ae
:1038100060011100e0811900110107004f00e00074
:1038200002003b0060001000e0801800000006006d
:103830001800200057002000080453000d003d0030
:103840000600200097fc2f000740e1001e00340016
:1038500084827200610260008301d1000281d30082
:103860008180d3000080d3000804e800f8ff3a000c
:103870004700200061046000050474000404640033
:103880000d00320061004000e08048006001490006
:10389000e081490003b8a500070032000603e800f4
:1038a0006538e10004003a008301d1000281d300b1
:1038b0008180d3000080d300f87f20000830e10031
:1038c00003003500080378006000b8006011b800fc
:1038d0004433dd00f300b2008301730000000600f2
:1038e000680447000294be000094be00fc04470038
:1038f0008694be008494be0009007800bb020700d5
:1039000008007800b902070099007800814f700024
:103910000b003b000800be00940207004f00b100fe
:1039200003003700f3ff2700f2ff2f006110b900fa
:103930004f06be004f05be004f04be000080fa00d7
:103940000000060081037800b4f507000001be0006
:103950006000b8000478a30013003a006220e10080
:1039600015003e000d0039008301d1000281d30013
:103970008180d3008301d1000281d3008180d300f4
:103980008301d1000281d3008180d3000538b000cb
:10399000c42add00f300b2008381720007f0a700a3
:1039a00003f0a00000000600f3ff2700f2ff2f0045
:1039b0006110b900fbff370003ff2700f7ff370056
:1039c0001400fa00889fbe008a9fbe008c9fbe0034
:1039d0000004be000205be00680047000a90be0059
:1039e0000890be00810207000070a7000bf0a10044
:1039f000304320009e02900080825200b0fe2f00d3
:103a00000028e10011003d00b0fc2f000028e1007b
:103a1000150034001e0990008e0890007e00900072
:103a20000501b0000201d1008180d3000080d300e5
:103a30008502e800fbff3a000b00e000bcff3b0002
:103a400060001000e0801800b9ff3700f0ff2f0081
:103a5000f1ff27000b00e000b5ff3b00010028004c
:103a600000002000b2ff37006000b800b0ff370050
:103a70004f89de00820178008302370000000000d9
:103a80002800fa00889fbe008a9fbe008c9fbe005f
:103a900003866b0092ff07000028a30064003a0031
:103aa0000128a30067003a000008a30062003a0062
:103ab0000108a30065003a001e009000be089000b7
:103ac00081064000ed3fb100f4805700ee01900008
:103ad000111ab8008e099000311bb8009e099000a1
:103ae000311cb800511db800f4855700460007008e
:103af000fe0190003a0007008b85e8003e000700b9
:103b00008e09900040000700ee019000340007008d
:103b10008b85e800380007008e0990004000070000
:103b20009e0990001b18b800890440000a854800cf
:103b3000fe019000340007008b85e8003800070084
:103b4000ee019000300007008e0990001b18b800ad
:103b5000890440000a8548000a98a30008003a003a
:103b60000402420085824a0006034b0087834b0013
:103b700008044c0089844c000a054d008d06e900bc
:103b800084827200850273004c3add008502720067
:103b90000100320015002000443ade001400b2009b
:103ba0004538de00cb45dd000b007000c540de006f
:103bb000cb4ddd008b8070004549de00cb55dd002c
:103bc0000b017100c551de000d03780018ff0700de
:103bd00003f0a1000cf0a70003f0a00054ff370091
:103be0001b18b8008502400006834800e0834b00a4
:103bf00060044c00070037001b18b80006034000a3
:103c000087834800faff37001b18b800870340007d
:103c100008844800e0844c0060054d000000060068
:103c20001b18b8000804400089844800faff3700d8
:103c30000108a3003bff3a005800be005801be0037
:103c4000e3ff37000008a30036ff3a0009047800bc
:103c5000f9ff37000000000007f0a2001c01370048
:103c60006022b800060220000000d0008180d2004f
:103c70000482d2008582d2000000a000020252001d
:103c800083825a00030031000202420083824a000c
:103c90000000a1000603e900f3ff3a00000006005f
:103ca000efff07000400be0000000600020ab90092
:103cb000001bb9000200b8008100420081004300ef
:103cc00000000600889fbe008a9fbe0030044200ac
:103cd000b0844a0030054b0090854b006000b10075
:103ce0000898be000a90be000440e10005c8e1004b
:103cf00006d0e10007d8e100020031006800400072
:103d00001008e8004f05be004f04be00000006008a
:103d1000889fbe008a9fbe003004be002005be0002
:103d20000418540005985c0006185d0007985d00b3
:103d3000110020000440e10005c8e10006d0e100c8
:103d400007d8e100010039008000eb001088100066
:103d50004f05be004f04be00000006001200fa002e
:103d6000889fbe008a9fbe008c9fbe00e0b79f0068
:103d7000f1b79f0082bf9f0093bf9f000605be0062
:103d80000404be000000eb00d0b79f00c0b79f0046
:103d9000b0b79f00a0b79f0090b79f0000067800c3
:103da0005fb19700cfb09700820141003fb097000c
:103db0000200e00004003d00370007007e8057004d
:103dc000c0ff070003003700330007007e80570064
:103dd000cfff0700dfb697000d00e0000c003500b4
:103de0006fb29700ffb297000fbb97009fbb970081
:103df00010002000010020006011b80000027200d5
:103e00008182720002037300838373001b0007002a
:103e10000c06e80001042000810f5600e0ff3a0084
:103e20000d00e00004003d000802be000a03be00d1
:103e30007e805700a3ff07005fa897000000e00006
:103e400005003a001fb29700afb297003fb397004a
:103e5000cfb39700090007006fb09700ffb097003d
:103e60000fb997009fb997004f06be004f05be00df
:103e70004f04be000080fa000000060001000700a9
:103e800000000600a4b79f00b5b79f00c6b79f000b
:103e9000d7b79f00000006004f09de008281710045
:103ea000b3b79f004f01de00818040008280700028
:103eb000a1b79f008fb097004f09de0000004000bf
:103ec0000200700090b79f007fa897004f01de00ae
:103ed000818040008280700081b79f000d00070044
:103ee0004f3ade000000400004007000f0af9f0079
:103ef000080007000402420085824a0006034b00c6
:103f000087834b00dfff07000802be000a03be00e4
:103f1000000006002fb29700bfb297004fb3970082
:103f2000dfb3970000000600881f7800180020000b
:103f3000881f780089ff07008f87e9004f04780009
:103f400000000600801feb0084ff07008f87e90058
:103f500000000600889fbe008a9fbe00e00f500050
:103f6000e08f5800e00f5900e08f59000c003d0031
:103f70006044b8006055b8000000540081805c00c7
:103f800002015d0083815d0018002000150007001c
:103f900008003d00180007000004eb000500370092
:103fa0000004eb000f00070002003d0012000700b4
:103fb00018002000dcff07000800e00006003200c7
:103fc0006022b8006033b8000000520081805a00bf
:103fd00002015b0083815b004f05be004f04be0001
:103fe00000000600e00f5200e08f5a00e00f5b0077
:103ff000e08f5b00000006006044b8006055b80028
:104000000402540085825c0006035d0087835d0026
:1040100000000600889fbe008a9fbe008c1f7800ab
:10402000e00f5000e08f5800e00f5900e08f59007a
:104030000d003d006044b8006055b8000000540019
:1040400081805c0002015d0083815d001c00200016
:104050000820e10009a8e1000ab0e1000bb8e10086
:104060000d003d00080037000006eb00e00f520095
:10407000e08f5a00e00f5b00e08f5b0006003d0020
:104080006044b8006055b8000402540085825c00aa
:1040900006035d0087835d00aaff07000c00e000b7
:1040a000060032006022b8006033b8000000520001
:1040b00081805a0002015b0083815b004f0678001b
:1040c0004f05be004f04be000000060000000000c7
:1040d0002800fa00889fbe008a9fbe008c9fbe0009
:1040e00007067800878669000c003b00030478000f
:1040f0008704780008f0a10009f0a100840f5000a7
:10410000858f5800860f5900890f5c00030033002b
:104110000cf0a20001003a000cf0a100f0fd070035
:104120006400e1005f003200780147006408e100ac
:10413000610032006c014700748557003200be00f8
:104140001201be003a04be001a05be001e03900014
:10415000be0a90008503530006003d000004fd00e8
:104160008104fd000205fd008305fd008703ea00d0
:10417000050378000df8a300040032006004140069
:10418000e0841c0060051d00e0851d006022b80071
:104190007d0320000d38e1008006eb000b003900a4
:1041a0004433dd00f300b2008301730039003700af
:1041b000848272000d027800e10664008b85d100d4
:1041c0000a85d3008984d3000884d3008703e900db
:1041d000f7ff3b0008004000898048000a014900c1
:1041e0008b81490004003b0060001000e080180053
:1041f00060011900e08119000358a3000900320092
:104200008d82720084827200610260008301d1009d
:104210000281d3008180d3000080d3000603e80030
:104220001b0037000348a30017003a000600e00017
:10423000170034000603e9000d00a3000000480049
:104240008180480002014900838149000348a3009e
:104250000f003a000600e000090034000603e90000
:10426000000040008180480002014900838149002c
:1042700001003a000003eb000348a300f5ff320001
:104280006022b800020037008482720061826600fa
:1042900067fd070003f0a1000cf0a70003f0a000e9
:1042a000a3fd3700640147006408e10002003a0002
:1042b0000df8a3009bfd3a003200be001201be00c3
:1042c0009bfd370000000000889fbe008a9fbe0053
:1042d0008c9fbe000404be000605be00809fbe0089
:1042e000829fbe002f000700040678000800be0071
:1042f0000a01be002b000700840678004f03be00b1
:104300004f02be008d4f76007fb097001300330040
:10431000f0ff2f008b8f6b0006003b000d06660040
:104320000c00a7000a00370007f0a60010002000cc
:104330000a003700880f5200898f5a008a0f5b00ed
:104340008b8f5b00030039001000200001003e004d
:104350000000200007f0a7000000ea004f06be00a2
:104360004f05be004f04be0000000600e48240007e
:104370001078a30007003200640240001178a30007
:104380003400be001401be00040032000330a70058
:10439000000006003500be001501be000330a0007d
:1043a0000000060005ff27000582610007003200bb
:1043b0000428e10001003200240005000600070087
:1043c00001003a004400050004080500020007004f
:1043d000f9ff3a00140005006f826100810270004d
:1043e00085027100850272000000060080007800de
:1043f0005002be005003be004439de00f700b20098
:10440000f37f200003016100090032000218e1007f
:1044100016003a00850172008301730083817300e6
:104420000008200015003a0040002000130037006b
:1044300085017200830173008381730005003a00d7
:1044400004a8be0006a8be00100020000b00370024
:104450000201e9000402420085824a0006034b0083
:1044600087834b000748a300f9ff32000740a000f4
:1044700004a8be0006a8be0020002000800098000e
:104480009200980000000600881f7800030478005e
:104490000300e00007003d0060001000e08018000d
:1044a00060011900e081190002003b0001f02d00bd
:1044b000030037000400070008f0a70003f0a00085
:1044c0004f04780000000600889fbe000082700044
:1044d000040271000482710024003200364320007f
:1044e000c50020008383cf000a0039000541b100d8
:1044f0008283cf00070039000541b1008183cf00de
:10450000040039000541b1008083cf00010039006b
:104510000541b10085c353006022b800120032008b
:104520000a003b0084827200610260008301d100b6
:104530000281d3008180d3000080d3000603e8000d
:104540008743e800f7ff3a0007003700000040000b
:104550008180480002014900838149000603e90087
:104560008743e900f9ff3a00b1fc07004f04be00a1
:044570000000060041
:020000040000fa
:10457400256c000064000000256c0000660000004b
:020000040000fa
:1045840059210000db0200008fa600003556000010
:10459400d2a00000694000002bed00006ae6000094
:1045a400ed500000a8970000317e00005b960000eb
:1045b400d85000002ee5000092eb000007460000f2
:1045c400249d0000de6b000012a2000051380000a0
:1045d40016f50000c9d300005b5300009e8d000057
:1045e40083710000719d00002337000013f7000061
:1045f40014d200002f54000035920000c66b000056
:1046040008aa0000e82b0000db060000d5c7000064
:10461400685f00004f8f0000c46d0000adaf000064
:10462400a6260000cb0f000040c200000564000075
:10463400e68f0000036a000035b70000281d000063
:10464400d51800004eba00004d670000948f00009a
:104654002e640000b3be00009e1100005122000031
:1046640087b000007e6b0000638d00004c6000008a
:10467400b2c3000076090000402800009fab000090
:10468400646b0000f5900000de57000093ce00003c
:1046940013fd0000d5330000cfa20000b770000066
:1046a4007a9000003a550000acd400003ef70000b8
:1046b4008c39000037a100007b6f00005a9700007e
:1046c400ef4b000091e1000022eb00004f45000099
:1046d400c9990000c8730000459800004f480000c5
:1046e400e7e7000052e50000bd4900000e99000014
:1046f40074700000d89f0000703d00003cf400007e
:1047040002d9000069530000969200000472000070
:10471400cba10000b937000092fa000087d2000054
:10472400af5600004e920000386d0000bea9000094
:104734005b2c00003306000058c700006d5e0000cb
:10474400158e00009c6c0000dbad00006e2500009f
:104754008e0d000024c1000097610000ff8e000050
:1047640086670000a1b60000c31a0000b318000059
:1047740019b800009c670000a38d0000fe640000cf
:1047840012bd0000e8120000f620000041b2000053
:10479400726a00007e8f0000795f000014c600007a
:1047a400ce080000dc2a000015ab0000166e0000e5
:1047b40071900000955a00000ace0000beff000070
:1047c4002e33000051a50000ee6f0000cf920000d0
:1047d40045540000c3d6000012f60000623b0000fe
:1047e400e09f00000b710000cf9500003b4d0000de
:1047f400dddf000039ec00007d430000a49a0000d6
:10480400e1710000fa980000634600007ee80000b1
:1048140064e300003d4a000038970000ed7000009a
:104824001c9e0000e63d0000a2f2000083d90000b7
:104834000252000020930000cb70000065a200002b
:10484400b736000042fb0000b7d1000069570000f2
:10485400b3910000056e000054a900002f2d000044
:10486400ec0500002fc80000515e0000ea8e000035
:10487400986c0000a5ae00007e2500004f0e0000dd
:1048840044c100003c620000258f00001268000053
:10489400ccb60000341b0000d718000063b8000039
:1048a400c0670000d08d00001a6500001abd00002a
:1048b400f7120000e12000004fb200003c6a000043
:1048c400818f0000285f000016c600006d080000fc
:1048d400dc2a00009aaa0000196e0000ee8f000086
:1048e400a15a00007ecd0000cdff00009d320000e3
:1048f40072a50000616f0000f9920000b953000036
:10490400f9d6000092f50000ac3b0000629f000065
:10491400607100005e950000a04d00007bdf000088
:10492400a7ec00001f4300001f9b000092710000d1
:104934007c9900001b460000fde8000025e3000010
:10494400c44a0000ff9600006c710000e79d00005f
:104954005f3e000077f20000f5d90000d25100005c
:1049640084930000a3700000bda2000093360000f1
:1049740085fb000091d10000a05700009591000034
:10498400276e000038a900003c2d0000da05000065
:104994002fc80000455e0000d08e0000976c000018
:1049a4007cae00008e250000120e00005cc10000e9
:1049b400ed610000538f0000b36700000db70000e5
:1049c400bf1a00002c190000e4b700002e68000094
:1049d4003a8d00009e65000071bc00009b1300002e
:1049e4002a20000008b300006d6900005a900000fe
:1049f400485e00000cc7000073070000e92b0000ac
:104a04008ea90000496f0000c78e0000eb5b000018
:104a140039cc00003501000044310000f6a6000046
:104a2400e46d0000999400001f520000bbd8000000
:104a3400d9f30000843d0000879d00005b730000f3
:104a440063930000b94f000058dd0000dbee000066
:104a5400de400000769d0000296f0000f19b0000fd
:104a64008c43000098eb000076e000007c4d0000d1
:104a7400259400004a740000eb9a00006441000091
:104a840053ef000018dd00008a4e0000d4960000a9
:104a9400356d000032a60000fa32000023ff00004a
:104aa400d9cd0000685b0000b08d000016720000d4
:104ab4002da5000059310000ab01000070cc0000ae
:104ac400e9590000439300001668000018b3000081
:104ad400e0200000d512000089bc0000e26600005e
:104ae400538a0000cf6c0000e0b1000009200000f0
:104af400d913000059bd0000a7620000db9200003a
:104b0400ee5f000042c20000bc0d00002026000041
:104b1400fcac0000966f0000208a00009b6400003b
:104b2400a1c00000f10d0000562500003cb00000bb
:104b340082680000a0950000f554000045d30000f1
:104b440014fa000078380000a19f00004a750000a4
:104b54001a8d0000b55900000bd1000097fb00002e
:104b6400a83500007aa500004f6b0000819b00006f
:104b74007c470000a6e5000077e600005c490000e1
:104b8400dc940000d57700002c9300006a4c0000f0
:104b9400a6e200007de900005a440000619d000087
:104ba400fb6a000054a40000e4370000e7f80000aa
:104bb40070d3000052580000fa8c000025770000e2
:104bc4002b9c00001b3d0000f3f4000025d80000de
:104bd400035100002b98000088670000d6af000046
:104be4009d2600007a0c000089c10000eb640000df
:104bf400308800003f730000d7a70000342c000069
:104c04006e0700000ac800004a5b0000fb95000024
:104c140010610000b5bd000022140000d21f000086
:104c240043b10000ce6e0000a28600003d6c00007f
:104c3400deb500002f1a0000971900009cb900008f
:104c4400e4620000e2960000c35700008bcd000030
:104c5400f90000006532000018a30000b4750000dc
:104c64005d8800004d620000ddc500008b07000078
:104c7400eb2a000041ad00009e670000d79a0000b7
:104c8400e64b0000e6de0000aced0000a9430000a6
:104c94006b9700006a790000558d0000b95500003b
:104ca40060d70000cef40000f23a000053a30000e5
:104cb40055690000bda10000cd3d00004cf100008d
:104cc400c7da000020530000928e0000d67900005d
:104cd4006b950000d6460000ece900007ae2000083
:104ce4003a490000179c0000fe6700005fab00001b
:104cf400e12d000035040000d3c800005d60000011
:104d0400cc880000f076000065a000001236000098
:104d1400fcfc000013d100005c550000c1970000aa
:104d2400a463000078b70000911c00001a1700006b
:104d340055b80000ff6a000043860000cf700000f1
:104d4400f3ad0000e52300000810000013c10000cb
:104d5400015f000071960000695c0000b1c50000ad
:104d64005c0a000071290000c0a90000bb720000a9
:104d74000a8700009c670000b5bd0000ce1000004b
:104d84008a220000efb20000e46500002e980000c3
:104d94007e520000a6d50000c2f70000b63a00001b
:104da4007d9d00005c7700001b8b00009c5b000075
:104db40038cf00005afd0000fd3300000da70000ad
:104dc400d0690000ed9c00002b460000e6e60000e0
:104dd40049e50000704a0000e2930000bf7800003b
:104de40059920000254d0000fde1000012ea000088
:104df400e0430000c39d0000ac6a00008ca40000e6
:104e0400c4370000f5f8000077d300002f580000e5
:104e1400318d0000db7600008e9c0000a13c000078
:104e24007ef5000081d70000c151000059970000b1
:104e34006e680000d6ae0000b1270000540b0000dd
:104e4400c8c20000926300009a890000be7100008d
:104e540070a90000892a00002c09000031c6000056
:104e6400395d0000fb9300002763000086bb00004f
:104e7400611600007f1d0000b1b300004d6c0000fe
:104e840034890000936900009db800006017000099
:104e94007b1c00009fb60000f3650000c393000074
:104ea400f95a000042ca000050040000f72e000026
:104eb4009ca6000022720000018c0000945e000099
:104ec400a6c90000b3030000db2e00003ea90000c9
:104ed400af6b0000b59600001b500000a5da00007f
:104ee400fef10000413f0000e39b0000e774000076
:104ef400eb9100001351000011dc00000df00000e4
:104f0400c73f0000729e0000416e0000bf9c00007d
:104f1400d842000038ec0000ebdf0000eb4d00004d
:104f2400d09300008c740000c39a00007541000007
:104f340057ef0000ffdc0000c34e0000889600001d
:104f4400976d0000b9a500008c33000080fe0000be
:104f540097ce0000905a00009d8e0000167100004c
:104f640049a600002a300000ed02000016cb000024
:104f74005d5b0000bd910000b269000064b10000f7
:104f8400a6220000fd1000007cbe0000d8640000d2
:104f94006d8c00009f6a000025b40000b31d000062
:104fa40042160000d4ba00003e65000033900000b1
:104fb400ab62000070bf00009c1000002a230000b8
:104fc40008b00000796c00004d8d000058610000ad
:104fd400f4c30000910a0000cc280000b1ac00002a
:104fe4001b6c0000f7910000b358000079cf00005b
:104ff400eefd000089340000a1a300003e71000012
:10500400369100008755000043d5000050f700009a
:10501400043a000011a10000c36f0000fe960000d6
:105024000f4c00000be1000021eb00009f44000046
:10503400a4990000057300000b980000804700004d
:1050440098e700007de40000694900004b980000e7
:105054001b700000279f0000193d0000abf3000007
:10506400bad80000fc52000054920000c371000042
:1050740098a10000aa3700006afa00009fd200003d
:10508400905600009b920000206d000037aa00009b
:105094003e2c0000d30600003ac70000365f000033
:1050a400e48d0000836d000097ad000074260000bd
:1050b400350d00003bc20000186100002d90000077
:1050c400e4660000e1b70000f5190000fa190000d9
:1050d4001fb70000f6680000798c000062660000cb
:1050e400b5bb00005a140000711f0000c2b30000d9
:1050f400b768000010910000945d0000bfc7000075
:10510400c2060000992c0000dea80000f76f000022
:10511400188e0000965c00008ccb0000de010000bd
:10512400973000009ea70000386d000041950000f4
:105134007451000062d900002df300002c3e0000e1
:10514400db9c000004740000b79200006350000070
:10515400abdc000086ef000031400000249e00001c
:105164007a6e0000a09c0000db42000049ec0000c5
:10517400c4df0000314e0000709300000175000090
:10518400349a00001f42000098ee0000d7dd0000b2
:10519400cc4d000096970000736c0000f9a6000047
:1051a40034320000eeff00000fcd0000365c00003a
:1051b400e18c0000e972000059a4000030320000c4
:1051c400d20000004dcd00000b59000024940000d3
:1051d40032670000ffb30000f61f0000c213000096
:1051e40099bb0000d46700005d890000c76d000012
:1051f400e3b0000007210000d61200005dbe0000ed
:105204009e610000e6930000de5e000054c30000cf
:10521400a60c000039270000ddab0000b7700000c9
:10522400fc880000c365000075bf0000200f00006b
:105234002424000072b1000048670000de960000dc
:10524400b453000089d40000cdf80000c439000034
:10525400529e00009d760000c48b00000f5b00008e
:10526400accf0000fafc000042340000e5a60000c8
:10527400e1690000f39c00000746000020e70000fd
:10528400fae40000dd4a0000589300005d79000054
:105294009f910000fb4d000012e1000015eb00009f
:1052a400be420000019f000058690000fba50000f9
:1052b4003a36000095fa0000bed10000075a0000fb
:1052c400408b0000e2780000699a0000e03e000094
:1052d4002af30000f1d90000334f0000fe990000ca
:1052e400b2650000b0b10000c02400005a0e0000f6
:1052f400a4bf0000d3660000448600002e750000a1
:10530400e5a50000292e00007605000005ca00006e
:105314004b590000fd9700000b5f0000bcbf00006c
:1053240018120000e021000032af0000e37000001a
:105334008b840000576e0000c2b300004e1c0000b6
:1053440075170000c0bb0000bd6000000c99000090
:1053540096550000b9cf0000c8fe00009834000044
:10536400e2a00000ed770000228600008b640000bc
:105374009ec30000cc090000a828000086af0000ee
:1053840057650000209d00009a49000033e10000a9
:105394005eeb0000f945000019950000be7b00009b
:1053a400018b00000e58000009d5000025f700000d
:1053b40098380000ada50000f966000019a40000ab
:1053c400703b0000aaf3000068d800007f5500007d
:1053d400328c0000367c00000a930000384900003b
:1053e4008be70000dce40000d8460000799e000052
:1053f4009c650000c0ad0000802b000096060000f4
:1054040073c60000bd6200006c8600005079000085
:10541400069e000070380000a0fa00006ed3000061
:10542400025300001a9a00004d610000cdb900003b
:105434003d1a00006c19000005b600004e6d000016
:10544400f783000019730000abab00002a260000ac
:10545400c50d000054c30000c25c0000ac980000fd
:10546400305a0000e6c700002a080000a02b000004
:1054740095a70000e3740000e5840000bd69000006
:1054840098bb0000e712000076200000ffb4000083
:10549400d8630000359a00007b500000a4d70000b8
:1054a400c9f50000aa3c00008f9b0000447900006d
:1054b40038890000795d000060cd00002cff0000f9
:1054c40031320000d2a8000011680000a59e00003f
:1054d4007944000090e80000a5e300000d4c0000b2
:1054e4004d9200004c7a0000d3900000a34e0000bf
:1054f40087e0000080eb00007b420000219f000059
:1055040057690000d7a50000823600002ffa00007a
:1055140047d2000055590000148c0000ee770000bb
:10552400859b0000a03d000088f400006cd80000ba
:10553400e15000002d980000a567000095af000021
:10554400fe260000fc0b00002cc2000022640000b8
:10555400168900003772000004a90000e72a000041
:10556400db08000075c60000025d00002494000002
:105574000b63000095bb000060160000711d000065
:10558400cdb30000226c00006d8900004b6900005f
:10559400f3b80000fb160000f01c00001ab600006f
:1055a400886600001e930000ae5b00007dc9000009
:1055b40026050000102e000094a7000019710000b9
:1055c4001b8d0000685d0000e3ca00006402000057
:1055d4003b300000cba70000336d00001e95000097
:1055e400c5510000e8d80000cef300005d3d000086
:1055f400da9d0000dc72000009940000e14e000016
:1056040057de0000b1ed000037420000ed9b0000c2
:10561400da700000129a00009a45000060e9000068
:10562400d9e20000e84a0000e99600005d7100003c
:10563400099e0000193e0000c8f2000077d900005e
:1056440062520000d292000064710000d4a10000f4
:10565400893700006dfa0000c2d200004e560000e7
:10566400f8920000a36c0000d3aa0000882b00006d
:10567400a807000042c600004a600000b78c000082
:10568400d16e00002dac0000f7270000920b000043
:10569400ffc300003b5f000024920000ce640000c2
:1056a40010ba0000ad170000611c00009ab400009d
:1056b400926b0000c589000034690000cdb8000079
:1056c40059170000521c0000fbb600006b65000077
:1056d40076940000145a000054cb00001503000017
:1056e40063300000ffa40000e87300000e8a00008d
:1056f400b76000005ac7000029060000332c0000e0
:1057040014ac0000b0680000e0990000c14c000037
:1057140025de000052ee00001e430000dc9700006e
:1057240014790000918d00009855000066d70000a0
:10573400e2f40000c33a00009da30000f0680000fa
:105744003ca20000333d000000f20000f8d9000044
