:020000040000fa
:080000000001040000000000f3
:020000040000fa
:04000800e002000012
:020000040000fa
:04000c00e00200000e
:020000040000fa
:04001000e00200000a
:020000040000fa
:04001400e002000006
:020000040000fa
:04001800e002000002
:020000040000fa
:04001c00e0020000fe
:020000040000fa
:04002000e0020000fa
:020000040000fa
:04002400e0020000f6
:020000040000fa
:04002800e0020000f2
:020000040000fa
:04002c00e0020000ee
:020000040000fa
:04003000e0020000ea
:020000040000fa
:04003400e0020000e6
:020000040000fa
:04003800e0020000e2
:020000040000fa
:04003c00e0020000de
:020000040000fa
:04004000e0020000da
:020000040000fa
:04004400e0020000d6
:020000040000fa
:04004800e0020000d2
:020000040000fa
:04004c00e0020000ce
:020000040000fa
:04005000e0020000ca
:020000040000fa
:04005400e0020000c6
:020000040000fa
:04005800e0020000c2
:020000040000fa
:04005c00e0020000be
:020000040000fa
:04006000e0020000ba
:020000040000fa
:04006400e0020000b6
:020000040000fa
:04006800e0020000b2
:020000040000fa
:04006c00e0020000ae
:020000040000fa
:04007000e0020000aa
:020000040000fa
:04007400e0020000a6
:020000040000fa
:04007800e0020000a2
:020000040000fa
:04007c00540200002a
:020000040000fa
:04008000c8010000b3
:020000040000fa
:04008400e002000096
:020000040000fa
:04008800e002000092
:020000040000fa
:04008c00e00200008e
:020000040000fa
:04009000e00200008a
:020000040000fa
:04009400e002000086
:020000040000fa
:04009800e002000082
:020000040000fa
:04009c00e00200007e
:020000040000fa
:0400a000e00200007a
:020000040000fa
:0400a400e002000076
:020000040000fa
:0400a800e002000072
:020000040000fa
:0400ac00e00200006e
:020000040000fa
:0400b000e00200006a
:020000040000fa
:0400b400e002000066
:020000040000fa
:0400b800e002000062
:020000040000fa
:0400bc00e00200005e
:020000040000fa
:0400c000e00200005a
:020000040000fa
:0400c400e002000056
:020000040000fa
:0400c800e002000052
:020000040000fa
:0400cc007caf000005
:020000040000fa
:0400d000e00200004a
:020000040000fa
:0400d400e002000046
:020000040000fa
:0400d800e002000042
:020000040000fa
:04010800e002000011
:020000040000fa
:04010c00e00200000d
:020000040000fa
:04011000e002000009
:020000040000fa
:04011400e002000005
:020000040000fa
:04011800e002000001
:020000040000fa
:04011c00e0020000fd
:020000040000fa
:04012000e0020000f9
:020000040000fa
:04012400e0020000f5
:020000040000fa
:04012800e0020000f1
:020000040000fa
:04012c00e0020000ed
:020000040000fa
:04013000e0020000e9
:020000040000fa
:04013400e0020000e5
:020000040000fa
:04013800e0020000e1
:020000040000fa
:04013c00e0020000dd
:020000040000fa
:04014000e0020000d9
:020000040000fa
:04014400e0020000d5
:020000040000fa
:04014800e0020000d1
:020000040000fa
:04014c00e0020000cd
:020000040000fa
:04015000e0020000c9
:020000040000fa
:04015400e0020000c5
:020000040000fa
:04015800e0020000c1
:020000040000fa
:04015c00e0020000bd
:020000040000fa
:04016000e0020000b9
:020000040000fa
:04016400e0020000b5
:020000040000fa
:04016800e0020000b1
:020000040000fa
:04016c00e0020000ad
:020000040000fa
:04017000e0020000a9
:020000040000fa
:04017400e0020000a5
:020000040000fa
:04017800e0020000a1
:020000040000fa
:04017c005402000029
:020000040000fa
:04018000c8010000b2
:020000040000fa
:04018400e002000095
:020000040000fa
:04018800e002000091
:020000040000fa
:04018c00e00200008d
:020000040000fa
:04019000e002000089
:020000040000fa
:04019400e002000085
:020000040000fa
:04019800e002000081
:020000040000fa
:04019c00e00200007d
:020000040000fa
:0401a000e002000079
:020000040000fa
:0401a400e002000075
:020000040000fa
:0401a800e002000071
:020000040000fa
:0401ac00e00200006d
:020000040000fa
:0401b000e002000069
:020000040000fa
:0401b400e002000065
:020000040000fa
:0401b800e002000061
:020000040000fa
:0401bc00e00200005d
:020000040000fa
:0401c000e002000059
:020000040000fa
:0401c400e002000055
:020000040000fa
:0401c800e002000051
:020000040000fa
:0401cc007caf000004
:020000040000fa
:0401d000e002000049
:020000040000fa
:0401d400e002000045
:020000040000fa
:0401d800e002000041
:020000040000fa
:100200008f8120000e7f22000e0188000000000078
:10021000000020000000e000020032000001200089
:100220002002880014000700e70007000000e0003b
:1002300003003a00e00d2b0001002000020037000f
:100240000000200001002000810f7000010032003a
:1002500014000700000020000000e000020032004f
:10026000000002000000000084ac0200000000005a
:100270000040da000000fe004440a9000000200019
:100280000000e0000300320000002000a001880010
:100290004440a800000006008a1f78008b1f7800e9
:1002a0000000060091018800800478000000eb0047
:1002b0001a003700e284440032a0b4009905ba0065
:1002c000e284440032a0b4009906ba00e2844400fb
:1002d00032a0b4000006eb00476fde00fd07b2005d
:1002e000636ce10003003a00ebff07000000eb0045
:1002f0000a003700606ce10004003a00005deb008a
:100300008b05e900fdff3e00040037006168e10055
:10031000010032000086eb000b00070019c7ba008d
:100320001905ba000e04e00003003a000a00e000dc
:10033000e0ff3a0000000600fe07b2009e018800c0
:100340008a047800f5ff3700395dba008b05e900b3
:100350000c003200295dba008b05e900080032006c
:100360000c00e00003003a00e284440032a0b40034
:10037000f5ff370019ddba008b05e900faff3a00f6
:100380008904e800e184440032a0b40000000600c3
:1003900000a0fe003400f800881f7800080020004c
:1003a000a80188004f0478000000fa0086c0a90068
:1003b000004080000000e0000c003400204080007d
:1003c0000000e80020408800504080000000e90064
:1003d00050408800504080000000e0000d003d00cb
:1003e00030002000504088000a0037002040800084
:1003f0000000e90020408800504080000000e80034
:100400005040880050408000e30f5000010034004d
:100410000a28ef0050408000e10f50000f0032002a
:10042000e10f500003003c000000e0000600320035
:1004300019003700e20f50000d003200e30f5000aa
:100440001000320014003700d602a900d622a800fe
:10045000d642a900d662a8000f003700d602a90034
:10046000d622a800d642a800d662a9000a0037000a
:10047000d602a800d622a900d642a800d662a900ba
:1004800005003700d602a800d622a900d642a9004e
:10049000d662a800000000000080fa003400f900d5
:1004a0000080fe000040060000a0fe003400f800be
:1004b000881f780008002000a80188004f047800f9
:1004c0000000fa0086a0a900104080000000e000b3
:1004d0000c003d00304080000000e9003040880002
:1004e000404080000000e90040408800404080001b
:1004f0000000e0000d003d0030002000404088007a
:100500000a003700304080000000e80030408800da
:10051000404080000000e8004040880040408000eb
:10052000e30f5000010034000828ef004040800035
:10053000e10f50000f003200e10f500003003c00bb
:100540000000e0000600320019003700e20f500002
:100550000d003200e30f500010003200140037008d
:10056000d682a900d6a2a800d6c2a900d6e2a800c9
:100570000f003700d682a900d6a2a800d6c2a800d4
:10058000d6e2a9000a003700d682a800d6a2a900a8
:10059000d6c2a800d6e2a90005003700d682a8007e
:1005a000d6a2a900d6c2a900d6e2a8000000000089
:1005b0000080fa003400f9000080fe0000400600d0
:1005c0000040da000000fe0000000500889fbe0029
:1005d0008a9fbe008c1f7800b8000700bf00330060
:1005e00003866c006450e1002e0032006420e100bc
:1005f000330032006150e1002f0032006120e10041
:100600003100320085855500eb07b000090020005d
:1006100008042000050037000804440089844c00c9
:100620000a0031000603430087834b00000153009a
:1006300081815b00f8ff33000203be000800a000c8
:100640000804440089844c00f6ff3900c639dd00f7
:100650008301730001003200130020008904d100df
:100660000884d3000998a300050032000800a70001
:100670000300a0008904d1000884d3008b05e800a2
:100680008904d1000884d3000001eb000281d2006c
:100690004f00070001f0a1000cf0a70001f0a0003e
:1006a000970037006420e100990032000801be0085
:1006b0000200be00f7ff37006120e1009400320025
:1006c0006000b800f3ff37000000200001f82700a9
:1006d000f0ff37000001be00630007000470a700b0
:1006e00003f0a1006509b100160032000d003500cd
:1006f0006828e10006003500f0ff2f00f1ff270019
:100700000300e00013003b0001002800000005008a
:1007100000004000818048008502e900fcff3a00ab
:1007200008003700f88f420002003c008000eb0018
:10073000000005008100d1000080d3008502e800a0
:10074000fcff3a000300e00002003b0060001000e4
:10075000e0801800000006000001be004200070013
:100760000470a70003f0a10003f8a30013003a00ef
:100770006509b10010003200090035006928e10068
:1007800002003500010028000000050000004000c4
:10079000818048008502e900fcff3a000000060065
:1007a000f88f4200050035008100d1000080d300a1
:1007b0008502e800fcff3a00000006008000eb0024
:1007c000000005004f89de008201780087003700b5
:1007d00081002000618055000b003d000b002000cf
:1007e00061fe2f000100e1001d00340082817100d4
:1007f000610164008904d1000884d3000000e8008e
:10080000faff3a00710020006100640003007000ec
:10081000020060000900320061044400e0844c00e2
:100820000988a500050032008b05e8006808e10092
:1008300002003a008904d1000884d300f20f20009e
:100840000258e10005003d00c75ddd00f907b20078
:100850008980750008007800000006000bf827006a
:100860008b00780000000500c70ade00f107b20027
:10087000f50fb20008003200e1cf42000200320062
:100880000170a00024000500810f700001003200fb
:100890000408050044000500810f700002003a00c2
:1008a000140005008502e9000000400081c04800f6
:1008b000fcff3b000170a000240005000004be0006
:1008c000e9ff07000003be000405be000200be00f1
:1008d000e5ff0700844f7500000006000200be001f
:1008e0006450e100050036006420e100020036009b
:1008f0000968a30001003a000800be000160a000e2
:100900004f0678004f05be004f04be0000000600f1
:10091000f0ff2f00f1ff2700f9ff3700889fbe008e
:100920008a9fbe008c1f7800e4ff0700ebff3300b6
:1009300003866c006450e100240032006420e10072
:10094000270032006150e100220032006120e10006
:10095000210032008b854200eb07b1000134b80062
:10096000003ab8000804420089844a00013ab800fd
:100970000030b8008880400009014a0004003300bc
:100980000000400081804800020149008b05e90019
:10099000c909dd008301700001003200130020004e
:1009a000c814de004814dd004709de001200b20062
:1009b000c808de000884700085ff070001f0a10070
:1009c0000cf0a70001f0a000cdff37006120e1008e
:1009d000cfff32000801be000200be00f7ff370063
:1009e0006150e100fcff3a00c9ff3700881f780022
:1009f000030478000300e00007003d0060001000e1
:100a0000e080180060011900e081190002003b003d
:100a100001f02d00030037000400070008f0a700d4
:100a200001f0a0004f04780000000600889fbe007f
:100a30008a9fbe000082700004027100048271006f
:100a4000260032000004be000200be006011b800a3
:100a50006b092000950220000182cf000a003900b6
:100a60000541b1000082cf00070039000541b10007
:100a70000982cf00040039000541b1000882cf008f
:100a8000010039000541b100054252001200320058
:100a90000a003b0082817100610164008100d10085
:100aa0000080d3008984d3000884d3008b05e8003c
:100ab0000442e800f7ff3a0007003700080444004a
:100ac00089844c0000004800818048008b05e900c3
:100ad0000442e900f9ff3a003dff07004f05be0060
:080ae0004f04be0000000600f7
:020000040000fa
:100ae800db0800001d300000f6e6000040a2000010
:100af80034f40000384e00003420000006ba00002c
:100b0800efd80000da420000ae420000ddd300005a
:100b180063bd00009a2100003f52000050f400001d
:100b28005aaf000024f800001a500000f517000022
:100b38007eb400009bd10000dc3d00009e37000021
:100b4800e1cb00007fb600003a1f0000da4b00003e
:100b5800bdef000033ac000046fa0000904f0000e3
:100b68007a1700006db40000a1d60000784100009b
:100b7800e23900000acd0000e1bb0000812400003a
:100b88002d4f000086f00000e1af00001bff0000c1
:100b9800ad5200002017000060b50000acd900007d
:100ba800bb4300007838000047cb0000a8bc000019
:100bb800c6250000554d0000deec00009aae00008e
:100bc80086ff000034510000c7120000aeb20000da
:100bd8007ed9000043430000a534000003c800008c
:100be80013bc000095260000f24a0000d8e9000076
:100bf800b9ad000078010000b0500000a710000057
:100c08008fb1000015dc00008b440000d0330000d9
:100c1800adc60000a6be000028290000814b0000d8
:100c280062e80000a7af00009204000079520000bb
:100c3800370f000068b20000e0de00002f47000018
:100c4800953200004fc600006cc00000292c00003f
:100c5800b24a0000ffe60000f8af00006607000097
:100c68003d520000410d00002fb100000fe10000cf
:100c780093470000a4300000d3c300009fc10000c8
:100c8800152d000056490000c6e300000db0000015
:100c98009f080000e0510000f80900003ab0000089
:100ca80040e2000060480000f42d000019c2000076
:100cb80074c20000e72e0000c2470000b1e1000046
:100cc8003eb00000150b0000aa510000010800000a
:100cd800a4af0000d2e400007a4900008b2c000089
:100ce800c7c000008ec40000023100003947000070
:100cf800dddf000070b10000a90d000025520000e2
:100d080006060000afaf000043e70000e54a000018
:100d1800d32a0000b2bf000051c6000014330000ff
:100d280026460000eddd000021b20000f70f0000ac
:100d3800f6510000b20300002eaf000053e9000096
:100d4800a94b0000a82800001ebe0000b6c700007e
:100d5800a4340000a3440000a3db00008fb200000d
:100d680000120000715100003a01000089ae000035
:100d780065eb00003c4c00008f26000086bc00009c
:100d88005ec9000028360000624300006bd90000ed
:100d980071b300001514000052510000d3fe00008a
:100da80075ae00008ced0000484d00007a2400006c
:100db80084bb000012cb0000283800000842000065
:100dc800bbd7000045b40000a1160000f450000095
:100dd800defc000030ae00001cf00000f14d000009
:100de800b82200002cba000021cd0000aa3900006a
:100df800ea40000093d500006cb500009c18000084
:100e0800c750000058fa00003bae000019f200007d
:100e1800cb4e00005820000028b90000a3ce0000e7
:100e28006b3b00002b3f0000c8d3000012b6000047
:100e3800f01a0000fe4f000038f80000d5ad0000a1
:100e480086f400001b4f0000671e0000bfb70000bb
:100e5800add00000b43c0000e33d00009dd100008f
:100e680052b70000da1c0000b54f0000b8f50000ca
:100e78000fae000097f60000ed4f0000111c0000b7
:100e8800f2b6000062d200007d3e00002e3c000059
:100e980003d000003cb80000401f0000f64e0000e0
:100ea800b6f30000f0ad000020f90000415000004a
:100eb800251a0000c5b5000087d40000c73f000010
:100ec800d13a000000ce000093b900002e210000a6
:100ed800804e000044f1000036ae000038fb0000f0
:100ee800d7500000c7170000f6b400004dd6000028
:100ef800534100000339000053cc000098ba0000a9
:100f08005e230000a14d00001fef00003cae000072
:100f18009bfd000012510000ab150000f1b300006a
:100f280062d80000924200006f37000076ca0000c5
:100f3800efbb000056250000f24c0000d1ec000089
:100f48008cae0000d6ff000072510000681300004c
:100f58002cb300005fda0000ef430000b435000056
:100f6800cbc800003bbd000065270000204c0000f6
:100f78009eea0000dbae000024020000b65100002b
:100f88002c1100006eb2000069dc00003a45000038
:100f9800ed3300002ac700008bbe00007129000055
:100fa8002f4b00007ae8000025af00008004000005
:100fb800ce510000020f00009db1000094de000039
:100fc800514600003d32000068c5000011c0000015
:100fd800422b00005f4a000024e60000b6af000084
:100fe8009f06000012520000940c000021b100007e
:100ff80080e00000a54700003530000005c400006f
:1010080051c10000672d00002649000035e40000aa
:10101800f7af000025090000e1510000910a000027
:1010280049b00000e6e20000794800009f2e000069
:1010380035c200001ec30000002f000066480000f3
:10104800c2e10000d7b000001a0b000034520000c3
:10105800f50700001cb00000b4e40000de49000001
:101068005a2c000018c100004bc400003f3100009a
:10107800e446000009e000000cb10000c60d0000c5
:10108800b55100001806000036af00004de700001b
:10109800684a0000db2a000032bf00005ac6000080
:1010a800983200003246000075dd000034b20000be
:1010b800870f0000115200004d03000052af0000de
:1010c800f9e80000da4b00005a28000059be000079
:1010d80074c70000e93400006b440000f2db000034
:1010e80060b20000571200004a510000970100004a
:1010f80067ae0000c6eb00001e4c0000f2260000a0
:1011080068bc0000c1c900000a360000c3430000e3
:101118004ad90000cdb30000f0130000a951000027
:10112800a9fe0000c6ae00005bed0000924d000075
:1011380042240000c7bb0000d4ca00006538000084
:10114800c4410000f2d70000fcb30000d316000031
:10115800a75000000cfd0000e0ad000048f00000c2
:10116800a04d0000e2220000dbb900004acd0000db
:101178005a3900001441000045d5000098b5000018
:1011880051180000f450000011fa00006dae000084
:10119800d6f10000004f00001820000060b90000e0
:1011a80068ce0000a63b0000f53e000005d4000014
:1011b800e0b500002f1b0000cf4f000078f80000ba
:1011c800a8ad0000c7f40000f14e0000a81e000002
:1011d80095b70000edd000008c3c0000213e0000d7
:1011e80075d100008db70000b11c0000ee4f000063
:1011f8008ff5000044ae00006ef600001e5000009f
:10120800e71b00001fb7000038d20000a63e000010
:10121800043c000029d0000012b80000631f000041
:10122800cc4e0000d5f30000c7ad00003cf900002b
:10123800195000003e1a00009fb500009ed400001f
:10124800a53f0000e53a0000e0cd0000a5b9000088
:1012580012210000904e00002df1000045ae000064
:1012680024fb0000e5500000b717000001b500009e
:1012780043d600005c410000fd38000059cc000056
:1012880097ba000062230000a54d000020ef00007f
:1012980043ae000098fd00001e510000a515000097
:1012a80002b4000056d80000a74200005f370000d3
:1012b80090ca0000dabb000073250000d84c00007b
:1012c800f3ec00006cae0000fcff00004d51000084
:1012d8009313000000b300008fda0000bd43000044
:1012e800e935000092c8000075bd00002527000000
:1012f800604c000058ea000021af0000d701000050
:1013080002520000d8100000c0b200000fdc00003c
:10131800944500008c3300008ac7000024be0000fa
:10132800d8290000c14a0000e9e80000afae00007b
:10133800f804000051510000820f000019b10000ac
:101348001ddf0000c4450000cd320000d3c40000fa
:10135800abc00000a62a0000014b000080e5000099
:1013680061b00000f2050000c7520000dd0b00006c
:10137800e0b10000bfdf00006c4800006c2f0000e7
:10138800d7c400007dc00000422e0000474800007e
:101398001ae500000faf0000140a0000ed5000002d
:1013a8008a0b00004caf0000eae300006f47000022
:1013b800ae2f000020c1000038c40000e12d00005d
:1013c8008a49000096e0000007b20000e209000028
:1013d80070530000b106000064b1000064e300002f
:1013e800334b0000fe2a000079c20000e2c2000070
:1013f800ad3200006e45000085e1000089af0000b5
:101408004f0f000025500000af07000099ad000005
:10141800f2e80000bc4800008e2c000079bd0000f6
:101428001ac80000d030000001480000a0db00000e
:1014380011b40000a30d0000fd5300005a01000084
:101448004eb10000f7e60000e44d00004826000019
:1014580073c0000052c50000143700003942000074
:101468002dde00001eb00000a2140000f84e00009f
:10147800f203000004ac000032ee0000aa490000ac
:101488006f290000e2b900004fcc00007333000060
:1014980062460000a1d600007eb6000035110000ab
:1014a8006c540000dcfb00009bb100007cea0000eb
:1014b8007950000050210000c2be0000cfc70000d4
:1014c800733b0000ac3e000013db0000d1b000000d
:1014d800071a0000694d0000540000008eaa0000a1
:1014e800a3f300003a4a00005226000060b600004c
:1014f800cfd00000cb350000ad440000a2d10000e1
:1015080045b9000099140000b854000043f60000e3
:1015180045b20000f2ed0000ef5200001f1c000071
:1015280064bd000059ca0000c13f0000ce3a000067
:1015380037d80000a3b10000771f00007c4b0000e3
:10154800d6fc00003ea900003df900006f4a0000eb
:1015580035230000fcb2000093d50000da37000004
:10156800de420000accc000063bc0000d0170000d5
:10157800db54000095f000004ab300005bf1000066
:101588003d550000bb16000058bc0000f2cc00001e
:10159800f8430000a536000094d5000099b2000079
:1015a800e82400003949000075f900001aa8000075
:1015b800f6fe0000524a000013200000bdaf0000f4
:1015c8008eda0000a7390000f0400000c7c700000d
:1015d800ccbf0000dd1a0000d3540000dcea000094
:1015e800a4b40000b8f400005f5700002e110000fa
:1015f80098bb00009dcf00000f4800003b32000060
:101608002ad30000b8b30000502a0000a846000002
:101618002bf6000029a70000c1040000e6490000dd
:10162800eb1c0000acac0000bbdf0000323b00004c
:10163800e23e0000fdc200007bc30000c21d0000a6
:101648009854000023e500004bb600000df8000098
:101658004b590000840b00001ebb000061d2000043
:10166800fa4b00009b2d0000efd0000008b50000e9
:10167800a32f0000d2430000f6f2000073a600007a
:10168800950a000033490000b7190000d1a90000ed
:101698000fe50000833c0000ad3c000058be000090
:1016a80066c70000862000002454000075df000093
:1016b80034b8000061fb0000f85a0000cb050000b8
:1016c800e1ba000043d50000af4f0000d228000067
:1016d800e0ce00008cb60000d6340000c040000008
:1016e800d2ef0000fda5000067100000414800008f
:1016f8007516000036a700007aea0000a03d000039
:101708004a3a0000e7b900007ecb00002e23000013
:101718006d530000e2d9000058ba0000b9fe00007d
:101728005a5c00000c000000dbba000048d800003a
:1017380023530000e7230000f9cc00004db8000057
:10174800dd3900007c3d0000b7ec0000d4a50000a6
:1017580027160000194700001b130000e9a4000029
:10176800f1ef0000933e0000b0370000b4b5000070
:10177800b9cf0000c32500006b52000076d40000ea
:10178800a9bc00001c0200006b5d000057fa0000b5
:1017980003bb000075db00004c560000eb1e000088
:1017a8002ecb000053ba0000aa3e0000153a0000f4
:1017b8009ee9000000a60000c61b0000c845000006
:1017c800a10f0000f4a2000064f50000653f0000ce
:1017d800da340000ceb1000009d400004b28000024
:1017e800155100003fcf00001fbf00008e0500000c
:1017f8001d5e0000baf400004fbb0000d5de0000fb
:1018080019590000ed19000077c90000a8bc0000b4
:101818002b430000973600007ee600008fa60000ec
:101828003721000058440000020c000063a10000aa
:10183800c6fa00001d400000be31000041ae0000a5
:1018480062d80000ce2a0000634f00004aca000098
:10185800abc100001b090000665e000045ef0000f8
:10186800afbb000071e200007e5b0000fc140000ca
:10187800c8c7000056bf00005647000011330000db
:101888004fe3000087a7000069260000d742000048
:101898003508000042a0000007000000c940000011
:1018a800562e00001cab0000b2dc0000572d0000d3
:1018b800494d0000acc500003ec40000cb0c000040
:1018c800385e00000aea00001bbc00004fe600007a
:1018d8006d5d0000271000001ac6000064c20000f9
:1018e800194b0000902f00000ae00000f4a8000047
:1018f8004e2b00004e410000320400009e9f000065
:101908001705000072410000962a00006ea800002a
:10191800ebe00000f02f0000bb4a00006fc10000a0
:10192800cdc60000a61000008a5d000015e5000085
:1019380088bc000079ea0000dd5e00007a0b000038
:1019480064c40000d9c500006a4e0000202c0000c5
:10195800a5dc0000e0aa0000d72f0000cc3f000063
:10196800f0ff0000829f0000e6090000244200000a
:101978007726000043a60000ffe40000a132000023
:10198800b6470000a2bd00004bc90000b01400001b
:10199800535c000074e00000ecbc0000f2ee0000b4
:1019a800c15f0000050700009ec20000bfc900001b
:1019b8003a510000cf2800001bd9000053ad0000a9
:1019c800f53300005b3e00006bfb0000f99f000050
:1019d8006a0e0000e4420000f5210000a4a4000003
:1019e800e5e800006d350000324400004fba000001
:1019f800b1cb0000f01800008e5a000032dc000065
:101a08003fbd0000c0f3000011600000d1020000db
:101a1800bfc0000018ce000081530000a7250000b9
:101a280066d5000051b00000a2370000003d00005c
:101a3800a0f6000003a100009a120000b8430000bd
:101a4800101d000095a3000095ec0000563800001a
:101a5800304000007cb70000f7cd0000651d000095
:101a68003658000057d800007dbd0000e2f800009d
:101a7800c95f0000e7fe0000c8be0000e3d2000016
:101a88003b550000aa2200008bd10000d7b300000c
:101a9800d93a0000be3b000095f10000a2a2000068
:101aa800721600009e440000ca1700001ba3000025
:101ab8000bf000005e3b0000af3b00002eb50000bd
:101ac8001ad000000f2200004c550000e6d4000098
:101ad800a7bd000053fe0000ee5e000045fb0000bd
:101ae800bfbc00001ad800006a560000d81f0000ca
:101af8008ccd0000e1b700009b3d0000933a000048
:101b08004eec0000d2a40000f21900009545000038
:101b18002b12000030a3000047f300007a3e0000bb
:101b2800bb36000060b300001fd20000e0260000b2
:101b3800dd510000d9d10000c4bd0000060400003a
:101b4800855d0000e7f70000abba0000afdd0000dc
:101b5800165700002c1d00007ac9000062bc000066
:101b6800ef3f000075390000dae6000088a70000a2
:101b7800211d00008f460000430c0000caa300008e
:101b880055f600009e4100006331000006b20000d7
:101b980014d40000c62b0000f74d000024cf00002d
:101ba800e4bd0000e9090000a05b0000c0f40000eb
:101bb8009eb8000091e300004b570000971a000000
:101bc80062c5000049c10000e0410000583800002b
:101bd8004ee10000afaa00000f2000007a47000085
:101be80029060000d3a4000045f90000b244000013
:101bf800c02b00000db1000008d60000ac3000007a
:101c0800b2490000b6cc000017be0000e20f000089
:101c180054590000c1f10000acb60000a6e900006c
:101c2800205700000918000060c1000078c60000b5
:101c38008743000023370000c7db00002dae0000fb
:101c4800d12200003c480000fbff000034a6000041
:101c58002cfc00009b470000ee2500005eb0000051
:101c680015d80000733500002a4500007bca000023
:101c780078be0000d5150000ba560000d1ee00006d
:101c8800f4b40000cdef0000b05600006415000069
:101c980095bd0000d1cb0000ff440000ba3500001c
:101ca80064d60000e4b1000083250000b9480000b4
:101cb800d9f90000d1a7000024ff00003e4a000027
:101cc8000c200000dfaf000051da0000ff390000ef
:101cd8007f40000054c8000025bf00009f1b000083
:101ce800f7530000d3eb000093b30000e3f50000c6
:101cf8001a5600008e1200001fba000031d10000f1
:101d0800624600000334000049d10000b2b500006b
:101d18003c280000d6480000e4f3000089a9000030
:101d280047020000794c00003f1a000071af000024
:101d3800dedc0000293e0000d33b000025c6000081
:101d48003bc000001b21000028510000abe8000048
:101d5800aab20000c6fb00007b5500006c0f000013
:101d68001eb7000079d60000cb470000e131000023
:101d780093cc00007bb90000192b000073480000c9
:101d88003fee000041ab0000b10500002e4e000000
:101d9800a7140000f7ae0000d3df0000d541000013
:101da80046370000d4c30000d4c100002c26000030
:101db800694e000045e5000051b200005a010000dc
:101dc800eb540000eb0b0000adb400008adb000010
:101dd80054490000402f00005ec8000022bd0000ea
:101de8002e2e00007b47000005e90000ddac000056
:101df80075090000444f00005f0f00005dae000051
:101e080042e30000e9440000ef32000052c1000044
:101e180002c40000bb2a0000cf4b000090e1000084
:101e28009ab20000870600007d540000f807000001
:101e3800e0b2000052e000000a4b0000102c000045
:101e4800c1c4000093c0000089310000dd450000d6
:101e580048e4000050ae00009e0d0000af4f0000a7
:101e6800770a000099ad000035e700005c470000e4
:101e7800db2e000095be0000ccc60000bc2e000082
:101e88006649000086dd00008fb30000410b0000aa
:101e98003c54000090030000bfb10000c3e4000000
:101ea800f44c00004d280000c3c10000c7c3000067
:101eb8002d3500009a43000010e0000097af0000a5
:101ec800281200006e4f0000f3050000a9ac0000c6
:101ed800a7eb0000294900000f2b0000a1bb000060
:101ee80030ca00002a320000304700002ad900001a
:101ef8002eb50000850f000022540000bbfe000034
:101f080049b10000e0e800000a4f00000124000089
:101f18005ebf0000c4c600000b390000bb400000d3
:101f280057dc0000b9b000000a170000894e000015
:101f3800cf01000098ab00008ef00000574a000067
:101f4800832700007fb8000022ce00000f35000074
:101f5800214500008ed4000067b700005f13000021
:101f6800225400008af900006ab10000b6ec0000b3
:101f780039510000421f000083bd00009ac90000cb
:101f8800123d0000533d00000ed90000c7b100000b
:101f98002a1c0000134d0000fbfd00007baa000076
:101fa800d0f50000fd4a0000242400004bb50000d5
:101fb80085d200008137000022430000cecf000008
:101fc8001fba0000e7160000205400001ff40000ac
:101fd8000bb200005cf00000645300002b1a0000f4
:101fe8001abc00005fcc00002341000081390000ca
:101ff8001ed60000dcb200006c2100002a4b000055
:102008005bfa00006fa900004bfb0000384b000092
:10201800d620000028b2000037d700009e39000003
:10202800144100000fcb000033bd0000381a000037
:10203800fe5300009aee00000ab30000f0f300001f
:102048006d550000e214000003bb000032cf000011
:10205800194500006935000064d300001ab4000077
:10206800a5260000f5480000cff600009ba8000058
:10207800d50000002c4b0000771d00003baf00008e
:1020880010dc0000883b0000d83e000077c6000046
:1020980080c00000731d00009a53000025e900006d
:1020a80045b4000090f700002c570000910f000085
:1020b8001bba000038d20000ca48000036310000c0
:1020c800bed00000a6b50000ab2b00009b46000068
:1020d80034f3000026a8000047060000fe4a00006e
:1020e800e5190000aaac0000e9e000005f3d00002f
:1020f8004a3c00002ec20000dcc30000bb200000e8
:10210800cd520000e9e3000092b5000063fb000037
:1021180078580000600a00003ab9000093d5000022
:10212800114c00000e2d000009ce0000a4b70000dd
:1021380059300000404400006bef000019a800006f
:10214800b70b0000764a000088160000b2a900000c
:1021580008e700002e3d0000a53c0000bbb70000ca
:1021680093f50000273c0000a0e00000d9a700007c
:10217800f91b0000694a000027f4000087ae000040
:10218800162100001c4d0000ebf70000e5ac000034
:102198004c1d0000074b000033f7000031a9000078
:1021a800f01700007e480000bff600005ba60000a4
:1021b800b913000055470000def7000039a50000fc
:1021c8001c110000ac4700006efa000078a5000062
:1021d8009e0f0000ee480000c7fd000066a6000044
:1021e800890e0000654a00003a0100005fa7000060
:1021f800460d00008b4b000050040000fda70000b6
:10220800840b00001f4c0000d806000021a8000025
:10221800310900001c4c0000dc080000dfa70000aa
:102228006e060000ac4b00008a0a00006ca7000094
:1022380073030000054b00001c0c000002a70000ff
:1022480077000000614a0000c40d0000cfa600001e
:10225800a9fd0000e5490000a40f0000eea600005b
:102268001dfb00009f490000c411000065a7000085
:10227800d2f80000894900001c14000024a80000be
:10228800b8f60000904900009116000012a900005d
:10229800b6f40000994900000919000014aa0000ca
:1022a800b0f200008a4900006a1b000014ab00006d
:1022b80091f000004e490000a61d000001ac00008e
:1022c80050ee0000df480000b51f0000dbac000046
:1022d800edeb00003e4800009a210000a4ad00008c
:1022e80071e9000075470000612300006bae000033
:1022f800eae60000924600001a25000040af000000
:1023080067e40000a5450000d22600002eb00000ba
:10231800f5e10000b7440000932800003eb100003a
:102328009fdf0000d3430000622a000075b200005e
:1023380064dd0000f64200003c2c0000cfb3000032
:1023480044db00001d420000212e000046b50000bd
:1023580038d900004141000003300000d2b6000027
:1023680037d7000058400000dc31000068b8000092
:102378003cd500005c3f0000a433000002ba000016
:1023880041d30000463e0000583500009ebb0000c7
:1023980042d10000173d0000f436000039bd0000ae
:1023a80040cf0000cd3b00007c380000d6be0000c6
:1023b80041cd00006f3a0000f339000078c00000fa
:1023c80049cb0000003900005c3b000025c200003a
:1023d8005dc9000085370000c03c0000e0c3000074
:1023e80082c70000033600001f3e0000acc5000095
:1023f800bbc500007b3400007a3f000088c700009e
:102408000bc40000ee320000d340000075c9000084
:1024180070c200005b310000274200006fcb000053
:10242800e6c00000bf2f00007343000073cd00001a
:102438006dbf0000172e0000b44400007ecf0000de
:1024480003be0000622c0000e74500008cd10000ac
:10245800a5bc00009c2a00000b4700009dd300008b
:1024680052bb0000c82800001f480000afd500007c
:102478000cba0000e326000025490000c2d700007e
:10248800d4b80000f02400001d4a0000d8d900008c
:10249800adb70000f1220000074b0000f3db00009d
:1024a80098b60000e8200000e94b000010de0000ac
:1024b80096b50000d81e0000c14c000035e00000b1
:1024c800a9b40000bf1c0000904d00005fe20000ae
:1024d800d2b30000a01a0000564e00008ce40000a1
:1024e80011b3000079180000104f0000bde600008d
:1024f80063b200004c160000c14f0000f0e8000075
:10250800c9b10000151400006650000022eb00005d
:1025180043b10000d5110000fe50000053ed00004b
:10252800d0b000008c0f00008951000083ef00003c
:1025380070b000003a0d000007520000aff1000033
:1025480022b00000e00a000077520000daf3000031
:10255800e7af00007f080000db52000002f6000031
:10256800c1af0000180600003253000028f8000030
:10257800b0af0000aa0300007c5300004bfa000033
:10258800b2af000039010000bc5300006bfc000032
:10259800c9af0000c3fe0000f053000088fe000031
:1025a800f6af000049fc000018540000a20000002b
:1025b80038b00000cdf9000034540000b802000023
:1025c80090b000004ef7000044540000c904000019
:1025d800fbb00000cdf4000049540000d50600000f
:1025e8007ab100004af2000040540000dc08000004
:1025f8000cb20000c5ef000029540000dd0a0000fd
:10260800b3b200003fed000006540000d70c0000f4
:102618006bb30000b8ea0000d6530000c90e0000f2
:1026280037b4000031e8000098530000b4100000ef
:1026380015b50000aae500004d53000099120000ee
:1026480006b6000025e30000f452000076140000ee
:102658000ab70000a2e00000905200004b160000ec
:102668001fb8000023de00001f52000018180000e9
:1026780047b90000a8db0000a1510000e0190000e4
:1026880080ba000032d90000155100009f1b0000dd
:10269800cbbb0000bfd600007c500000561d0000d8
:1026a80026bd000053d40000d84f0000021f0000d0
:1026b80091be0000edd10000244f0000a7200000cb
:1026c8000bc000008bcf0000644e000042220000c7
:1026d80094c1000032cd0000954d0000d5230000c4
:1026e8002cc30000e1ca0000ba4c00005e250000bf
:1026f800d1c4000099c80000d04b0000dd260000be
:1027080084c600005bc60000d94a000054280000b7
:1027180045c8000025c40000d5490000c2290000b2
:1027280012ca0000fac10000c3480000262b0000ae
:10273800ebcb0000dcbf0000a54700007f2c0000a9
:10274800cfcd0000c9bd000078460000cf2d0000a5
:10275800becf0000c2bb00003e450000162f00009f
:10276800b7d10000c8b90000f7430000533000009b
:10277800bad30000dcb70000a24200008631000096
:10278800c6d50000ffb5000040410000af32000090
:10279800d9d7000032b40000d13f0000cf33000089
:1027a800f5d9000073b20000553e0000e534000082
:1027b80018dc0000c4b00000cb3c0000f13500007c
:1027c80042de000026af0000363b0000f236000073
:1027d80071e0000099ad000092390000e93700006f
:1027e800a5e200001dac0000e3370000d738000068
:1027f800dee40000b3aa000026360000bb39000062
:102808001ae700005ba900005d340000943a00005c
:102818005ae9000017a8000088320000643b000055
:102828009deb0000e8a60000a73000002b3c00004c
:10283800e2ed0000caa50000bb2e0000e73c000046
:1028480028f00000c2a40000c32c00009a3d00003c
:1028580070f20000cea30000bf2a0000433e000033
:10286800b8f40000f0a20000b0280000e13e00002b
:10287800fff6000025a2000098260000763f000021
:1028880045f9000070a10000742400000140000018
:1028980089fb0000d2a00000452200008240000011
:1028a800ccfd000049a000000c200000f84000000a
:1028b8000c000000d79f0000cb1d000066410000ff
:1028c800480200007b9f0000801b0000cb410000f5
:1028d80081040000359f00002d19000024420000eb
:1028e800b6060000079f0000d116000074420000e1
:1028f800e7080000ef9e00006e140000ba420000d6
:10290800120b0000ee9e000003120000f7420000c8
:10291800370d0000039f0000910f000029430000bd
:10292800560f00002f9f0000170d000051430000b4
:102938006e110000729f0000980a00006f430000ab
:1029480080130000cd9f000013080000844300009e
:102958008a1500003da00000890500008f43000093
:102968008c170000c4a00000fc0200008f43000088
:102978008719000062a100006a000000854300007a
:102988007a1b000016a20000d4fd0000714300006d
:10299800641d0000dfa200003cfb00005343000060
:1029a800431f0000bfa30000a2f800002b43000053
:1029b80019210000b4a4000004f60000f842000049
:1029c800e7220000bfa5000067f30000ba4200003c
:1029d800aa240000dea60000c9f000007242000030
:1029e8006326000011a800002cee00002042000021
:1029f8001128000059a9000091eb0000c341000014
:102a0800b6290000b5aa0000f6e800005c41000005
:102a1800512b000024ac00005de60000e9400000f6
:102a2800e02c0000a6ad0000c9e300006c400000e7
:102a3800642e00003aaf000038e10000e33f0000d8
:102a4800db2f0000e1b00000aade0000503f0000cc
:102a58004a31000098b2000022dc0000b03e0000bd
:102a6800ad32000060b40000a0d90000063e0000ae
:102a78000334000038b6000024d70000513d0000a0
:102a88004f35000020b80000b1d40000903c000091
:102a98009036000016ba000045d20000c33b000083
:102aa800c63700001cbc0000e2cf0000ea3a000074
:102ab800f13800002fbe000089cd0000073a000061
:102ac8000f3a00004fc000003bcb00001739000050
:102ad800223b00007cc20000f5c800001c38000042
:102ae8002a3c0000b4c40000bcc600001337000034
:102af800273d0000f6c6000090c40000ff35000026
:102b0800193e000043c9000071c20000df34000014
:102b1800ff3e00009acb000061c00000b333000004
:102b2800dc3f0000f9cd00005ebe00007a320000f4
:102b3800ae40000060d000006abc000036310000e2
:102b480074410000cfd2000086ba0000e62f0000d2
:102b58003042000045d50000b4b80000892e0000be
:102b6800e1420000bfd70000f1b60000202d0000b0
:102b7800884300003fda000040b50000ab2b00009e
:102b880025440000c3dc0000a2b30000292a00008d
:102b9800b74400004adf000016b200009b2800007e
:102ba80040450000d3e10000a0b00000002700006d
:102bb800c04500005fe400003caf00005b2500005a
:102bc80035460000ece60000ecad0000aa2300004a
:102bd800a14600007ae90000b2ac0000ec21000038
:102be8000447000008ec00008eab00002320000022
:102bf8005c47000095ee00007eaa0000501e000011
:102c0800ad4700001ff1000085a90000701c0000fe
:102c1800f4470000a7f30000a3a80000841a0000ee
:102c2800324800002cf60000d8a700008e180000db
:102c380067480000aef8000025a700008d160000c8
:102c4800944800002afb000089a6000082140000b6
:102c5800b8480000a2fd000005a600006d120000a3
:102c6800d54800001500000098a500004f1000008e
:102c7800e74800008302000045a50000270e000079
:102c8800f2480000e904000009a50000f70b000065
:102c9800f548000047070000e5a40000bc09000053
:102ca800f04800009d090000daa400007907000040
:102cb800e2480000eb0b0000e9a400002e0500002c
:102cc800cc480000300e000010a50000dc02000017
:102cd800ae4800006c1000004ea500008400000003
:102ce800884800009e120000a6a5000025fe0000ee
:102cf8005a480000c814000016a60000c0fb0000d7
:102d080024480000e61600009fa6000055f90000c0
:102d1800e5470000fa1800003fa70000e6f60000ab
:102d28009f470000011b0000f7a7000073f4000094
:102d380050470000fe1c0000c6a80000fbf1000080
:102d4800f9460000ee1e0000aea900007fef00006b
:102d580099460000d3200000acaa000002ed000054
:102d680031460000ac220000c0ab000084ea00003d
:102d7800c145000078240000ebac000005e8000025
:102d880048450000382600002cae000085e500000c
:102d9800c6440000ed27000082af000005e30000f4
:102da8003b44000093290000edb0000087e00000dc
:102db800a84300002d2b00006cb200000bde0000c1
:102dc8000b430000b82c0000ffb3000090db0000ac
:102dd80065420000382e0000a5b5000018d9000093
:102de800b6410000ab2f00005eb70000a5d600007a
:102df800fd4000001031000028b9000038d4000060
:102e08003a4000006832000003bb0000d1d1000046
:102e18006e3f0000b5330000f0bc00006fcf00002b
:102e2800973e0000f5340000ecbe000014cd000011
:102e3800b63d000026360000f8c00000c2ca0000f7
:102e4800cc3c00004b37000011c300007ac80000da
:102e5800d63b00006338000039c5000039c60000c1
:102e6800d73a00006f3900006ec7000002c40000a6
:102e7800cd3900006e3a0000afc90000d8c100008b
:102e8800b7380000613b0000facb0000babf000071
:102e980096370000483c000051ce0000a9bd000054
:102ea8006b360000233d0000b2d00000a4bb000038
:102eb80034350000f43d00001bd30000afb900001a
:102ec800f2330000b83e00008dd50000c8b70000fe
:102ed800a63200006f3f000006d80000f1b50000e0
:102ee8004d3100001b40000086da00002ab40000c3
:102ef800e92f0000be4000000add000073b20000a8
:102f0800792e00005541000094df0000ceb000008b
:102f1800fe2c0000e041000022e200003caf00006f
:102f2800772b000062420000b3e40000bead000051
:102f3800e4290000da42000047e7000052ac000034
:102f48004728000048430000dce90000faaa000016
:102f58009e260000ab43000073ec0000b8a90000f7
:102f6800ea240000044400000aef00008aa80000d8
:102f78002a23000053440000a0f1000071a70000bc
:102f8800602100009a44000035f400006ea600009d
:102f98008a1f0000d7440000c7f6000081a5000082
:102fa800a91d00000b45000056f90000aca4000064
:102fb800bd1b000035450000e2fb0000eea3000049
:102fc800c71900005745000069fe000047a300002c
:102fd800c717000071450000ed000000b7a200000f
:102fe800be150000824500006b03000040a20000ef
:102ff800ab13000089450000e4050000e0a10000d3
:103008008e110000884500005508000099a10000b5
:10301800690f000080450000bf0a00006aa1000097
:103028003a0d00006e450000210d000053a100007c
:10303800040b0000554500007b0f000055a100005f
:10304800c408000033450000cd11000071a1000044
:103058007e0600000945000014140000a4a1000029
:1030680031040000d744000053160000efa100000f
:10307800df0100009e4400008718000054a20000f1
:1030880085ff00005b440000b21a0000d0a20000d7
:1030980027fd000010440000d11c000065a30000bb
:1030a800c4fa0000bf430000e41e000011a40000a1
:1030b8005cf8000064430000ec200000d5a4000088
:1030c800eff5000002430000e9220000b1a500006e
:1030d80080f3000097420000d9240000a5a6000054
:1030e8000df1000024420000bc260000ada700003e
:1030f8009aee0000a841000093280000cda8000027
:1031080026ec0000254100005e2a000004aa000009
:10311800b0e90000994000001c2c000050ab0000f2
:103128003ae7000004400000cc2d0000b2ac0000db
:10313800c5e40000683f00006f2f000028ae0000c3
:1031480051e20000c23e000004310000b1af0000af
:10315800e0df0000143e00008c32000050b1000097
:1031680070dd00005d3d00000634000001b3000082
:1031780004db00009d3c000072350000c4b4000070
:103188009dd80000d33b0000d13600009ab600005d
:103198003cd60000013b00002238000081b8000046
:1031a800dfd30000263a00006739000079ba000032
:1031b80088d10000423900009c3a000081bc000020
:1031c8003acf000054380000c33b000099be00000d
:1031d800f2cc00005d370000dd3c0000bfc00000fd
:1031e800b3ca00005c360000ea3d0000f3c20000ec
:1031f8007dc8000052350000e93e000035c50000da
:1032080052c600003d340000db3f000082c70000ca
:1032180032c400001f330000be400000dcc90000bb
:103228001dc20000f73100009641000040cc0000ac
:1032380014c00000c630000060420000b0ce00009c
:1032480018be00008a2f00001e43000028d100008d
:103258002abc0000452e0000ce430000aad300007f
:103268004bba0000f52c00007144000033d6000072
:103278007ab800009c2b000008450000c3d8000065
:10328800b8b60000382a00009345000059db00005a
:1032980006b50000c928000012460000f5dd000050
:1032a80066b30000522700008346000096e0000045
:1032b800d8b10000cf250000eb4600003ae300003b
:1032c8005ab000004324000047470000e2e5000030
:1032d800f0ae0000ad220000974700008ce8000027
:1032e80099ad00000e210000db47000039eb00001b
:1032f80055ac0000641f000013480000e6ed000014
:1033080025ab0000b11d00004348000092f000000a
:103318000aaa0000f41b0000664800003ef3000003
:1033280003a900002d1a00007f480000e8f50000fe
:1033380012a800005e1800008d48000091f80000f7
:1033480038a70000841600009248000036fb0000f1
:1033580072a60000a31400008e480000d8fd0000eb
:10336800c4a50000b91200007e48000076000000e5
:103378002ca50000c61000006548000011030000dd
:10338800aba40000cc0e000042480000a4050000d9
:1033980041a40000c90c00001648000031080000d4
:1033a800eea30000bf0a0000e1470000b80a0000d1
:1033b800b3a30000ad080000a2470000370d0000cd
:1033c80091a30000930600005a470000af0f0000c9
:1033d80085a3000074040000094700001d120000c6
:1033e80090a300004e020000b146000083140000c4
:1033f800b5a30000230000004f460000e0160000bf
:10340800f0a30000f3fd0000e345000033190000bd
:1034180044a40000bdfb00006f4500007d1b0000b8
:10342800afa4000084f90000f4440000ba1d0000b5
:1034380032a5000046f7000070440000eb1f0000b2
:10344800cca5000003f50000e343000012220000b1
:103458007ea60000bdf200004e4300002d240000af
:1034680046a7000077f00000b04200003a260000ae
:1034780025a800002dee00000a4200003c280000ac
:103488001aa90000e4eb00005c410000322a0000a9
:1034980026aa000098e90000a64000001a2c0000a7
:1034a80047ab00004de70000e73f0000f52d0000a6
:1034b8007fac000003e50000203f0000c12f0000a2
:1034c800cbad0000b9e20000513e000080310000a1
:1034d8002baf000070e000007a3d0000313300009f
:1034e800a0b0000029de0000993c0000d4340000a0
:1034f80029b20000e5db0000b13b0000683600009f
:10350800c4b30000a7d90000c03a0000ee3700009d
:1035180073b500006cd70000c73900006639000099
:1035280033b7000036d50000c5380000d03a000097
:1035380006b9000005d30000bc3700002c3c000091
:10354800e9ba0000dbd00000a9360000773d000092
:10355800dcbc0000b8ce00008f350000b43e00008f
:10356800dfbe00009ccc00006b340000e43f00008c
:10357800f1c0000088ca00003f3300000441000089
:1035880011c300007ec80000093200001642000086
:103598003ec500007dc60000cc3000001943000085
:1035a80079c7000088c40000862f00000f4400007f
:1035b800c0c900009cc20000372e0000f74400007c
:1035c80012cc0000bcc00000df2c0000cf4500007a
:1035d80070ce0000e9be0000802b00009a46000073
:1035e800d7d0000024bd0000172a0000564700006d
:1035f80048d300006abb0000a62800000548000068
:10360800c1d50000bfb900002b270000a648000064
:1036180042d8000023b80000a8250000384900005f
:10362800c9da000097b600001b240000be4900005c
:1036380057dd00001bb5000087220000374a000054
:10364800eadf0000aeb30000eb200000a34a000050
:1036580082e2000053b20000461f0000014b000048
:103668001fe5000009b100009a1d0000524b000040
:10367800bee70000d3af0000e41b0000974b00003a
:1036880060ea0000adae0000271a0000cf4b000032
:1036980003ed00009aad000061180000fb4b00002c
:1036a800a7ef00009bac0000941600001a4c000025
:1036b8004cf20000b0ab0000bf1400002d4c00001d
:1036c800f0f40000daaa0000e2120000354c000015
:1036d80092f7000017aa0000fe100000324c00000c
:1036e80033fa000069a90000140f0000234c000001
:1036f800d3fc0000cfa80000230d0000084c0000f8
:103708006eff00004da800002c0b0000e04b0000ed
:1037180007020000dea700002e090000b04b0000e1
:103728009904000085a700002a070000744b0000d8
:103738002707000042a70000200500002c4b0000ce
:10374800af09000015a7000011030000da4a0000c5
:10375800310c0000ffa60000fc0000007e4a0000bb
:10376800ac0e0000fea60000e4fe0000174a0000b0
:103778002011000014a70000c8fc0000a6490000a2
:103788008c13000041a70000a7fa00002c49000094
:10379800f015000083a7000083f80000a54800008a
:1037a8004b180000dba700005cf60000164800007c
:1037b8009d1a00004aa8000033f400006e4700007c
:1037c800fa1c0000d1a80000f6f10000f346000042
:1037d800f51e0000aca9000090ef0000f6450000bf
:1037e800891d00005e0700002dba0000b0c200006d
:1037f800205800005bdc000079ca0000e73a0000ae
:10380800702b000055aa0000782c0000b33c000083
:1038180037cb000031e60000055f00001fd800002c
:10382800eccd0000113e00004b170000ffa3000084
:10383800642c00000a2d0000afbb0000caea00009b
:10384800605500009bc90000bed000002341000065
:103858001b0900000fa7000092350000d1260000c8
:10386800afb8000021fa000068540000fdc4000051
:10387800d2dc00007d4900008d000000d1af0000bf
:10388800f040000055210000f1b70000ed080000ed
:10389800b45000002bbf000009e70000e14c000015
:1038a80085f40000f8b5000027470000da1600008c
:1038b800b9b400006c130000ea47000003b7000029
:1038c800d9ee0000eb4b00009de600008dbb000028
:1038d800bf4a0000cf0a000099b20000481d00004e
:1038e8002a3e0000c6b000001cf80000984a0000fc
:1038f800d6da00000bc40000e04e000069000000aa
:1039080029b400008728000062350000fead0000e1
:10391800950300008e49000099d1000024cf0000d3
:10392800f152000012f7000040b80000a633000072
:10393800342c00000bad0000320f0000ea460000f6
:1039480013c90000aada0000dd54000019ed0000d8
:10395800f4bc0000b93c00002c21000086ac00003b
:103968006b190000a641000080c00000b3e500000c
:10397800145400005ae2000003c20000a2430000f1
:10398800ba140000d8ac0000942200008b3a000062
:10399800d2b80000e7f000008851000016d80000f7
:1039a80063c80000594900003008000019af000042
:1039b8008b2b0000c432000021b30000fcfc000087
:1039c800174e00003dcf000092d000004b4e000083
:1039d80034fc00008eb3000056340000932a000027
:1039e8008aaf00009b0900009f490000b5c700008e
:1039f8000ada0000f351000087f000009cb90000cb
:103a0800343c0000862100007aad0000e515000076
:103a18009343000006c1000002e40000af53000019
:103a2800d4e40000a2c0000088420000661700002d
:103a3800a2ac000053210000d43b000026bb0000cc
:103a48002aee0000685300005dd9000094c8000009
:103a5800534700008f0c00003dad0000ed2b000027
:103a6800d232000084b60000a9f800007f5100009f
:103a7800b6ce0000a6d10000db4a00009701000086
:103a8800a4af0000d53500000e29000082b3000065
:103a980089030000344e000045c50000d8db000053
:103aa800314d0000cef60000d9b30000e33e00001f
:103ab800b11e000024b20000870e000081490000fa
:103ac8001cbd0000cee600001b4e000038ec0000d4
:103ad80093b90000b1460000be1300003cb20000dc
:103ae80031190000464300002db6000022f2000004
:103af800684d0000dee1000092c00000f54c0000b7
:103b080049080000adb3000043230000963b0000c5
:103b180095b0000097fd00001e4b0000fad700008a
:103b2800b9c800009f510000a1fc000086b6000043
:103b3800a02c0000af3200008bac0000120900007e
:103b480065470000dece000006d20000b854000031
:103b58001cf10000d5ba000035350000d728000058
:103b68003aaa00006c14000066420000c5c60000b6
:103b780051dc000037560000fce5000089c0000059
:103b8800d93c00003a1e0000aba90000631f0000ea
:103b98002c3c0000c8bf00005de70000065600008e
:103ba8006adb000071c7000056430000fc120000e9
:103bb800cbaa0000b1290000c8340000fab90000ff
:103bc800e2f20000145400008ad100005fcf000028
:103bd800804800004c07000094ad00001a33000034
:103be8005a2c000074b50000a8fe00006c500000bc
:103bf80093c800002ed80000464c000067fb000068
:103c0800fdb10000783b00001923000059b2000004
:103c1800800a00002c4b0000bec00000bae1000082
:103c28009d4e000093ef0000fcb70000a942000081
:103c38003c190000bbb00000371600006e440000bd
:103c480037ba0000daeb00007f4f00000ae40000fa
:103c580073bf000084480000f10e00009fb0000010
:103c680090210000553c00001cb5000052f60000f1
:103c7800e54e0000ffd800003ac80000e74c0000fd
:103c880069040000feb100004d2c0000f93200006c
:103c980081b10000e8000000cd4c0000a6ce000075
:103ca80021d20000bb4f0000d5f90000cdb40000c0
:103cb800383600008e2800007aaf0000660b00003e
:103cc800434900002ec50000fcdc0000ec50000059
:103cd80072ef000003b90000273f0000471d0000f5
:103ce80015af0000991500005f440000c9bc000032
:103cf8009be800007a50000076e5000089be0000cd
:103d0800f14600005d1100005bb000004f1f00008d
:103d18003d3e0000a1b50000c2f40000634e000063
:103d280014dc000042c50000724d000009050000c7
:103d380044b3000056280000fb360000d7af00004f
:103d480039010000b14a00007ad3000008cd000014
:103d58008352000084f80000c0b700007c300000e7
:103d6800bf2e000085ab0000c00d000070450000ac
:103d7800d5cb0000b2d500001256000009ec0000b7
:103d8800bebd000094370000b1250000bca80000ab
:103d98001d1a0000bc3e000050c5000016df0000e0
:103da80010580000d7df00001fc500007c3d000050
:103db800031c00008aa7000013260000b336000089
:103dc8000bc0000000e90000735800002ad400006e
:103dd800c5cd000016420000e6110000f4a700005f
:103de800683100007b2d000022bc000040f3000079
:103df8003e57000039c9000083d70000484500003d
:103e080091070000f6a90000e83b000042230000eb
:103e1800acb900009efd00007554000038bf0000da
:103e28002de200000047000038fd000084ad0000ce
:103e38006045000037180000b6b80000e70700002a
:103e48002850000057b600008ded000033470000f1
:103e58000ef3000088b20000a14d0000910c000094
:103e680048b90000e4110000704a0000c0ae00002c
:103e78006bf90000dd45000049e90000ebb80000df
:103e880082540000860000005dbb0000641b000037
:103e98006b4300009ba80000920500000843000047
:103ea8001ae0000088c00000e559000053f4000043
:103eb800f0be0000352400003e3b000002a40000d4
:103ec800c4110000bc3e0000b4d700003cc900008b
:103ed800af5d000032e80000eec30000272c0000b0
:103ee800103200000aa10000c61d000012390000af
:103ef8003fd00000d7d20000d15f00005edc000098
:103f080042ca00001533000013280000c29f0000b9
:103f18005c2900001e320000e1c900002add000013
:103f28003f60000013d10000cbd10000dc38000056
:103f3800781d00002da000004f340000072a000063
:103f4800bac4000000e80000f75e000087c6000061
:103f580065da00005b3d0000761200004ea200000a
:103f6800683e0000f3200000e7c0000020f30000d6
:103f7800025c0000ebbc0000e8e300007d400000ac
:103f88004407000014a6000078470000101700003e
:103f98007bbe000055fe00007057000072b40000a0
:103fa80021ee0000304200001afc00006eab000059
:103fb800504f00008d0c000083bd00006709000011
:103fc8005651000045ad0000e1f800006d420000c8
:103fd80030f100003fb20000c95500009d0100000b
:103fe80002be00001c140000d649000089a700008a
:103ff800f103000032410000bde6000067ba00008e
:10400800c35a000079f60000f7bf00003e1e00000a
:104018001141000056a300001d0f0000843e00005f
:10402800f7dc0000bdc30000295e000055eb00006e
:1040380058c300009d27000036370000c3a00000c9
:104048002a1a0000723a00000dd4000011ce0000b8
:10405800e65f00006de0000018c8000008300000ae
:10406800752c0000dd9f0000e12400000e350000e3
:1040780029cc000032d90000f35f0000f4d500001d
:104088001ace00005837000005210000aaa0000041
:104098000e2f0000752e000077c50000e3e4000035
:1040a8004e5e00001fcc000042d50000673d0000b6
:1040b8001e15000025a300007f380000c726000059
:1040c80014c00000f1f00000015b00001ec30000f6
:1040d8006cdd000015420000fa08000040a700004f
:1040e800044100002c1e00001fbc00001cfd000045
:1040f8001b56000021bb00006ee600004d45000085
:10410800d5fc0000e9ac000070480000cd140000a8
:10411800a7b900002b090000b64f00004fb40000fb
:104128001df0000002470000ecf0000004b400009d
:104138009e4e0000db0a0000b9b80000df14000042
:10414800ee470000cbae000046fa00002947000009
:104158007be500006fbc0000715300008700000081
:1041680059b90000ff1f0000ea3e0000b0aa000095
:10417800b8040000c2450000b9da000000c600001b
:10418800cf56000006f6000085bb0000562a000046
:10419800d834000013a800003b0f0000d4420000f0
:1041a800dbd0000088d00000a85800008deb00008c
:1041b80030bf0000b0330000e829000001a700006c
:1041c8009d190000703e000010c80000d1db0000ff
:1041d800ef58000050e1000047c40000e03b000039
:1041e800531e000085a70000a8230000ac3800007b
:1041f80085c00000a6e70000a357000083d7000091
:10420800b1ca0000bd4200004c12000098a900008d
:104218002a2d0000a631000060ba0000cef300008d
:10422800cb54000058ce00004ad2000024480000b9
:104238001306000032ad0000f235000082290000ac
:10424800bdb500000b00000074500000fec5000062
:10425800f0da0000fd4b0000e1f9000040b2000078
:10426800d33d000067200000b0b20000220c00001f
:10427800b34a00009fbe000074e40000374e0000ff
:10428800f4ed0000aeb80000a6440000851600005a
:104298004bb10000d5170000a143000061b8000031
:1042a800a7ee0000c64e000088e200005ac00000d9
:1042b800494a00000f0c000092b10000ee220000f5
:1042c800643b000062b3000054f90000a84d0000f0
:1042d800d2d700001fc900009d4e00003901000020
:1042e80086b30000352d000022320000bdaf00006b
:1042f80045040000e34a000005ce0000d3d20000c8
:104308008d5100003af6000019b700007936000018
:104318000a28000086ad0000450f0000874600000f
:1043280055c5000043dd00000753000049eb0000bd
:104338003abc00008b3e00004c1d0000caac0000d7
:104348001a1a0000a9400000ecbd000041e8000076
:10435800065300009de00000ccc20000424500006a
:104368001d12000088ad00008f2400006a3900008b
:10437800eeb7000093f30000895100006cd60000ee
:10438800b1ca0000804a0000b5060000c2af0000b4
:104398006d2e0000e930000076b3000004ff000035
:1043a800974e0000eccc0000c1d300002c4e00005a
:1043b8004afb00006bb3000083370000572700005a
:1043c8009bb00000590a00003b4a00004bc40000a3
:1043d800cbdd00003350000019f0000074b8000075
:1043e800a53f0000e01c00006baf00005b1500005b
:1043f8008c440000b2bc0000a1e800008c50000012
:1044080054e50000c1be0000a9460000bb11000031
:10441800ecaf0000d41f0000a83d00004bb6000020
:1044280006f40000334f000033db000036c60000fe
:104438006c4c0000210600001ab20000912900000f
:10444800ad35000035b10000c8ff0000324c000057
:10445800e6d10000abce0000ce50000049fa0000c3
:10446800e9b5000062320000c72c00008cad0000e6
:10447800a80b0000974700009dc90000f9d700006d
:10448800bb5300006fee000048bb0000193a000063
:104498001d2300005fab00006c1700007c4100008a
:1044a80082c20000f2e1000026550000cfe20000c1
:1044b8001ac2000090400000e2180000b9aa0000eb
:1044c800d8220000fc390000b6bc000063ec0000f4
:1044d80005550000a6d700003eca0000a945000007
:1044e800470e00009fab0000b22d00003e310000d7
:1044f80055b8000019f700005b53000027cd0000f5
:104508008bd300004b490000830300000eae00006f
:10451800c63700006e27000076b50000dd010000f8
:104528002b5000008ac30000d2dd0000634b00005e
:10453800ccf80000f8b10000e3400000bc1c00000b
:1045480028b400007c0c00008b4b0000fcba000073
:10455800e0e80000e64b000053ee00004ab7000018
:10456800d84800006011000072b40000c0160000b6
:104578008e450000a8b300007ef40000d14a000078
:1045880050e40000e9bd00007f4f00008f050000e7
:1045980050b6000076200000553e0000b6ad000081
:1045a800720000002c480000f3da0000b3c50000d8
:1045b800b654000085f90000bbb900006d29000061
:1045c8000236000041a90000820c000000440000ef
:1045d8006ed2000085ce0000655800007eed000018
:1045e800a0be000078310000be2c00005da60000cf
:1045f80072180000673e0000e8ca00002fd80000cb
:10460800795a0000b6e10000e9c400006e380000e5
:10461800b92200001ba50000032400007737000022
:1046280089c4000082e20000e85a000069d6000050
:1046380076cc00002f3e0000251800007ea5000063
:10464800ff2e0000552f00006fbf00004aed00004c
:10465800b0590000cccb000022d500009c420000dd
:10466800380d00008aa70000303900002926000014
:10467800b4bb000050f80000d656000014c2000079
:10468800c3de00009e450000270200002dab00009d
:1046980063420000201c00006fb900005d030000a9
:1046a8006c52000071b9000026e90000254700009f
:1046b8002af7000059b000006a4a00006d11000096
:1046c800a8b800003c0e0000874c00000eb20000a5
:1046d8001ef400002a47000079ec0000f1b6000043
:1046e8001e5100004206000064b90000b318000023
:1046f8004545000012ac00006eff0000ae4500000a
:1047080048e20000d5be00005d560000d7fa000060
:10471800a1bb00008e220000c93c000096a7000043
:10472800e40a0000b5420000cfd80000ddc7000051
:10473800115a000065ef000052bf00009b2b0000db
:1047480040330000b0a40000451600004e3e0000b3
:104758003ad00000dbd10000255c000025e4000011
:1047680069c40000ae330000d928000070a300001f
:10477800582100008d380000b4c800009ddc0000fe
:10478800915c00004dd90000cbca00009d3a0000a2
:10479800ca1d0000daa30000e82b000091310000d8
:1047a80064c20000ebe70000505b000012cf00007d
:1047b8005ad20000454000004b120000eda5000051
:1047c800c2350000792900006cbd00008ef300009e
:1047d8006f580000a6c50000efda0000874400000b
:1047e800930600009ba90000b43e00007120000061
:1047f800e5b900004aff0000f853000038bd00008a
:1048080062e400004e470000e0fa0000d3ae00006a
:1048180091460000a0160000e0b70000e60a00007c
:10482800064e0000f4b5000084ee00008f4800003a
:104838006bef000079b50000354d0000380c000022
:1048480067b7000025160000b4460000faaf000064
:1048580024f900003f48000070e400006ebd00002d
:104868007e5200006d0100007eb80000ce200000de
:10487800273e000067ab00000d0400006246000000
:1048880025da000087c600005456000075f60000bf
:1048980021bb0000ae2a00008c34000053a80000a1
:1048a800060f0000fd420000bed0000098d00000b6
:1048b800a358000086eb000043bf000092330000bd
:1048c800122a0000cca60000de190000233e0000da
:1048d80069c800006ddb00005f590000d5e00000ea
:1048e800cec400004e3b0000f01e0000dca6000015
:1048f8005c240000ec37000050c10000d0e6000046
:104908008558000096d60000a9cb0000ba410000e7
:104918005a1300007fa800004e2e000077300000d8
:104928009abb000089f200001b560000fecc000074
:10493800afd30000b44600008d070000adab000007
:1049480081370000e927000060b700005dfe000025
:104958002c5200003cc40000bcdc0000274a0000c8
:10496800c1fb000057b00000c73f00006a1e0000ee
:10497800b7b40000120a0000cd4c00007dbc000056
:10498800a0e60000024c000033f0000066b600000c
:10499800f74600002c140000aeb300006a150000b2
:1049a80015460000e5b500002cf10000394c000068
:1049b8001de50000bdbd0000ee4c000061090000cf
:1049c80048b4000031200000293e000095b00000e6
:1049d80028fc0000cc4a0000b5da000034c600000c
:1049e8008f51000041fe000085b600002f2a00000c
:1049f8002e350000aaac00005f070000c247000087
:104a08002cd10000a6cf0000c054000001f3000024
:104a180058ba000035330000532b000038aa0000b4
:104a2800981200002e430000b4c80000dfd900002f
:104a380070560000dbe70000acbf0000143b00002c
:104a4800c72000004aa900009d1d0000223d00006b
:104a580077c10000b2e400009956000006dd0000ae
:104a680066c60000a6410000bd150000e6a90000ca
:104a780034280000c235000098bb0000e6ef0000b3
:104a880039550000bad2000065ce0000cb460000c0
:104a98006c0a000009ac0000273200002e2d00002f
:104aa80033b7000046fb0000565200002cc9000036
:104ab80081d700006c4a00000bff0000a9af00007e
:104ac800453b0000952300005db4000098060000f7
:104ad800fc4d00008bc000008ae10000754c00000e
:104ae800d6f30000b7b400006043000026190000a8
:104af80023b30000a41100004148000000b90000e1
:104b080050ec0000de4c0000ffe8000019bb00007c
:104b18004f4a0000180e00008cb30000371c00003c
:104b280041410000b5b2000099f70000a34b000016
:104b3800bede0000aec20000ef4f0000a102000080
:104b480095b500001b2600001f390000c9ad000004
:104b580030030000ce48000044d5000052cb0000ce
:104b680021540000fbf6000032b900001f2f00009e
:104b78000330000055aa0000d80e00006d44000064
:104b8800c1cc0000dcd40000d156000060eb00006e
:104b980051be000017370000172600006ba8000060
:104ba800571a0000973e00005fc500001ddf000097
:104bb800f35700000ae00000d6c40000db3d000007
:104bc8008f1b000014a8000074250000693700003e
:104bd80041bf0000e1e900007e57000036d5000023
:104be800a5cc00004b4300009c10000054a9000015
:104bf800f42f0000052f000084ba0000f4f4000030
:104c08007655000016cb000092d500004e470000f4
:104c18007605000024ac0000a539000099250000a5
:104c280041b700001d000000e1510000dec1000096
:104c380073df0000ce49000056fa000078b000008b
:104c480058420000521b000087b50000280b0000e6
:104c5800d44c0000bdb9000013ea0000be4a0000b1
:104c680070ef000038b60000de4900006510000053
:104c780061b50000dc15000067460000dbb20000eb
:104c880040f500001a4a0000fbe400004abd00009d
:104c98001350000006050000cdb6000005200000f6
:104ca800bb3e00005cad0000c1000000e84700000a
:104cb8002bdb000087c50000d654000070f9000007
:104cc800c4b9000070290000f43500005aa900009a
:104cd8005e0c00003044000032d20000cbce000051
:104ce80013580000dbed000037be0000ec31000077
:104cf8003f2c0000e7a60000dc170000083f00007a
:104d08003dca0000e5d80000b759000083e2000062
:104d180011c4000051390000cd21000012a6000086
:104d2800012300008338000071c30000a4e30000e1
:104d3800bc5900009fd7000036cb00007a3f000026
:104d4800d0160000dda60000972d0000c830000036
:104d5800f2bd0000d0ee00002058000065cd000034
:104d680080d3000048440000830b000048a90000dd
:104d780069370000f9270000dcb9000031fa0000ab
:104d8800ec54000006c40000c8dc0000a247000084
:104d98001b00000042ad000047400000441e000018
:104da80043b700009005000032500000b3bb00007c
:104db800dde6000075490000d3f40000b8b2000039
:104dc80005480000d913000036b60000b4100000f2
:104dd800084a000094b4000092f10000bc490000a9
:104de800e1e900008eb900007c4e0000ea080000ee
:104df800b7b60000651b00008e420000ceae000072
:104e0800aefc0000724800007fdf0000a2c1000075
:104e18008b530000adfd0000c6b800006c250000f3
:104e2800e73900007baa0000fd070000a04500004c
:104e3800e1d50000ceca00001d5700005cf200005a
:104e480048bc0000d32e0000cf2f00006aa8000045
:104e5800271200000343000092ca00003ed9000058
:104e6800543d0000212100007dc3000068e50000da
:104e7800e156000009b90000dbee0000ee47000033
:104e8800aae00000f6c900007e5b00002de10000ea
:104e9800c9cc0000a1430000ca06000009af000009
:104ea800024a00006409000079b80000082a0000de
:104eb800032d00006fa5000075280000782d000064
:104ec8008ab8000094040000f04a0000e8b000002e
:104ed800b7ff0000f8440000fecc000097dc00009b
:104ee800dc5800006ace00005ed90000b849000016
:104ef8002af0000088bb0000b852000045f6000008
:104f08005dbe0000433a0000f21800006aa90000e4
:104f1800ba390000831e000025b50000601a0000a1
:104f2800163d0000beaa0000fe1300004e3d000022
:104f380005c0000022f20000b453000062bf000068
:104f4800ebea0000334b000058dc0000a7cb000060
:104f58004657000069e20000c0c80000f3440000a2
:104f68002f0300009db00000ed460000440b000038
:104f7800e7b500002a2c0000e32a0000c1a70000c2
:104f8800ae260000e32f000003b700000007000072
:104f98008f49000040b3000068fe00002c47000065
:104fa800b1cb00009fde00008a57000041d000000e
:104fb80002d800005c4b0000c2ee0000fcbc000000
:104fc800455100008df70000e5bc0000683b00007b
:104fd8007c17000075aa00004b3800007a1f0000fb
:104fe800c3b300004a1b0000c43b0000a0ab000094
:104ff800c11200002c3e0000e2be000002f30000d7
:10500800aa52000044c00000fbe90000174c000051
:105018007edb00008ccc00008056000050e30000ce
:105028000dc80000d84500008b0200007eb10000ca
:10503800554600001e0c000055b50000fb2c000072
:10504800562a000087a80000242600009c30000093
:105058007ab60000ad07000005490000dfb3000084
:10506800dcfd0000bc47000022cb000023df00006d
:10507800f9560000bbd0000070d70000cd4b0000ef
:1050880031ee000065bd0000b4500000eff70000ed
:1050980056bc0000c63b0000f1160000d1aa000073
:1050a800c5370000d71f000044b30000a61b00004e
:1050b8004c3b0000fcab0000511200008a3e00008f
:1050c80077be000063f3000048520000a9c000004a
:1050d8009fe900007d4c000028db0000f4cc0000b4
:1050e8002d560000b7e30000bec70000414600008f
:1050f8003f020000e8b100000b460000860c0000eb
:105108000cb50000602d00000b2a0000e8a8000084
:10511800d9250000fb3000002eb60000080800006a
:10512800b848000037b400008bfd000010480000ac
:10513800cfca000071df0000a456000007d10000ac
:105148001ad70000174c0000d9ed0000aebd0000d2
:105158005d50000037f80000fcbb00000c3c00006c
:105168009816000016ab00006f3700001c200000e6
:10517800f0b20000ee1b0000f93a000044ac000059
:10518800fe110000d23e000027be0000acf3000074
:10519800fb510000f4c0000055e90000ca4c0000b3
:1051a800dfda000042cd0000e655000005e400000b
:1051b80076c700008f460000fa01000036b20000f2
:1051c800c8450000d50c0000cab40000ad2d000091
:1051d800c929000033a900009625000044310000c9
:1051e800ebb5000051080000774800007eb40000cd
:1051f8004bfd0000554800008eca0000b4df0000d7
:105208006156000046d10000d8d60000564c000078
:1052180098ed0000ecbd00001d50000073f8000080
:10522800bebb0000443c0000591600004dab000016
:105238003037000053200000b5b20000221c0000e7
:10524800c13a000077ac0000c8110000033f00001d
:10525800f2bd0000dbf30000c851000023c10000cc
:1052680025e90000f94c0000b3da00006fcd00001a
:10527800bc55000030e400004ec70000b7460000ef
:10528800d50100005bb20000a6450000f80c000044
:10529800acb40000cf2d0000ad29000051a90000da
:1052a8007c2500005f310000d4b5000068080000cc
:1052b8006248000094b400003afd0000684800000d
:1052c8007fca0000c3df00005456000051d100001f
:1052d800ced600005c4c000092ed0000f0bd00004e
:1052e8001b50000073f80000bfbb0000413c0000e9
:1052f8005d16000044ab0000383700004520000070
:10530800c0b20000121c0000d23a000064ac0000d9
:10531800dd110000ec3e00000abe0000bff30000f3
:10532800e351000002c1000045e90000d64c00002e
:10533800d8da000048cd0000e655000005e400007a
:105348007cc70000874600000602000027b2000064
:10535800dd450000c00c0000e8b40000932d0000fb
:10536800ee29000011a90000c12500001831000035
:105378001db600001d080000af48000045b400003d
:105388008cfd000015480000d6ca00006bdf000045
:10539800b0560000f4d000002cd70000fb4b0000f2
:1053a800f5ed000089bd00008350000009f80000f9
:1053b8002dbc0000d13b0000d0160000cfaa000091
:1053c800ae370000cb1f00003bb30000941b000069
:1053d800503b0000e3ab000061120000673e000094
:1053e80092be000035f300006f52000073c0000049
:1053f800d4e90000434c00006cdb0000b3cc000093
:105408007f5600006ce300001ac80000e845000061
:10541800a802000083b1000082460000190c0000b9
:1054280091b50000e92c00009c2a000063a8000048
:105438007226000067300000d0b600006807000040
:10544800654900008cb3000045fe00005b47000082
:1054580093cb0000aede00007057000034d000008f
:10546800efd70000364b0000b9ee0000c3bc0000c7
:105478004a51000040f70000f7bc0000073b00005d
:105488009c17000003aa00007c380000fc1e0000e6
:1054980009b40000c31a0000213c000012ab000050
:1054a80033130000953d000065bf000062f2000064
:1054b800425300009fbf0000a8ea00006d4b0000a7
:1054c80041dc0000dccb00005557000096e20000ec
:1054d800f0c80000134500007d030000adb00000d7
:1054e80056470000430b000065b60000142c00006e
:1054f800702b000091a7000046270000962f00009f
:10550800a0b7000098060000344a0000bdb20000b1
:1055180012ff00008e4600005fcc0000e4dd0000b2
:105528003a5800006ccf0000b6d80000704a00005e
:105538007eef0000febb00000c52000080f6000069
:10554800b5bd00004b3a0000581800004aa90000f9
:1055580033390000481e0000bbb40000121a0000d6
:10556800ce3c000065aa0000dc130000ef3c000000
:105578000bc00000c0f10000e353000001bf0000b1
:1055880043eb0000d34a0000d6dc000049cb000002
:10559800e657000008e200007cc900008c440000c7
:1055a800030400002cb00000d4470000c80a000023
:1055b800dbb60000a02b0000e02b000025a70000b0
:1055c800af270000312f000003b800003a060000a2
:1055d8008e4a000066b2000064ff00003d460000ed
:1055e800abcc00009ddd00007f5800002dcf0000ef
:1055f800f3d80000394a0000b1ef0000cebb00002c
:105608003652000058f60000d8bd00002d3a0000c0
:105618007118000036a90000453900003b1e000043
:10562800c3b400000e1a0000cc3c00006aaa0000b7
:10563800d2130000fd3c0000f8bf0000daf10000c2
:10564800c753000023bf00001deb0000fd4a000007
:10565800a7dc00007bcb0000ad57000046e200004d
:105668003ac90000d3440000b80300007eb000002f
:105678007e470000220b00007bb60000042c0000cf
:10568800762b000092a700003d270000aa2f0000fb
:1056980087b70000bc060000094a0000f0b200000d
:1056a800d5fe0000d146000011cc00003ade000013
:1056b800dd570000d5cf000048d80000ea4a0000b6
:1056c800fdee000088bc0000765100001bf70000ca
:1056d8000fbd0000f93a0000a01700000caa000056
:1056e8006b3800001b1f0000e0b30000f71a000031
:1056f800e03b00005aab0000dc120000f53d000062
:10570800fcbe0000daf20000c35200002cc000000a
:1057180011ea00000f4c000091db000093cc000060
:105728008f56000065e3000015c80000fb45000027
:105738008c020000aeb100004d460000580c00007d
:1057480041b50000402d0000352a0000d5a8000012
