:020000040000fa
:08000000188904000000000053
:020000040000fa
:10000800a2890000a2890000a2890000a28900003c
:10001800a2890000a2890000a2890000a28900002c
:1000280058890000a2890000a2890000a289000066
:10003800a2890000a2890000ac880000a289000003
:10004800a2890000103100005231000078a9000098
:10005800a2890000a28900008c890000a289000002
:10006800a2890000a2890000a2890000a2890000dc
:10007800a2890000a2890000a2890000a2890000cc
:10008800a2890000a2890000a2890000a2890000bc
:10009800a2890000a2890000a2890000a2890000ac
:1000a800a2890000a2890000a2890000a28900009c
:1000b800a2890000a2890000a2890000a28900008c
:1000c800a289000096360000a2890000a2890000db
:1000d800a2890000a2890000a2890000a28900006c
:1000e800a2890000a2890000a2890000a28900005c
:0800f800a2890000a2890000aa
:020000040000fa
:10010800a2890000a2890000a2890000a28900003b
:10011800a2890000a2890000a2890000a28900002b
:1001280058890000a2890000a2890000a289000065
:10013800a2890000a2890000ac880000a289000002
:10014800a2890000103100005231000078a9000097
:10015800a2890000a28900008c890000a289000001
:10016800a2890000a2890000a2890000a2890000db
:10017800a2890000a2890000a2890000a2890000cb
:10018800a2890000a2890000a2890000a2890000bb
:10019800a2890000a2890000a2890000a2890000ab
:1001a800a2890000a2890000a2890000a28900009b
:1001b800a2890000a2890000a2890000a28900008b
:1001c800a289000096360000a2890000a2890000da
:1001d800a2890000a2890000a2890000a28900006b
:1001e800a2890000a2890000a2890000a28900005b
:0801f800a2890000a2890000a9
:020000040000fa
:100200004628040000000000142c04000000000038
:10021000e02c0400000000001c3904000000000075
:100220000e6d040000000000326d040000000000ac
:10023000fa6c040000000000226d040000000000c1
:10024000ea2a0400000000003c75040000000000e1
:10025000242a040000000000727304000000000063
:100260007a2a040000000000507204000000000020
:100270005a73040000000000889fbe0080047800cc
:10028000e03c81000000e00004003a005a00070052
:100290000084eb000000e00008003500e83c81002d
:1002a0000900e00005003200090044005200070088
:1002b0000000e00001003d000084eb000800780031
:1002c0004f04be00000006000c02e20004003d00e6
:1002d0000f42ab00020032000f02ab00feff320003
:1002e0000040da00feff370000c0da000000060020
:1002f0000a00fa00e20f500034003e00f03c81009a
:10030000e10f500003003200e20f500011003a00ec
:100310000c003700c32020000300e00001003a0079
:100320000040da000c02e200020035001422ef0067
:100330000de2a8000f42ab000d003a000f42a800ea
:100340000b003700632120000300e00001003a00a9
:100350000040da001602e200020035001e22ef0023
:1003600017e2a8001942ab0001003a001942a800a8
:10037000820178000b0037003102fb00e10f5000d2
:1003800004003a000f22ab00feff3a008410880000
:10039000030037001922ab00feff3a00d41088009a
:1003a0008301e9000300e000f3ff3a00e10f500091
:1003b00003003a000f02ab00feff32000b003700d3
:1003c0001902ab00feff32000800370033002000a6
:1003d000b3bf9f00c0bf9f00d1bf9f00e2bf9f007f
:1003e0006a805700c0ff07006fb9970002007800cd
:1003f0000080fa0000000600800078000100e000a4
:1004000003003a0060402100e03c89000000050044
:100410000080eb0062602100828f500002003e00ed
:10042000e13c89000000eb0000000600839f6800ab
:100430000100e00002003d0060001000e0801800b4
:100440000300e00002003d0060011100e08119009e
:10045000c00207004f00e00002003b0060001000f7
:10046000e0801800000006004f89de00820178005d
:10047000c8023700889fbe008a9fbe008c1f78008c
:10048000d4020700db02330003866c006450e100f5
:10049000240032006420e100270032006150e100b6
:1004a000220032006120e100210032008b854200f1
:1004b000eb07b1000134b800003ab800080442006c
:1004c00089844a00013ab8000030b80088804000b2
:1004d00009014a0004003300000040008180480008
:1004e000020149008b05e900c909dd0083017000a4
:1004f0000100320013002000c814de004814dd00a3
:100500004709de001200b200c808de00088470004f
:10051000c802070001f0a1000cf0a70001f0a00044
:10052000bd0237006120e100bf0232000801be00b9
:100530000200be00f7ff37006150e100fcff3a0007
:10054000b9023700889fbe008a9fbe008c1f7800ca
:10055000a0020700a702330003866c006450e1008c
:100560002e0032006420e100330032006150e100cf
:100570002f0032006120e1003100320085855500f6
:10058000eb07b00009002000080420000500370038
:100590000804440089844c000a003100060343002b
:1005a00087834b000001530081815b00f8ff33001b
:1005b0000203be000800a0000804440089844c0027
:1005c000f6ff3900c639dd008301730001003200f7
:1005d000130020008904d1000884d3000998a300e7
:1005e000050032000800a7000300a0008904d10024
:1005f0000884d3008b05e8008904d1000884d30067
:100600000001eb000281d2008a02070001f0a10084
:100610000cf0a70001f0a0007f0237006420e10089
:10062000810232000801be000200be00f7ff370061
:100630006120e1007c0232006000b800f3ff370067
:100640000000200001f82700f0ff37000001be0085
:100650009e0207000470a70003f0a1006509b10025
:10066000160032000d0035006828e1000600350054
:10067000f0ff2f00f1ff27000300e00013003b0014
:1006800001002800000005000000400081804800b3
:100690008502e900fcff3a0008003700f88f4200ad
:1006a00002003c008000eb00000005008100d1004a
:1006b0000080d3008502e800fcff3a000300e00060
:1006c00002003b0060001000e080180000000600ff
:1006d00003f0a200889fbe008a9fbe008c1f780096
:1006e0003c020700430233006450e1004f00320037
:1006f0006420e1005200320003826c0007003b00de
:100700000905d0000306d000820f54000c065d00de
:1007100002003900020032008901780003067800e7
:100720008582550004003d000003fd008103fd00ab
:100730008502ea008b854200840f720002003b00b4
:1007400060001000e08018006011b8000005eb00a8
:100750007a28e1000a00390006007800c75ddd0054
:10076000f707b200878075002d0037008281710085
:100770000a017800610560008180d1000080d3000b
:100780008502e900f9ff3b00060440008784480029
:1007900002003b0060041400e0841c000988a300f0
:1007a000070032008a81710082817100610164005a
:1007b0008904d1000884d3008b05e80017003700b6
:1007c0000978a30013003a000b00e0001300340086
:1007d0008b05e9000804440089844c000a44740035
:1007e0000978a3000d003a000b00e0000700340078
:1007f0008b05e9000804440089844c0001003a009c
:100800000b0020000978a300f7ff32000001eb0085
:1008100002003700828171000a017800050207009a
:100820000cf0a70001f0a000fb0137006420e100fc
:1008300002003a00838f6c00fb0133000801be0008
:100840000200be00f40137000001eb003402370063
:10085000140020009b02370004002000990237009a
:10086000f4ff2f0097023700889fbe008a9fbe00ca
:100870008c9fbe00ae020700850478000005be0014
:100880006420e10049003e006220e10003003200e4
:10089000090035000bf8a300440032000bf8a30058
:1008a000080032001002200030498800f0ff2f00bd
:1008b000f1ff27003d00370001f82f000000200065
:1008c0003a0037003d00070081ff07000006be0028
:1008d0000a00be00324f200053f32300e0ff070060
:1008e000060034000c00be003400070078ff07004b
:1008f0000006be000a00be00020037008904e900bd
:100900000c00be002d000700dafe07002b000700d8
:1009100070ff07000001be000c00be0009ff0700c9
:100920000005be000001be00d2fe07000006be00aa
:10093000a2f32300430d2c0066ff0700809fbe003a
:100940000c00be00d2e32700d3f02b00c9fe070045
:100950004f01be00fbfe07000006be000a01be00fc
:10096000c4fe07000a01be005aff07000006be00d1
:100970006148b900bcfe07000005be00320828002f
:10098000e3952b00bbfe07000c01be0051ff0700e2
:100990000006be000a00be000200280013f3230078
:1009a000b4fe07000c01be004aff07004f06be0060
:1009b0004f05be004f04be000000060003f02300f8
:1009c00002000500889fbe008a9fbe008c9fbe006b
:1009d0000004be00bd0107000800be006420e10065
:1009e00048003e005500320072212700132b2400de
:1009f0009bff070047003c000800be00c2ec280037
:100a0000e32c2c0092ff0700470035000800be00d1
:100a100001f0a10002002000033823008cff070032
:100a2000430035000800be00b2a32a0083fb230068
:100a300090fe07000200200003f0230001f0a70051
:100a400003f0a00023ff070000ff07000005be0021
:100a500085fe070001f0a2000006be00020028008b
:100a600013f3230083fe07000801be0019ff0700ef
:100a7000809fbe000c00be0032082800e3952b00ca
:100a80007cfe07004f01be0012ff07000006be00fb
:100a90000001be0077fe0700809fbe004241250096
:100aa00083b8230073fe07000200200003e8230040
:100ab00008ff07000c01be006efe07000006be0026
:100ac0004f00be00f2f92b00c3d4230069fe0700db
:100ad0000200200003f02300fefe07000c01be0010
:100ae000fbfe07000001be000c00be0095fe0700e3
:100af0000200200003f02300f6fe0700610145001c
:100b0000180207004f06be004f05be004f04be008e
:100b10000000060001f8270000002000220220004b
:100b200032498800f7ff37006000b800fbff37004c
:100b300001f8230000002000f2ff370009f8a300ad
:100b4000f0ff32006000b800eeff37000001be0089
:100b50005e0107000470a70003f0a10003f8a300e2
:100b600013003a006509b100100032000900350099
:100b70006928e1000200350001002800000005009e
:100b800000004000818048008502e900fcff3a0037
:100b900000000600f88f4200050035008100d100fa
:100ba0000080d3008502e800fcff3a000000060048
:100bb0008000eb00000005006011b8000b02370058
:100bc0000c00fa00889fbe008a9fbe008c9fbe006a
:100bd000000107000206be00840578000200be0086
:100be000020020003002070005003a008b02b3002b
:100bf000120020002c02070001003a00f8856d0069
:100c00000c01be00c60007000800be009b003200b9
:100c10000b08a3009e003a000df0a7000be0a00017
:100c200009f0a7000bf0a00009f0a1000801be0028
:100c3000bb0007000bf0a6009500320001003c004d
:100c40000bd0a0008acf7500b20033006000b8005e
:100c50006250e10099003900a1003e000b28a3007a
:100c6000a2003a000bf8a300060032000b58a300c4
:100c7000a70032000801be00a90007000800be005e
:100c8000940032000800be00a90107000004be0065
:100c9000050578000bf0a7000b30a6000bf0a100b3
:100ca0005b079800324f200053f32300e8fe070053
:100cb00005003d000800be0012002000a901070049
:100cc0000004be000a05e9004a0798006150b90017
:100cd000e5fd0700008fbe000c01be00e5fd07002a
:100ce0005afe0700300798000100e00002003d00b6
:100cf00060001000e0801800f2ff2700820f500013
:100d0000e08f580064003e000c00be004ffe07005c
:100d100020079800f2072000820f5000e08f580053
:100d200005003c0012f82f00f3ff2f00820f500047
:100d3000838f580009003d000a00e00003003200e4
:100d400001003c000201ea00020578006000b800e2
:100d5000200798003a079800190037003e009000dd
:100d60006100b900c0fd0700809fbe000c00be00fe
:100d70004109dd004811de007208b100ca01070018
:100d80000005be001e01be00bafd07004f01be00f7
:100d90004ffe0700809fbe000c00be000a01be008f
:100da0004bfe07001e01be00b2fd07004f01be0052
:100db00048fe07008221270013f32300adfd070042
:100dc0000005be002e0090006100b900a6fd0700de
:100dd00001f0a2000c01be003efe07000006be00ae
:100de0000800be00a0fe07000c01be00a1fd070028
:100df0000a01be0037fe0700809fbe004a000700c0
:100e00002e0590000af0a7000a05ea000500370049
:100e10000800be000801be0096fd07000004be00e9
:100e20000c00be000801be000a00a70091fd0700eb
:100e30000006be000a05d100f5ff3a005e019000f1
:100e400002e0a600030037000001be0036000700e4
:100e5000bcfd07000004be004f00be00d9fe070025
:100e60000801be0083fd07003e0190003d01070020
:100e7000de0590000bf0a70001f0a2004f06be00b7
:100e80004f05be004f04be000080fa0000000600bf
:100e900025000700f9ff3700270007006000b800b1
:100ea0000bd0a7000bc0a0000be0a7000bc0a20056
:100eb0000bc0a70001f82700f0ff37000df8a300d2
:100ec000020032001e000700190007000bf8a30003
:100ed000eaff32000b30a70001f0a200e7ff370065
:100ee0000df8a300f9ff3a00f7ff37000801be0034
:100ef0000b000700e6ff320001003c000df0a200ed
:100f00006000b8000df0a70009000700dbff370004
:100f10000b000700f1ff2700f0ff2f00d7ff37007d
:100f2000010007004afe370001f823000000050019
:100f300001f8270000000500200220000100370012
:100f40001002200030498800000006000001eb007c
:100f50007c0137006022b800060220000000d000ab
:100f60008180d2000482d2008582d2000000a000dd
:100f70000202520083825a00030031000202420042
:100f800083824a000000a1000603e900f3ff3a0053
:100f900000000600881f7800030478000300e000ca
:100fa00007003d0060001000e0801800600119009b
:100fb000e081190002003b0001f02d000300370022
:100fc0000a01070008f0a70001f0a0004f04780014
:100fd000000006000004be003c0007000003be0045
:100fe0000405be000200be0038000700844f7500f3
:100ff000000006000200be006450e100050036005b
:101000006420e100020036000968a30001003a00f4
:101010000800be000160a0004f0678004f05be002a
:101020004f04be0000000600f0ff2f00f1ff270074
:10103000f9ff370081002000618055000b003d0062
:101040000b00200061fe2f000100e1001d003400b4
:1010500082817100610164008904d1000884d30099
:101060000000e800faff3a0071002000610064000f
:1010700003007000020060000900320061044400b7
:10108000e0844c000988a500050032008b05e800cb
:101090006808e10002003a008904d1000884d30006
:1010a000f20f20000258e10005003d00c75ddd00a1
:1010b000f907b2008980750008007800000006007a
:1010c0000bf827008b00780000000500c70ade003f
:1010d000f107b200f50fb20008003200e1cf420084
:1010e000020032000170a00024000500810f700092
:1010f000010032000408050044000500810f700063
:1011000002003a00140005008502e90000004000da
:1011100081c04800fcff3b000170a00024000500d6
:10112000889fbe008a9fbe008c9fbe00820578000b
:101130000004be00e5ff07000800be006420e100d7
:101140000700390002003a00f1ff2700f0ff2f00ee
:101150000160a000120220003249880055003700cb
:101160006120e10003003a000b00a70001f8230012
:101170005000370001f0a100020021009364240018
:10118000b3fd07000800be0004003500b2fd2000da
:10119000930c2400520107000004be000005eb0080
:1011a0000b00a6004f0dde0001f0a1000004be0000
:1011b00032982f0023ea2300aefc07000001eb0069
:1011c00003f023000b00a70003f8230041fd0700f4
:1011d0001efd07000000a7000a00a200a2fc0700f5
:1011e0000b00e000030032000200200003f02300a7
:1011f00037fd070001f0a2000006be00020020003b
:10120000930424009bfc07000801be0031fd070089
:10121000809fbe000c00be0022a22a00d3a723009c
:1012200094fc07004f01be002afd07000004be0029
:1012300001f0a100020020000398230084fd0700b4
:101240000800be00190035000001be0089fc07003f
:101250000006be00b2c52900e362230085fc07003a
:1012600022222b00f3942b001afd07000c01be0074
:1012700080fc0700e273280083c0230015fd0700ef
:101280000c01be007bfc070042aa2a00a3e22b004f
:1012900010fd07000c01be0076fc07000801be002f
:1012a00074fc07000801be000afd07000a00a70041
:1012b00001f0a2004f06be004f05be004f04be0065
:1012c00000000600889fbe008a9fbe00841f780031
:1012d00040ff07004f00780011003300f0ff2f009f
:1012e000838f6c0006003b00040565000a00a70020
:1012f0000800370009f0a6001000200008003700a1
:10130000820f5400838f5c0003003900100020001e
:1013100001003e000000200009f0a7000000ea00e4
:101320004f05be004f04be000000e00000000600b4
:101330000003be0065ff07006220e10002003200ea
:101340000600be0005000500e507b100f107b20088
:1013500004f023008480700007f0a70001f0a000d3
:10136000240005000003be0058ff07006220e100d2
:10137000020032000600be000000060085024100a7
:10138000e30f20000328e10005003c00a3fe2f002e
:101390000328e10007003d000500200001003700a0
:1013a000f50f200020022000304988006000b800be
:1013b00008003700130020008381520005003d0023
:1013c0008100d1000080d3008301e800fcff3a00d7
:1013d00005002000c72add00f107b20085807000fb
:1013e00007f0a70001f0a00000000600889fbe00e3
:1013f0008a9fbe00008270000402710004827100a6
:10140000260032000004be000200be006011b800d9
:101410006b092000950220000182cf000a003900ec
:101420000541b1000082cf00070039000541b1003d
:101430000982cf00040039000541b1000882cf00c5
:10144000010039000541b10005425200120032008e
:101450000a003b0082817100610164008100d100bb
:101460000080d3008984d3000884d3008b05e80072
:101470000442e800f7ff3a00070037000804440080
:1014800089844c0000004800818048008b05e900f9
:101490000442e900f9ff3a00e6fe07004f05be00ee
:1014a0004f04be0000000600889fbe008a9fbe0059
:1014b0000003be0005ff0700850578008281520009
:1014c000020020006220e10004003a00f307b100ae
:1014d000040035007718e100040035000600be0066
:1014e000140037006000b8000f003700f50f20002f
:1014f000faff2f008502d1000a85d3008301e9009d
:10150000fcff3b008184620000046500890f7400c9
:10151000f2ff32008582ea000a85ea0081846200d7
:1015200000046500c3fe070007f0a70001f0a0005b
:101530000081eb000200e0004f05be004f04be003a
:1015400000000600889fbe008a9fbe008c9fbe00e0
:101550000206780001f0a7000cf0a0000004be0015
:10156000dafe07000800be006420e1000700390031
:1015700002003a00f1ff2700f0ff2f000160a000f9
:1015800012022000324988005100370009f0a10002
:101590000800be000200200003f82300b0fc070092
:1015a000f4ff3c000800be00020020000398230066
:1015b000a7fc07000800be00300035000200200034
:1015c00003f02300a6fc070005003c000800be0055
:1015d0000801be00a7fb07000005be000e00370093
:1015e0000c10a2000000200001f823000801be003a
:1015f00037fc07000200200003f023009dfb0700da
:101600000005be00380007000200200003002c0087
:1016100098fb07000004be000a00be00b2d02800fc
:10162000130b2c002bfc07000a01be0091fb0700e6
:10163000020f2500330b240026fc0700809fbe000c
:101640000a00be005206220013f02b0089fb07009f
:10165000b2662100f3f623001efc07000a01be005b
:1016600084fb07004f01be00b6fb07000801be0067
:1016700080fb07000801be0016fc07000c00a70055
:1016800007003700b2fd200093fc23000c10a700d8
:1016900010fc07000cf0a70001f0a2000c003700be
:1016a0000cf0a7000200370001f0a2000400370090
:1016b000b2fd2000930424000c10a60003003700a4
:1016c000b2fd200093fc23000c10a70001fc0700d2
:1016d0004f06be004f05be004f04be0000000600ce
:1016e0000400200035003700889fbe008a9fbe009e
:1016f0008c1f78000004be0074fe07000478a3006d
:1017000026003a006120e1002500320009f8a3001c
:1017100025003a006420e10021003200f507b10005
:101720000508a3000200320000004000818048004c
:101730006044b800031020000200200000004000b8
:10174000818048000805440089854c000a05410055
:101750008b8549000a0550008b8558000300330033
:101760000a00be0002047400838474008301d10067
:101770000281d300830f7100f0ff3a008904d10089
:101780000884d3006001490082017800c1adde0009
:10179000fb07b00027fe07001ffe37000960a0000e
:1017a0000800be001cfe37001202200032498800eb
:1017b000f0ff2f00f1ff270017fe3700889fbe00c3
:1017c0008a9fbe008c1f78004f26dd0001fe0700b7
:1017d00008fe33006120e100430032006250e10066
:1017e00041003e003e0039006420e1003c00320030
:1017f000058255000f003b000402e80038003a0063
:10180000800f5300818f5b00350034000800be005c
:1018100003f0a10001f0a60003f0a0000cf0a70067
:10182000acfb0700fcfd37000603430087834b0039
:101830000c4646000005530081855b000200330022
:101840000a03be000c00a0000402e900f6ff3b0002
:10185000850578000602430087824b0004003a00a9
:101860006000b80009f0a70001f0a000eafd370011
:101870000002520081825a000704e0000400330095
:101880000603430087834b008b05e900faff37000e
:10189000090578000604be000203be006011b8000e
:1018a000e4fd0700e00f5200e08f5a00070035000a
:1018b00002003c000c08a300040032000601be0038
:1018c00003f0a0000cf0a70082fb07000a85680067
:1018d00001f0a1000af0a70001f0a000cefd370042
:1018e0000800be00ccfd3700100220000cf0a6005e
:1018f00030498800ccfd3700020ab900001bb9004e
:101900000200b80081004200810043000000060090
:1019100081037800edfd07000001be006000b80003
:101920000478a30013003a006220e10015003e0095
:101930000d0039008301d1000281d3008180d300e2
:101940008301d1000281d3008180d3008301d100c3
:101950000281d3008180d3000538b000c42add00a5
:10196000f300b2008381720007f0a70003f0a0002b
:1019700000000600f3ff2700f2ff2f006110b900fe
:10198000fbff370003ff2700f7ff37008f1fd10051
:10199000010107008f87e9000000e0000000060059
:1019a000801feb00fc0007008f87e9000000e000cb
:1019b000000006001400fa00889fbe008a9fbe0047
:1019c0008c9fbe00040678000004be000205be0025
:1019d000680047000a90be000890be00170107008b
:1019e0006200e1000800be000a01be000400200001
:1019f0000b003a001e029000e43fb1006e00900020
:101a0000fe0090000e0990009e099000f300b200c5
:101a100005fe2300858171000bf0a70003f0a000f4
:101a2000040e7800ab003700809feb00da0007005f
:101a30008f87e9000000e000000006001400fa00b3
:101a4000889fbe008a9fbe008c9fbe000004be001f
:101a50000205be00680047000a90be000890be0064
:101a6000f60007000070a7000bf0a1000bf8a30020
:101a700020003a009e0990000e099000fe009000a0
:101a80006e0090009e029000344320008482520039
:101a9000900032000a003c00b4fc2f000428e10052
:101aa000140034008301d1000281d3008180d3006f
:101ab0000080d3008502e800faff3a008500370075
:101ac000b40020000428e10007003c0000004000b2
:101ad0008180480002014900838149008502e900b4
:101ae000faff3a007b0037000300280002002000c4
:101af000010037006011b8006000b80075003700c1
:101b00002800fa00889fbe008a9fbe008c9fbe00fe
:101b100003866b005b0007006400e10044003200b4
:101b20006408e1004a0032006100e1004600320032
:101b30006108e10049003200ec0647006000b8008f
:101b40003d02be003d03be00f48657006011b800a0
:101b50003d04be003d05be007d0320000b003700a4
:101b60000000a0008d06e9001300320004024200cc
:101b700085824a0006034b0087834b00000040002b
:101b80008180480002014900838149000802520017
:101b900089825a000a035b008b835b00f0ff3b00e5
:101ba0000802420089824a000a034b008b834b00e3
:101bb0008d06e900edff3a00848272008682720091
:101bc000f707b20087827200010032001500200082
:101bd0001e0490003e0b900006035400e63fb00048
:101be0000368a300070032000000a7000500a00062
:101bf0008301d1000281d3008180d3000080d30013
:101c00000603e8008301d1000281d3008180d30064
:101c10000080d3000002eb000482d20032000700f3
:101c200003f0a1000cf0a70003f0a000290037008a
:101c3000640247006408e100230032003400be0063
:101c40003401be00f6ff37006108e1001e003200db
:101c50006011b8006000b800f1ff370003ff2700f3
:101c600002002000fbff37006011b8009a00370027
:101c700007f0a200d8083700b6fc07000400be0039
:101c800000000600680447000294be000094be00f5
:101c9000fc0447008694be008494be0009007800ce
:101ca00066000700080078006400070099007800cb
:101cb000814f70000b003b000800be00b100070020
:101cc0004f00b10003003700f3ff2700f2ff2f00a1
:101cd0006110b9004f06be004f05be004f04be00a4
:101ce0000080fa00000006001800200057002000c5
:101cf000080453000d003d000600200097fc2f0053
:101d00000740e1001e00340084827200610260001e
:101d10008301d1000281d3008180d3000080d300f1
:101d20000804e800f8ff3a00470020006104600062
:101d300005047400040464000d00320061004000da
:101d4000e080480060014900e081490003b8a50037
:101d5000070032000603e8006538e10004003a009d
:101d60008301d1000281d3008180d3000080d300a1
:101d7000f87f20000830e1000300350008037800f8
:101d80006000b8006011b8004433dd00f300b20019
:101d90008301730000000600889fbe008a9fbe007a
:101da0008c9fbe000404be000605be00809fbe00de
:101db000829fbe0081000700040678000800be0074
:101dc0000a01be007d000700840678004f03be00b4
:101dd0004f02be008d4f76007fb097001300330096
:101de000f0ff2f008b8f6b0006003b000d06660096
:101df0000c00a7000a00370007f0a6001000200022
:101e00000a003700880f5200898f5a008a0f5b0042
:101e10008b8f5b00030039001000200001003e00a2
:101e20000000200007f0a7000000ea004f06be00f7
:101e30004f05be004f04be00000006008000780081
:101e40005002be005003be004439de00f700b2006d
:101e5000f37f200003016100090032000218e10055
:101e600016003a00850172008301730083817300bc
:101e70000008200015003a00400020001300370041
:101e800085017200830173008381730005003a00ad
:101e900004a8be0006a8be00100020000b003700fa
:101ea0000201e9000402420085824a0006034b0059
:101eb00087834b000748a300f9ff32000740a000ca
:101ec00004a8be0006a8be002000200080009800e4
:101ed0009200980000000600889fbe0000827000fb
:101ee0000402710004827100240032003643200095
:101ef000c50020008383cf000a0039000541b100ee
:101f00008283cf00070039000541b1008183cf00f3
:101f1000040039000541b1008083cf000100390081
:101f20000541b10085c353006022b80012003200a1
:101f30000a003b0084827200610260008301d100cc
:101f40000281d3008180d3000080d3000603e80023
:101f50008743e800f7ff3a00070037000000400021
:101f60008180480002014900838149000603e9009d
:101f70008743e900f9ff3a005bff07004f04be000a
:101f800000000600e48240001078a3000700320041
:101f9000640240001178a3003400be001401be00aa
:101fa000040032000330a700000006003500be0028
:101fb0001501be000330a0000000060005ff270049
:101fc00005826100070032000428e10001003200b0
:101fd000240005000600070001003a004400050047
:101fe0000408050002000700f9ff3a00140005008c
:101ff0006f826100810270008502710085027200ab
:1020000000000600889fbe008a9fbe008c9fbe0015
:102010004400f800070f2000270288003400f80071
:1020200007f02f000338e10004003200270280008f
:102030004700b30027028800a3018800811f7800b1
:1020400019002000804cdd001300200002047800fd
:10205000800678008904d100424edd000105780039
:102060000302e90004800800170000008a0546000a
:102070004218dd000902e900048008001000000099
:10208000000000004620c3003b025200df35c100c3
:10209000080440001381c200ab825200264dc500e7
:1020a0003e85c400bb00cd00bb80cd003a00ca0015
:1020b0002a80ca000700c9000580c900ba00cd0007
:1020c000ba80cd000a054600020478008301d000e2
:1020d0008d06e900dfff3c004f0078003400f90076
:1020e0004400f9004f06be004f05be004f04be007d
:1020f000000006004600f8005000f8000220200012
:102100003202880002002800130020008019dd0040
:1021100002817100820288000100780001017800cc
:1021200026002000470020008301e900038008000a
:10213000070000000110e100040034001102be009d
:1021400092087800e2307b000489be00878040005e
:10215000121978005000f9004600f900000006004e
:10216000889fbe008a9fbe008c9fbe00a13e2100ba
:10217000529f80000200e0000b003a0064814000a2
:10218000529f8800a29f8800a1009800919f88001c
:10219000214190000204a000a240980061419000fb
:1021a0000204a000e2409800670440004244de00c0
:1021b0004244dd00949f800061402100696021005d
:1021c000818454002d002000110009008d04d800e6
:1021d000800678000886e8000c0646008001eb00c7
:1021e00002003700130020000b027800a44090008a
:1021f0000108a300020032000a003700120a78002a
:1022000014017800a24090000108a300fbff3200f7
:1022100088004200810f5100020039000800e000f0
:1022200042003d00940578000b00a100848f55000a
:10223000edff3e00e18f5100eaff3a008d0f5400a0
:1022400002003600890f5400140039006141b800c3
:102250006148b900b4ff2f000500200000005200c3
:1022600081805a00800f5100818f59000200350093
:10227000640544000a003700604021009a60210094
:102280000005550008054500110009000985d80022
:102290000980b90000057800010037000c057800be
:1022a0000a007800f4f70700e10f400005003a004b
:1022b000640544000a007800eff70700e10f4000d2
:1022c0002b003200a19f800080087800a19f800031
:1022d000e481400021419000830f50000200320051
:1022e0000204a000010037000204a100a2409800ef
:1022f000640555000a0540000a087800aa9f880076
:10230000a13e2100010d7800a29f8000a240900014
:102310000104a00021419800a04090000104a10008
:10232000214098008001eb00afff3700919f8800ab
:10233000810f5100070036001101be00b29f8800d6
:10234000c39f8800940878000041eb00919f8000b3
:10235000a2409800939f8000030a7800a440900058
:102360000104a000214298006400420001003700ef
:102370000000eb004f06be004f05be004f04be003c
:10238000000006000000e000080032006400500079
:10239000919f8000810f500001003100909f8800c4
:1023a000a04090000104a100214098000000060018
:1023b000889fbe008a9fbe000004be000900e000a6
:1023c00007003a000000eb000800e0003600320091
:1023d00008007800ebff07000000eb003200370038
:1023e0000800e00003003a00090078005cff0700e5
:1023f0002d003700640054009005780068f89700bd
:102400000008a3000200320008007800ddff07008a
:102410000900780052ff0700800478000000eb00fc
:102420000900e00020003200888f54001b003200b9
:1024300069bd97000905550042d5de008885550025
:10244000c2ddde000a0178008b0f55000100360066
:102450000b0178004211dd00880078000900780047
:1024600034000700888f54000e0031004255dd0013
:102470000a854400880f55000a00360008045500fc
:1024800042c4de004244dd0008844400b09f800066
:10249000c19f8000008cbe00020037000800780059
:1024a00001003700090078004f05be004f04be0050
:1024b00000000600000478002500070008007800ee
:1024c00081f70700800078003104e000feff3a0049
:1024d0000080ea0000804000000006000c00fa00c6
:1024e000889fbe0000047800f0ff2700d0bf9f0047
:1024f0008004eb0099bf9f0088bf9f00a8bf9f008a
:10250000200c2000b0bf9f0078815700cfb097000b
:1025100070805700d70007000fb89700094878006f
:102520008fb89700088050004f04be000080fa006a
:10253000000006008001780002003700b1597800e1
:102540000201e9000200e000fcff3a000000060082
:10255000000006000800fa00889fbe008a9fbe00a7
:102560000084fb00d1c6b300814f50003400360018
:102570004b062000110009000b84d800810578006b
:10258000720040004300dd00c9ea200000804400e2
:102590006022b8000600200007fe23005001be00a4
:1025a0004000be00160607000002be000203be0087
:1025b00084bf9f0095bf9f00a6bf9f00b7bf9f002d
:1025c000aa002000110009008a85d8008005780043
:1025d000e9854500c35ddd008b8544003b02be00fc
:1025e0002b03be000fb897009fb897002fb9970034
:1025f000bfb99700020607000002be000203be003a
:1026000084bf9f0095bf9f00a6bf9f00b7bf9f00dc
:10261000110009000a84d800010478004344dd0059
:10262000888444003902be002903be000fb8970019
:102630009fb897002fb99700bfb997001d003700ca
:10264000ea4f500013003600aa00200011000900d4
:102650000a84d80001057800690440004344dd0085
:10266000c9ea2000088444006022b8000600200067
:1026700007fe23003800be002801be00e005070069
:102680004355dd008a8444003902be002903be00a0
:10269000080037004344dd00c0ea20000804400081
:1026a0006022b8000600200007fe23003800be00ac
:1026b0002801be00d20507004f05be004f04be0032
:1026c0000080fa00000006000800fa00889fbe00a3
:1026d0008a9fbe00d1c6b3000004e00023003d0085
:1026e0000040ea000004fb00814f50000a00340063
:1026f00042062000110009000204d800a9002000b1
:10270000110009008900d800e9004000c308dd007d
:10271000caea200021003700ea4f500010003400c0
:10272000a2002000110009000204d8000101780075
:10273000690040004300dd00c1ea20000080400045
:102740004311dd00828040003102be002103be0043
:102750005001be004000be00a90507003800370048
:102760004344dd00c0ea2000320037000004fb00d3
:10277000814f500023003400420620001100090060
:102780000204d800a9002000110009008900d80027
:10279000e9004000c308dd00cadf200081004500d9
:1027a0003102be002103be008b0920008a8545004e
:1027b0003b00be002b01be00910507000002be00d9
:1027c0000203be0084bf9f0095bf9f00a6bf9f006d
:1027d000b7bf9f00110009000904d8000104780068
:1027e0004344dd00080545003a02be002a03be004e
:1027f0000fb897009fb897002fb99700bfb99700ff
:10280000d5ff3700ea4f500008003400a200200036
:10281000110009000204d80001017800690040009d
:102820004300dd00c1df2000c4ff37004344dd006a
:10283000c0df2000080440003800be002801be00b0
:102840004f05be004f04be000080fa0000000600e5
:10285000d0019000028151004240a90003003400e1
:1028600010017800014978000208e80001007800b2
:10287000000006006f02b000889fbe008a9fbe0065
:102880008c9fbe008e1f780000067800b1af9f00bd
:1028900092b79f006000b8006011b800d0af9f00f1
:1028a000e1af9f00f2af9f0083b79f008006eb006f
:1028b000c5043700bfa897008100e800b1af9f00b2
:1028c00051c2b300814f500003003a00bfa89700e7
:1028d0000007eb0011003700bc0090000000fb0077
:1028e0000168a300070032000d0178008000780025
:1028f0000c007800d6ff07000000e00005003a0059
:10290000b10437008c007800bb040700e10f4000e1
:10291000ad0432008d06e800ab04370001017800f9
:1029200031407800d3c2b300834f50000c00320016
:1029300007003c00edc15100834f50000a003200f7
:10294000ebc14100834f50000d003a0008003700f2
:1029500003c3b300834f500009003a00060037005c
:102960000e30a000edff37000e00a000ebff370097
:102970000e10a000e9ff37000e20a000e7ff37008f
:102980000e18a300010032000e00a1000e38a300b3
:10299000010032000e20a1008000fb000103b10005
:1029a000e98f50000c003e00020078008005eb002b
:1029b0006a59b900b005fb000b03b10082854500e0
:1029c000000178009000fb000103b100e98f500086
:1029d000f7ff3600080037008005eb00a1c2b30006
:1029e000814f500004003a009fb19700c305780062
:1029f00093b79f000201e800e0c2b300924f1000bd
:102a000016003a000ee0a00064405000d24f1000c3
:102a100003003200020078008001eb00080037005c
:102a20009fb297004503780095b79f00e6b79f00d7
:102a30000201e8000c0037006a19b90082814000e9
:102a400000017800b000fb000103b100e98f5000e5
:102a5000f9ff3600e3b79f00030037000ec0a00067
:102a60008003eb00e7b79f008201780033407800d5
:102a700003017800c1c6b300814f50002b00320023
:102a8000b3af9f0014003c00e8c05000814f5000dd
:102a90002400320009003c00ecc05000814f50007f
:102aa0002a003200ebc04000814f50008c00320001
:102ab0000004e00049043200a200370061c6b30000
:102ac000814f50001b003200e3c04000814f500096
:102ad0009c003a001300370031c7b300814f50000b
:102ae0001e00320007003c00e4c05000814f50003f
:102af000130032008140e800814f500091003a00fd
:102b00001200370051c7b300814f500092003200cd
:102b1000e3c04000814f50008a003a00e0cf9f00a0
:102b20000c003700e0cf9f008d0037000e40a00062
:102b3000cdff3700e0cf9f000ea0a0008800370037
:102b4000e0cf9f000e60a00085003700e0cf9f001f
:102b50000e50a0000e70a00081003700e0cf9f0053
:102b60009fb097004100780091b79f000004780063
:102b70000000e00001003a00e833210088007800fe
:102b80000000eb00010037000000e8006141780020
:102b90000204e000fcff3a00800478006fb1970067
:102ba0000200e00003003200890f510001003100f3
:102bb000820478000005eb00898f55000100360083
:102bc00009855500680767002a003a0011003700a0
:102bd0003c0090000068a300070032000d0178005f
:102be000010220000c00780019ff07000000e0003f
:102bf00006003a00060037008c0078000002200032
:102c0000fd030700e10f4000010032008d06e800df
:102c10000a05e9000a00e000edff3a000085eb003c
:102c2000140037003c0090000068a3000900320047
:102c300008007800b000fb00000478000d01780067
:102c40000c00780002ff07000000e00008003a00d6
:102c500008003700880078003100fb00010478008c
:102c60008c007800e4030700e10f4000010032000f
:102c70008d06e800090078008004e9000000e0000b
:102c8000e8ff3a000e00e000cf03320011003700e9
:102c90003c0090000068a300070032000d0178009e
:102ca000010220000c007800e9fe07000000e000af
:102cb00006003a00060037008c0078000002200071
:102cc000cd030700e10f4000010032008d06e8004f
:102cd0000a05e9000a00e000edff3a00ba033700f8
:102ce0009fb197004302780093b79f00cfa2de0008
:102cf000482bdd004820de0000007300c828de00fd
:102d0000e0cf9f000e48a300080032000004e0005e
:102d100006003200e14f400004003200f0cf9f0077
:102d200084d79f002900200002003700f4cf9f00c5
:102d300019002000e7fc2f008f8343000704e80000
:102d400096ff3700e0cf9f00e8fc2f000f044400ff
:102d50001900200091ff3700e0cf9f000e0cb30058
:102d60000170200081006700700067000100e00032
:102d7000190232000ec8a3000200320061002000d8
:102d8000e1b79f000000e000060032001fb097008e
:102d9000680050003002be002003be0090b79f00c4
:102da000060037001fb197004200be0092b79f0097
:102db000d7fa07000002be000203be00a4b79f00be
:102dc000b5b79f00c6b79f00d7b79f006022b80075
:102dd0006033b8002fb09700bfb097004fb1970095
:102de000dfb19700e9fa07000000e0000a003d00ab
:102df0002fb09700bfb097004fb19700dfb1970099
:102e000003f0a200a0b79f00b1b79f00c2b79f0018
:102e1000d3b79f003e00b3000000eb0090af9f00cf
:102e20006022b8006033b8002fb09700bfb09700a1
:102e30004fb19700dfb19700d9fa07000000e0001a
:102e40003400320024fd2f000f0242002fb0970003
:102e5000bfb097004fb19700dfb19700d5fa0700d8
:102e60001fa897000000e9006302b900a20020003b
:102e7000110009000202d80090af9f000000e0009e
:102e800002003d000000e90090af9f001fac9700da
:102e90000840ea000cfe07002fb29700bfb297006f
:102ea0004fb39700dfb39700d50307000002be00c1
:102eb0000203be00d4af9f00e5af9f00f6af9f00b6
:102ec00087b79f006022b8000600200007ff23009c
:102ed000aefa07000000e00002003d000804e9002f
:102ee0000b0037006022b8000600200047022400d3
:102ef0005fa89700efa897007fa997008fb1970070
:102f0000c9fa07000000e000020035000804e800ec
:102f100098af9f00efb29700ec8f52000f003c007b
:102f2000054078008bfd07000002be000203be00d2
:102f30002fb09700bfb097004fb19700dfb1970057
:102f4000250407000002be000203be00a4b79f00d4
:102f5000b5b79f00c6b79f00d7b79f001fac9700bb
:102f6000e90f540015003c006022b8006033b8003f
:102f70002fb09700bfb097004fb19700dfb1970017
:102f800087fa07000000e000310032002fb0970000
:102f9000bfb097004fb19700dfb19700a7fa0700c5
:102fa000e00f5000e08f5800e00f5900e08f59000b
:102fb00027003a00e10f54002500340004002000ef
:102fc00005002e00b6e02200170124005fa897003c
:102fd000efa897007fa997008fb197006bfa0700c1
:102fe0000000e00002003d006904540001003700c9
:102ff0006804540098af9f002fd09700b2fd0700df
:103000000002be000203be00d4af9f00e5af9f00e8
:10301000f6af9f0087b79f002fb09700bfb0970013
:103020004fb19700dfb19700b5fa070083fa0700a8
:103030000004be006000b8006011b800a0b79f0097
:10304000b1b79f00c2b79f00d3b79f0016003700eb
:103050002fb09700bfb097004fb19700dfb1970036
:1030600076fa07000004be00fffa07000002be0067
:103070000203be002fb09700bfb097004fb197007a
:10308000dfb19700fafa07000002be000203be009b
:10309000a4b79f00b5b79f00c6b79f00d7b79f00e2
:1030a0000000eb0090af9f006134210010c0b3001e
:1030b00005003700e4804000b10f5400a18f5c0090
:1030c000030039000040e800ea4f5000f9ff3a00e1
:1030d000e0cf9f009fa8970081805500efb2970036
:1030e000858050000000fb00008550000500e000d6
:1030f000010032000a05e9006300670001003200a8
:103100000a05e9000e28a3003900320061016700ba
:103110000e18a3000f0032003c0090000068a300ce
:1031200006003200b10220000200e000010032007f
:103130008180e8000d0178000d003700b00220000a
:103140000200e000010032000080e8008c007800fe
:103150000e0037000200e000220032003c00900028
:103160000068a300070032000d0178000102200072
:103170000c007800b6fd07000000e00006003a00f1
:10318000180037008c007800000220009a02070027
:10319000e10f4000130032008d06e80011003700f7
:1031a0003c0090000068a300070032000d01780089
:1031b000010320000c007800a5fd07000000e000de
:1031c00006003a00060037008c007800000320005b
:1031d00089020700e10f4000010032008d06e8007f
:1031e0000a05e9000a00e000edff3c005700370047
:1031f0000e38a30014003a00110037003c00900084
:103200000068a300070032000d01780001022000d1
:103210000c0078008efd07000000e00006003a0078
:10322000060037008c0078000002200072020700c0
:10323000e10f4000010032008d06e8000a05e900b8
:103240000a00e000edff3c00610167000e18a300da
:103250000e0032003c0090000068a3000500320020
:10326000b10220000200e000220032008180e8006c
:1032700020003700b00220000200e0000100320010
:103280000080e8008c0078002c0037000200e0008d
:103290002e0032003c0090000068a30003003200c2
:1032a0000d01780001022000130037008c00780027
:1032b00000022000210037003c0190006034210012
:1032c0008100fb000268a30010003200c208dd008c
:1032d000810040001101be000800be001df707007c
:1032e000a20020000300200063fa07000103200071
:1032f000808040000d0178000c00780054fd07002c
:103300000000e00010003a0010003700c208dd00a5
:10331000810040001101be000800be000df707004b
:10332000a20020000300200053fa0700020320003f
:10333000000141008c007800020078002e02070096
:10334000e10f4000010032008d06e8006fc89700d1
:103350008040e900e1cf9f000004e000d6ff3a0082
:10336000130037003c0090000068a3000700320003
:103370000d017800010320000c00780034fd0700e7
:103380000000e00006003a00060037008c007800dc
:103390000003200018020700e10f40000100320086
:1033a0008d06e8001fa897000000e90090af9f007d
:1033b0001fa897000000e000eaff3c006fb39700f1
:1033c000e80f53000300340080c0b300e0cf9f003b
:1033d00002003700cfeb9700e7cf9f006fc8970040
:1033e0008005fb00efb097008b8550000004e000e3
:1033f000100032003c0090000068a300070032007b
:103400000d017800e10220000c00780010fd07009b
:103410000000e00006003a00060037008c0078004b
:10342000e0022000f4010700e10f4000010032003b
:103430008d06e8006fc89700a3fc07000002be00dd
:103440000203be002fb09700bfb097004fb19700a6
:10345000dfb197006a02070078f907002d003700f6
:103460003c019000613421000000fb000268a300d1
:10347000100032004200dd00808040001101be00db
:103480000800be00b3f60700a200200003002000e1
:10349000f9f9070001032000808040000d01780049
:1034a0000c007800eafc07000000e00010003a0081
:1034b000100037004200dd00808040001101be0096
:1034c0000800be00a3f60700a200200003002000b1
:1034d000e9f9070002032000000141008c00780098
:1034e00002007800c4010700e10f40000100320033
:1034f0008d06e8006fc997000200fb004200dd0066
:1035000061342100008040001001be000800be00b0
:10351000d9f907000004be00efc897000140e90098
:10352000e0cf9f000104e000cdff3a00110037001a
:103530003c0090000068a300070032000d017800f5
:10354000010320000c007800c1fc07000000e0002f
:1035500006003a00060037008c00780000032000c7
:10356000a5010700e10f4000010032008d06e800d0
:103570008b05e9000b00e000edff3a000e38a300d8
:10358000910132000a00e0008f0134003c009000fd
:103590000068a300070032000d017800010220003e
:1035a0000c007800aafc07000000e00006003a00ca
:1035b000060037008c007800000220008e01070012
:1035c000e10f4000010032008d06e8000a05e90025
:1035d000eeff3a007c0137008e007800010cb2004b
:1035e00011003a000000e000040032009fb1970093
:1035f0004304be0093b79f00040037001fb297003a
:103600004404780094b79f00cfc4de00e00f54005c
:10361000e08f5c000e003d003e00b300600414002b
:10362000e0841c000a0037000000e00004003200c3
:103630009fb297004504be0095b79f000400370075
:103640001fb397004604780096b79f008004eb00f4
:10365000efb397000700e00006003a00088074000e
:1036600000f0a7000000ea000000e9004f00de00c3
:10367000e0b79f000e007800000cb200c0af9f00c2
:1036800000042000cfa89700808f50002300320054
:1036900003003c000100e000080032002d0037006c
:1036a000000820004fa99700800f51000d00320044
:1036b000000c2000800f510026003a0061342100e8
:1036c00010c0b300e4804000b10f5400a18f5c0033
:1036d0001f0039000040e800ea4f5000f9ff3a00af
:1036e0001b00370010c0b3000201200003002000bf
:1036f000820f5400838f5c0015003900441add00ee
:10370000cc11de00830172004411dd000040e800ae
:10371000e84f5000f6ff3a000d00370010c0b3002c
:103720008200200003002000820f5400838f5c0081
:1037300007003900c31add00cd11de00838172005d
:103740004311dd000040e800eb4f5000f6ff3a0067
:10375000e0cf9f006fcb97000600fb00efb3970010
:10376000870f500002003d00e7cf9f0004003700a4
:10377000efb09700808f500001003d00e0b79f0040
:103780000b00e0000300320063006700010032001c
:103790008b05e9000ee8a300060032006fb1970028
:1037a000828f5500020034008285550001003700e9
:1037b0008005eb00efc997000300fb000002eb005f
:1037c000a4b79f00808f5500020034000080550090
:1037d000a0b79f000e28a3003c00320061016700e3
:1037e0000e18a3000f0032003c0090000068a300f8
:1037f00006003200b10220000200e00001003200a9
:103800008180e8000d0178000d003700b002200033
:103810000200e000010032000080e8008c00780027
:103820000e0037000200e000100032003c00900063
:103830000068a300070032000d017800010220009b
:103840000c00780002fc07000000e00006003a00cf
:10385000060037008c00780000022000e600070018
:10386000e10f4000010032008d06e800afb2970082
:103870000500e00052003200050578003c00900091
:103880000068a300070032000d017800010320004a
:103890000c007800eefb07000000e00006003a0094
:1038a000060037008c00780000032000d2000700db
:1038b000e10f4000010032008d06e8000a05e90032
:1038c000eeff3a00aab79f003d0037002fb39700e4
:1038d0000600e000160032000e38a30014003a0083
:1038e000060578003c0090000068a3000700320045
:1038f0000d017800010220000c007800d4fb0700c5
:103900000000e00006003a00060037008c00780056
:1039100000022000b8000700e10f40000100320063
:103920008d06e8000a05e900eeff3a00aab79f00fd
:10393000610167000e18a3000f0032003c009000e8
:103940000068a30006003200b10220000200e0007f
:10395000010032008180e8000d0178000d00370081
:10396000b00220000200e000010032000080e80008
:103970008c0078000e0037000200e00010003200da
:103980003c0090000068a300070032000d017800a1
:10399000010220000c007800adfb07000000e000f1
:1039a00006003a00060037008c0078000002200074
:1039b00091000700e10f4000010032008d06e80091
:1039c000efb397000702e9006320b9000001780017
:1039d000a2af9f004222dd006034210000024200bd
:1039e00004057800cfad97005c003700efb1970079
:1039f0008301e900e3b79f0000042000808f550099
:103a00003700320003003c000b00e00007003200ea
:103a10003d00370000082000808f55002000320054
:103a2000000c2000808f550037003a000e48a3009c
:103a3000100032001a02be000401be000800be00e1
:103a4000f4b79f0085bf9f0042f50700e0cf9f00bd
:103a50000000fb00cf80de007fb297008fba970096
:103a60000401be00a4f707000004540081845c0038
:103a7000070037001a017800110009000284d800fd
:103a8000a2002000110009000280d800e1cf9f00b1
:103a90006fca97000443b000e4cf9f001a003700bc
:103aa000d03221000e58a30001003200c0312100a5
:103ab00061342100810055000801be008100e90049
:103ac000030033008301d1000281d300fbff3700e4
:103ad0006f01610060417900e2cf9f000a0037006a
:103ae0000800be00afaa97008502e900030033007a
:103af0008100d1000080d300fbff370067406000e9
:103b00000043b000e0cf9f00bc0090006fcb970057
:103b10000600fb000168a300070032000d017800d9
:103b2000800078000c00780049fb07000000e000ee
:103b300005003a00050037008c0078002e000700d1
:103b4000e10f4000010032008d06e800afab9700a6
:103b5000e3835300a7af9f00640555006fb0970043
:103b60000000e000a1ff3a000e38a300160032006a
:103b7000afb097000100e0001300340001057800a9
:103b80003c0090000068a300070032000d0178009f
:103b9000010220000c0078002dfb07000000e0006f
:103ba00006003a00060037008c0078000002200072
:103bb00011000700e10f4000010032008d06e8000f
:103bc0000a05e900eeff3a003fa99700124078008d
:103bd000e0cf9f000004e00036fb3a000d007800c3
:103be0004f0778004f06be004f05be004f04be00d1
:103bf0006f02b10000000600889fbe00010478003b
:103c0000b80090008084eb000118a3003a00320055
:103c1000180190000198a30002003a000200e000a1
:103c200035003a000190a00031049800800478002b
:103c3000f90fb2000200e00002003a0028009000f4
:103c4000000c7800ea8f540005003a000178a300c8
:103c500003003a0088007800d0002000e6ff07004b
:103c600018009000d8009000810f50000b00320027
:103c70000000e80010049800180078000948780057
:103c8000000ce80011c0b30000402100014878009a
:103c9000ea8f540018003a000500370088007800c9
:103ca00009407800170007008004780012003700f0
:103cb000380090000088a3000f0032001801900027
:103cc000a80090004800900089f10700980090003b
:103cd000810f500004003200380090000003b30050
:103ce000300498008084eb000000eb001004980082
:103cf00028009000000c7800090078004f04be00f6
:103d0000000006000200fa00889fbe00a0ff9f008e
:103d100001047800380090000068a30033003a00e6
:103d2000e200600005003a000003b3003004980090
:103d3000110498000080eb002e003700d80490009a
:103d40000900e00006003a0012002000e68057005b
:103d50004800900066f1070019049800230037001e
:103d6000a80090000100e00008003a003140210066
:103d700021049800010c78002100200051049800d3
:103d8000110498000030a000300498001801900041
:103d9000a80090004800900055f10700280090000e
:103da0008080eb0011049800aff89700014878007c
:103db000000ce8002ff89700ea4f50000b003a0083
:103dc000380090000088a30008003200180190001d
:103dd000a80090004800900045f107000000eb00ab
:103de00010049800a8009000010c7800aff897002c
:103df0000100fb004f04be000080fa000000060036
:103e00002800fa00889fbe008a9fbe008c9fbe00db
:103e100003866b009bf707000028a30064003a00ac
:103e20000128a30067003a000008a30062003a00de
:103e30000108a30065003a001e009000be08900033
:103e400081064000ed3fb100f4805700ee01900084
:103e5000111ab8008e099000311bb8009e0990001d
:103e6000311cb800511db800f4855700460007000a
:103e7000fe0190003a0007008b85e8003e00070035
:103e80008e09900040000700ee019000340007000a
:103e90008b85e800380007008e099000400007007d
:103ea0009e0990001b18b800890440000a8548004c
:103eb000fe019000340007008b85e8003800070001
:103ec000ee019000300007008e0990001b18b8002a
:103ed000890440000a8548000a98a30008003a00b7
:103ee0000402420085824a0006034b0087834b0090
:103ef00008044c0089844c000a054d008d06e90039
:103f000084827200850273004c3add0085027200e3
:103f10000100320015002000443ade001400b20017
:103f20004538de00cb45dd000b007000c540de00eb
:103f3000cb4ddd008b8070004549de00cb55dd00a8
:103f40000b017100c551de000d03780066f7070014
:103f500003f0a1000cf0a70003f0a0005df737000c
:103f60001b18b8008502400006834800e0834b0020
:103f700060044c00070037001b18b800060340001f
:103f800087834800faff37001b18b80087034000fa
:103f900008844800e0844c0060054d0000000600e5
:103fa0001b18b8000804400089844800faff370055
:103fb0000108a30044f73a005800be005801be00b3
:103fc000e3ff37000008a3003ff73a000904780038
:103fd000f9ff3700000000002800fa00889fbe00ab
:103fe0008a9fbe008c9fbe00070678008786690006
:103ff0000c003b00030478008704780008f0a1005f
:1040000009f0a100840f5000858f5800860f5900d9
:10401000890f5c00030033000cf0a20001003a009d
:104020000cf0a10017f707006400e1005f00320008
:10403000780147006408e100610032006c0147002c
:10404000748557003200be001201be003a04be0063
:104050001a05be001e039000be0a9000850353009f
:1040600006003d000004fd008104fd000205fd0086
:104070008305fd008703ea00050378000df8a3001f
:104080000400320060041400e0841c0060051d0080
:10409000e0851d006022b8007d0320000d38e1009e
:1040a0008006eb000b0039004433dd00f300b20062
:1040b0008301730039003700848272000d0278009a
:1040c000e10664008b85d1000a85d3008984d30082
:1040d0000884d3008703e900f7ff3b000800400095
:1040e000898048000a0149008b81490004003b0097
:1040f00060001000e080180060011900e0811900e4
:104100000358a300090032008d827200848272007d
:10411000610260008301d1000281d3008180d3005d
:104120000080d3000603e8001b0037000348a3000b
:1041300017003a000600e000170034000603e9000b
:104140000d00a300000048008180480002014900e2
:10415000838149000348a3000f003a000600e000f5
:10416000090034000603e900000040008180480097
:10417000020149008381490001003a000003eb007d
:104180000348a300f5ff32006022b80002003700a8
:104190008482720061826600d3f6070003f0a100fa
:1041a0000cf0a70003f0a000caf637006401470036
:1041b0006408e10002003a000df8a300c2f63a00dc
:1041c0003200be001201be00c2f63700000000003f
:1041d0007200fa000000eb00200798000000eb00de
:1041e000300798000000eb00400798000000eb004b
:1041f00050079800003a8000610060000000e00075
:10420000020032004007a9000000fe00a5000700e0
:104210000040eb00f1000700b70c07001100200080
:10422000800020001502070040062000012307003f
:10423000450b07004e030700b62407004006200088
:10424000fc2207000000200001f023008315070076
:1042500086230700401f2000f622070000002000f0
:1042600001f023007d15070040062000f122070021
:104270000000200001f02300781507003c03070030
:1042800035060700f106070010c0b300404f980044
:104290000080eb00000f78000000eb001007980092
:1042a000030037000000000001003700000000009c
:1042b00013230700100798001e009000ee0f500017
:1042c00008003a001e007800e10f400003003a00a9
:1042d0009c0c070010079800020037009e00780031
:1042e000110798001e009000e10f4000edff320022
:1042f0001e009000ef0f500004003a005b230700ff
:10430000401f2000cb220700e9ff37001e0090006d
:10431000cf80de00d200200003002000820f50007a
:10432000838f5800e1ff3e00006001000d00370060
:1043300013003700170037001b0037001f0037003d
:1043400026003700270037002e0037002f003700e7
:1043500035003700360037003700370038003700a7
:104360003a003700220320001100200060002000e6
:10437000eb0f07009e009000010f7800350037001a
:1043800050002000dc0f07009e009000010f780015
:104390003000370030002000d70f07009e0090004b
:1043a000010f78002b00370010002000d20f07000b
:1043b0009e009000010f78002600370011002000b9
:1043c00010002000ad010700110020007000200047
:1043d000aa010700cb2507001e0037008d22070029
:1043e0001c0037001100200010002000a30107006e
:1043f0001100200070002000a0010700bb2507006d
:1044000014003700c7250700120037007823070083
:104410000004e000020032004c1f070001003700da
:10442000031a07000b003700fd30070009003700b2
:10443000e22f0700070037000c27070005003700b0
:1044400010c0b30008280700020037007e2b0700c9
:104450000000000096ff37000200fa00a7320700b4
:104460005d310700ad320700f1c0b300c0c3b30037
:10447000b2320700004f7800ac32070000c4b3002e
:104480009e40780080cf500003003a0010c0b30077
:1044900014e9b700010037001469ef000080fa004a
:1044a000000006000000fa00c4c2a900c4e2a9008e
:1044b000c522a900c582a900c542a900c5a2a900bc
:1044c000c5c2a900c5e2a900c0c2a900c0e2a900f6
:1044d000c122a900c182a900c142a900c1a2a900ac
:1044e000c1c2a900c1e2a900d022a900cc22a90022
:1044f000d042a900cc42a900e2e2a900e302a9004f
:10450000e802a900e822a900dee2a900df02a90072
:10451000e402a900e422a900e202a900de02a90047
:10452000d602a900d622a900d642a900d662a900c7
:10453000d682a900d6a2a900d6c2a900d6e2a900b7
:10454000d202a900d222a900d242a900d262a900b7
:10455000d282a900d2a2a900d2c2a900d2e2a900a7
:10456000d1a2a900cda2a900e842a900e862a90051
:10457000e442a900e462a900de22a800dec2a8008d
:10458000e4c2a800e4e2a800e502a800e522a80031
:10459000d302a800d322a800d342a800d362a80067
:1045a000d382a800d3a2a800d3c2a800d3e2a80057
:1045b000a9ff070014c9bf000004e0000100320099
:1045c0001d0807000080fa00000006000000fa0045
:1045d00014c9bf000080fa00000006000200fa00c3
:1045e000004f780046220700604488001e40780093
:1045f000e14f500003003a0010c0b3008ae8b70052
:10460000010037008a68ef00a022ef00a222ef002d
:10461000a422ef00a622ef0060448000ea0f5000c1
:1046200009003a00c1048000f0ff2800808060008b
:104630000000260001007000c0048800a802a90044
:10464000a822a90002003700a802a800a822a800fa
:10465000a842a900a862a900a882a900a8a2a9004e
:10466000a8c2a900a8e2a900a902a900a922a9003c
:10467000a942a900a962a900a982a900a9a2a9002a
:10468000a9c2a900a9e2a900aa02a900aa22a90018
:10469000aa42a800aa62a800aa82a800aaa2a90009
:1046a000aac2a900aae2a900ab02a900ab22a900f4
:1046b000ab42a900ab62a900ab82a900aba2a900e2
:1046c000abc2a900abe2a90001158000f0cf2f001a
:1046d0000080600000158800a042a800011580003d
:1046e000000e2000010070000015880011158000e8
:1046f00030fc2f00008060000030a0001015880002
:10470000a342a80021158000f00f2e000080600059
:104710000080a000201588008ac8bf000004e000c7
:10472000060032002115800000fc2f000080600090
:104730003001b300201588000600370021158000e5
:1047400000fc2f00808060007002200001007000db
:10475000201588008560a9008d60a800a1e2a8004e
:104760008ac8bf000004e00005003a000000000015
:104770003144800000032000808f5000fbff360092
:104780000080fa00000006000000fa0088c8bf00a0
:104790000080fa00000006000000fa0089c8bf008f
:1047a0000080fa00000006000000fa00a1e2a80064
:1047b0000080fa00000006000000fa00a1e2a90053
:1047c0000080fa00000006000200fa00000f7800e6
:1047d000204480009e007800c808dd000080400072
:1047e000800040000000220000804000100078009f
:1047f0000080fa00000006000c00fa004007980054
:10480000510798006000b800008fbe004e00900075
:10481000e20f50002f003e005e0090000000e0001c
:104820002c003200de00900000102000808f50002d
:1048300028003e000000eb00200798002144800083
:104840005e009000008050001010b00080007800e2
:10485000f00f20000080600030079800190037003a
:104860004e009000c800dd003e0090000080400037
:10487000800040000000220000804000100078000e
:10488000cf80de001e0f40005e9748002e00900093
:104890000000e800200798003e0090008000e8003b
:1048a000f00f2800008060000000e00004003d00e0
:1048b0000000e90001f02f00008070000000e80017
:1048c00030079800ae0090005e009000808f50008e
:1048d000e3ff39005e0090008000eb000001be00a5
:1048e0001e00be00d1ee0700000078000080fa0034
:1048f000000006000800fa00300798000000eb00f6
:104900001007980070382100200798000000eb0085
:10491000000f7800260037003e0090004800dd00c0
:104920001e00400080004000000022000080400087
:10493000900078001e009000808f50000900340025
:104940003e0090004800dd001e0040008000400056
:1049500000002200008040009000780011079800bd
:10496000120037003e0090004800dd001e004000ad
:10497000800040000000220000804000900078008d
:104980002e009000808f500008003d003e009000f7
:104990004800dd001e0040008000400000002200b2
:1049a0000080400090007800210798001e0fe8006a
:1049b000f00f20009e007800808f5000d6ff34005a
:1049c0009e0090002e009000008050000080fa00b1
:1049d000000006000800fa00100798002107980060
:1049e000320798003e0090000000e00021003200f5
:1049f000be00900000102000808f50001d003e007f
:104a00000000eb00000f7800160037001e00780051
:104a1000be00900080805000f0ff27000080400022
:104a200000004000ae0090008080400022448000e2
:104a30001e00780000014100f00f2000000061001e
:104a40001e0190004811dd000000410000014000ff
:104a5000000022000000410010007800800878006b
:104a60001e0fe8009e0078003e009000808f5000ee
:104a7000e6ff39000080fa00000006000400fa009a
:104a8000000f7800110798001e007800e30f500017
:104a900061003200e30f500005003e00e10f5000be
:104aa00027003200e10f500040003e0009003700af
:104ab000e50f50008e003200e50f50007100390004
:104ac000e60f5000a5003200e70f5000be00320094
:104ad000d60037001e009000e10f50000d00360098
:104ae000201680004600de00614060000004a20045
:104af000614060000080fb00610060004600dd0056
:104b0000211680000160a1000100700020168800bd
:104b1000150137001e0090000040780061406000e1
:104b20000080fb00610060004600dd00211680006f
:104b30000160a10001007000201688000a01370002
:104b40001e009000e10f50000d003600201680007e
:104b50004700de00614060000004a2006140600088
:104b60000080fb00610060004700dd00211680002e
:104b70000170a1000100700020168800fa003700c3
:104b80001e00900000407800614060000080fb0043
:104b9000610060004700dd00211680000170a10067
:104ba0000100700020168800ef0037001e00900002
:104bb000e10f50000d003600201680004900de0095
:104bc000614060000004a200614060000080fb00c2
:104bd000610060004900dd00211680000190a10005
:104be0000100700020168800df0037001e009000d2
:104bf00000407800614060000080fb0061006000c0
:104c00004900dd00211680000190a1000100700024
:104c100020168800d40037001e009000e10f5000dd
:104c20000d003600201680004c00de006140600060
:104c30000004a200614060000080fb006100600091
:104c40004c00dd002116800001c0a10001007000b1
:104c500020168800c40037001e0090000040780035
:104c6000614060000080fb00610060004c00dd00de
:104c70002116800001c0a1000100700020168800ec
:104c8000b90037001e009000e10f50000d00360003
:104c9000201680004a00de00614060000004a2008f
:104ca000614060000080fb00610060004a00dd00a0
:104cb0002116800001a0a1000100700020168800cc
:104cc000a90037001e00900000407800614060009d
:104cd0000080fb00610060004a00dd0021168000ba
:104ce00001a0a10001007000201688009e0037007e
:104cf0001e009000e10f50000d00360020168000cd
:104d00004d00de00614060000004a20061406000d0
:104d10000080fb00610060004d00dd002116800076
:104d200001d0a10001007000201688008e0037001d
:104d30001e00900000407800614060000080fb0091
:104d4000610060004d00dd002116800001d0a1004f
:104d50000100700020168800830037001e009000bc
:104d6000e10f50000d003600201680004e00de00de
:104d7000614060000004a200614060000080fb0010
:104d8000610060004e00dd002116800001e0a100fe
:104d90000100700020168800730037001e0090008c
:104da00000407800614060000080fb00610060000e
:104db0004e00dd002116800001e0a100010070001e
:104dc00020168800680037001e009000e10f500098
:104dd0000c003600201680004f00de0000407800f6
:104de0000004a200614060000080fb004f00dd0075
:104df0002116800001f0a10001007000201688003b
:104e0000590037001e0090000040780061406000ab
:104e10000080fb004f00dd002116800001f0a100a2
:104e200001007000201688004f0037001e0090001f
:104e300000407800614060000080fb004f00dd0012
:104e40002116800001f0a1000100700020168800ea
:104e5000201680004f00de00004078000080fb003c
:104e6000610060004e00dd002116800001e0a1001d
:104e70000100700020168800201680004e00de0021
:104e8000614060000080fb00610060004d00dd00bb
:104e90002116800001d0a1000100700020168800ba
:104ea000201680004d00de00614060000080fb00a5
:104eb000610060004a00dd002116800001a0a10011
:104ec0000100700020168800201680004a00de00d5
:104ed000614060000080fb00610060004c00dd006c
:104ee0002116800001c0a10001007000201688007a
:104ef000201680004c00de00614060000080fb0056
:104f0000610060004900dd00211680000190a100d1
:104f10000100700020168800201680004900de0085
:104f2000614060000080fb00610060004700dd0020
:104f3000211680000170a100010070002016880079
:104f4000201680004700de00614060000080fb000a
:104f5000610060004600dd00211680000160a100b4
:104f600001007000201688000080fa000000060092
:104f70000000fa00c4c2a900c4e2a900c522a90029
:104f8000c582a900c542a900c5a2a900c5c2a90041
:104f9000c5e2a9000080fa00000006000200fa0045
:104fa000000f78001e007800e10f50000d00360061
:104fb000801680004200de00614060000004a20014
:104fc000614060000080fb00610060004200dd0085
:104fd000811680000120a100010070008016880069
:104fe0000a0037001e007800004078006140600031
:104ff0000080fb00610060004200dd00811680003f
:105000000120a10001007000801688000080fa00d5
:10501000000006000200fa00000f78001e00780071
:10502000e10f50000d003600801680000000d10016
:10503000614060000004a200614060000080fb004d
:105040006100600000004000811680000110a10096
:1050500001007000801688000a0037001e007800ea
:1050600000407800614060000080fb00610060004b
:1050700000004000811680000110a10001007000b6
:10508000801688000080fa00000006000000fa0088
:10509000201680004600de006140600000c0ea008b
:1050a000614060000080fb00610060004600dd00a0
:1050b000211680000160a100010070002016880008
:1050c000201680004700de006140600000c0ea005a
:1050d000614060000080fb00610060004700dd006f
:1050e000211680000170a1000100700020168800c8
:1050f000201680004900de006140600000c0ea0028
:10510000614060000080fb00610060004900dd003c
:10511000211680000190a100010070002016880077
:10512000201680004c00de006140600000c0ea00f4
:10513000614060000080fb00610060004c00dd0009
:105140002116800001c0a100010070002016880017
:10515000201680004a00de006140600000c0ea00c6
:10516000614060000080fb00610060004a00dd00db
:105170002116800001a0a100010070002016880007
:10518000201680004d00de006140600000c0ea0093
:10519000614060000080fb00610060004d00dd00a8
:1051a0002116800001d0a1000100700020168800a7
:1051b000201680004e00de006140600000c0ea0062
:1051c000614060000080fb00610060004e00dd0077
:1051d0002116800001e0a100010070002016880067
:1051e000201680004f00de000040780000c0ea007a
:1051f000614060000080fb004f00dd002116800050
:1052000001f0a10001007000201688000080fa0063
:10521000000006000000fa00201680004600de00b4
:105220006140600000c0ea00614060000080fb0057
:10523000610060004600dd00211680000160a100d1
:1052400001007000201688000080fa0000000600af
:105250000000fa00201680004700de006140600078
:1052600000c0ea00614060000080fb006100600057
:105270004700dd00211680000170a10001007000d0
:10528000201688000080fa00000006000000fa00e6
:10529000201680004900de006140600000c0ea0086
:1052a000614060000080fb00610060004900dd009b
:1052b000211680000190a1000100700020168800d6
:1052c0000080fa00000006000000fa0020168000ae
:1052d0004c00de006140600000c0ea0061406000f8
:1052e0000080fb00610060004c00dd0021168000a2
:1052f00001c0a10001007000201688000080fa00a3
:10530000000006000000fa00201680004a00de00bf
:105310006140600000c0ea00614060000080fb0066
:10532000610060004a00dd002116800001a0a1009c
:1053300001007000201688000080fa0000000600be
:105340000000fa00201680004d00de006140600081
:1053500000c0ea00614060000080fb006100600066
:105360004d00dd002116800001d0a1000100700079
:10537000201688000080fa00000006000000fa00f5
:10538000201680004e00de006140600000c0ea0090
:10539000614060000080fb00610060004e00dd00a5
:1053a0002116800001e0a100010070002016880095
:1053b0000080fa00000006000000fa0020168000bd
:1053c0004f00de000040780000c0ea00614060004d
:1053d0000080fb004f00dd002116800001f0a100dd
:1053e00001007000201688000080fa00000006000e
:1053f0000200fa00000f78009e007800608422000e
:10540000a40207000080fa00000006000000fa0075
:1054100060842200ce0207000080fa00000006002f
:105420000200fa00000f78001e0078000000e00083
:10543000030035009e00780060842200ea02070025
:105440000080fa00000006000000fa00e0c8bf007b
:105450000004e0000b003a008000eb007000200028
:1054600086fd0700e0c8bf000080fb00110020009f
:1054700082fd0700e0c8bf000040e800e0e8b70098
:105480001a003700e0c8bf00e74f50000b003a0099
:10549000e0c8bf000080fb000000e9008000eb00d6
:1054a00076fd0700e0c8bf000080fb00110020006f
:1054b00072fd0700e068ef000c003700e0c8bf0095
:1054c0000080fb000000e9008000eb006bfd07009e
:1054d000e0c8bf000080fb001100200067fd07004e
:1054e000e0c8bf000040e800e0e8b7000080fa0034
:1054f000000006000000fa00dfc8bf000080fb00cb
:10550000e20f500017003200e20f500005003c008f
:105510000000e00008003200e10f50000a003200f5
:1055200022003700e30f500015003200e40f500056
:105530001a0032001d003700210020000000eb009f
:105540004efd070019003700210020001000200048
:105550004afd0700210020007000200047fd0700e1
:1055600012003700210020002000200043fd07002a
:10557000210020006000200040fd07000b003700e4
:1055800021002000300020003cfd07002100200009
:105590005000200039fd07000400370021002000e2
:1055a0004000200035fd070000000000dfc8bf00fc
:1055b000e34f500004003e00dfc8bf000040e80099
:1055c000dfe8b70001003700df68ef000080fa0075
:1055d000000006000000fa00dec8bf000004e00082
:1055e0000e003a0016c9bf000004e0000b003200b4
:1055f00010c0b300dee8b7008000eb000000eb0055
:105600001efd0700dec8bf000080fb001100200067
:105610001afd07001669ef0029003700dec8bf0039
:105620000004e0000f003a0016c9bf000004e000cb
:105630000c003a0070c0b300dee8b7008000eb0059
:105640000000eb000dfd0700dec8bf000080fb007e
:105650001100200009fd070010c0b30016e9b700d3
:1056600017003700dec8bf00e74f500009003a00be
:10567000de68ef008000eb0070002000fffc0700f8
:10568000dec8bf000080fb0011002000fbfc07000b
:105690000b003700dec8bf00e14f500008003a00a1
:1056a000de68ef008000eb0010002000f3fc070034
:1056b000dec8bf000080fb0011002000effc0700e7
:1056c0000080fa00000006000000fa00ddc8bf00fc
:1056d0000080fb00e10f500011003200e10f50008c
:1056e00003003c000000e000060032001800370014
:1056f000e20f500011003200e30f5000130032009f
:1057000013003700210020000000eb00dbfc070045
:105710002100200040002000d8fc07000c003700ca
:105720002100200010002000d4fc070021002000f0
:1057300030002000d1fc07000500370021002000c8
:1057400020002000cdfc07000100370008fe070004
:10575000ddc8bf00e24f500004003e00ddc8bf00be
:105760000040e800dde8b70001003700dd68ef0029
:105770000080fa00000006000000fa00dcc8bf004c
:105780000080fb00e10f500011003200e10f5000db
:1057900003003c000000e000060032001800370063
:1057a000e20f500011003200e30f500013003200ee
:1057b00013003700210020000000eb00affc0700c1
:1057c0002100200040002000acfc07000c00370046
:1057d0002100200070002000a8fc0700210020000c
:1057e00050002000a5fc0700050037002100200024
:1057f00060002000a1fc070001003700dcfd07006d
:10580000dcc8bf00e24f500004003e00dcc8bf000f
:105810000040e800dce8b70001003700dc68ef007a
:105820000080fa00000006000000fa001045800029
:105830000000e00019003200a1448000a0c12f0048
:10584000808f500015003500a1448000603e20008c
:10585000808f500011003c00d602a900d622a9007a
:10586000d642a900d662a900a228ef00a044800079
:1058700000f0a7000000ea0001712200000178009a
:10588000110009008200d8006a00500080007800f2
:1058900040c12200d401070047003700a044800027
:1058a0000000e0000c003400e04480000000e8004c
:1058b000e0448800c04480000000e900c044880043
:1058c000c04480000000e0000d003d0030002000da
:1058d000c04488000a003700e04480000000e9006e
:1058e000e0448800c04480000000e800c044880014
:1058f000c0448000e30f5000010034009828ef00fe
:10590000c0448000e10f50000f003200e10f500052
:1059100003003c000000e0000600320019003700e0
:10592000e20f50000d003200e30f50001000320073
:1059300014003700d602a900d622a800d642a9003a
:10594000d662a8000f003700d602a900d622a80010
:10595000d642a800d662a9000a003700d602a800e5
:10596000d622a900d642a800d662a90005003700b9
:10597000d602a800d622a900d642a900d662a80065
:1059800000000000a1448000a0c12f00808f5000c3
:1059900009003500a1448000603e2000808f500047
:1059a00005003c001000200010458800a1002000e8
:1059b00040c122008c0107000080fa0000000600b0
:1059c0000000fa00004580000000e00019003200ed
:1059d000b1448000a0c12f00808f50001500350019
:1059e000b1448000603e2000808f500011003c00d8
:1059f000d682a900d6a2a900d6c2a900d6e2a900e3
:105a0000a028ef00b044800000f0a7000000ea00ea
:105a10000171220000017800110009008200d80005
:105a20006a0050008000780000ce22006e0107005e
:105a300047003700b04480000000e0000c003d004b
:105a4000f04480000000e900f0448800d044800069
:105a50000000e900d0448800d04480000000e0004d
:105a60000d003d0030002000d04488000a003700bf
:105a7000f04480000000e800f0448800d04480003a
:105a80000000e800d0448800d0448000e30f5000bc
:105a9000010034009a28ef00d0448000e10f50004c
:105aa0000f003200e10f500003003c000000e00056
:105ab0000600320019003700e20f50000d003200de
:105ac000e30f50001000320014003700d682a90006
