:020000040000fa
:080000000001040000000000f3
:020000040000fa
:10000800ae600000ae600000ae600000ae600000b0
:10001800ae600000ae600000ae600000ae600000a0
:10002800ae600000ae600000ae600000ae60000090
:10003800ae600000ae600000ae600000ae60000080
:10004800ae600000a85f0000485f0000da420000d0
:10005800ae600000ae60000094600000ae6000007a
:10006800ae600000ae600000ae600000ae60000050
:10007800ae600000ae600000ae600000ae60000040
:10008800ae600000ae600000ae600000ae60000030
:10009800ae600000ae600000ae600000ae60000020
:1000a800ae600000ae600000ae600000ae60000010
:1000b800ae600000ae600000ae600000ae60000000
:1000c800ae600000725e0000ae600000ae6000002e
:1000d800ae600000ae600000ae600000ae600000e0
:1000e800ae600000ae600000ae600000ae600000d0
:0800f800ae600000ae600000e4
:020000040000fa
:10010800ae600000ae600000ae600000ae600000af
:10011800ae600000ae600000ae600000ae6000009f
:10012800ae600000ae600000ae600000ae6000008f
:10013800ae600000ae600000ae600000ae6000007f
:10014800ae600000a85f0000485f0000da420000cf
:10015800ae600000ae60000094600000ae60000079
:10016800ae600000ae600000ae600000ae6000004f
:10017800ae600000ae600000ae600000ae6000003f
:10018800ae600000ae600000ae600000ae6000002f
:10019800ae600000ae600000ae600000ae6000001f
:1001a800ae600000ae600000ae600000ae6000000f
:1001b800ae600000ae600000ae600000ae600000ff
:1001c800ae600000725e0000ae600000ae6000002d
:1001d800ae600000ae600000ae600000ae600000df
:1001e800ae600000ae600000ae600000ae600000cf
:0801f800ae600000ae600000e3
:020000040000fa
:100200008f3821000e7922000e01880000000000c6
:10021000000020000000e000020032000001200089
:1002200020028800140007009b0007000000e00087
:1002300003003a00805a2500010020000200370028
:100240000000200001002000810f7000010032003a
:1002500014000700000020000000e000020032004f
:100260000000020000000000ce5d0200000000005f
:100270000040da000000fe004440a9008000200099
:100280000000e0000300320000002000a001880010
:100290004440a800000006008a1f78008b1f7800e9
:1002a0000000060091018800800478000000eb0047
:1002b0001a003700e284440032a0b4009905ba0065
:1002c000e284440032a0b4009906ba00e2844400fb
:1002d00032a0b4000006eb00476fde00fd07b2005d
:1002e000636ce10003003a00ebff07000000eb0045
:1002f0000a003700606ce10004003a00005deb008a
:100300008b05e900fdff3e00040037006168e10055
:10031000010032000086eb000b00070019c7ba008d
:100320001905ba000e04e00003003a000a00e000dc
:10033000e0ff3a0000000600fe07b2009e018800c0
:100340008a047800f5ff3700395dba008b05e900b3
:100350000c003200295dba008b05e900080032006c
:100360000c00e00003003a00e284440032a0b40034
:10037000f5ff370019ddba008b05e900faff3a00f6
:100380008904e800e184440032a0b40000000600c3
:100390000a00fa00e20f500034003e00a09a8000ec
:1003a000e10f500003003200e20f500011003a004c
:1003b0000c003700c32020000300e00001003a00d9
:1003c0000040da000c02e200020035001422ef00c7
:1003d0000de2a8000f42ab000d003a000f42a8004a
:1003e0000b003700632120000300e00001003a0009
:1003f0000040da001602e200020035001e22ef0083
:1004000017e2a8001942ab0001003a001942a80007
:10041000820178000b0037003102fb00e10f500031
:1004200004003a000f22ab00feff3a00841088005f
:10043000030037001922ab00feff3a00d4108800f9
:100440008301e9000300e000f3ff3a00e10f5000f0
:1004500003003a000f02ab00feff32000b00370032
:100460001902ab00feff3200080037003300200005
:10047000b3bf9f00c0bf9f00d1bf9f00e2bf9f00de
:100480006a805700c20a07006fb99700020078001f
:100490000080fa00000006000000050003f0a20042
:1004a000889fbe008a9fbe008c1f78001d01070038
:1004b000240133006450e1004f0032006420e10069
:1004c0005200320003826c0007003b000905d00097
:1004d0000306d000820f54000c065d0002003900b4
:1004e00002003200890178000306780085825500f9
:1004f00004003d000003fd008103fd008502ea00c9
:100500008b854200840f720002003b0060001000e7
:10051000e08018006011b8000005eb007a28e100c7
:100520000a00390006007800c75ddd00f707b20059
:10053000878075002d003700828171000a017800e4
:10054000610560008180d1000080d3008502e90050
:10055000f9ff3b00060440008784480002003b008e
:1005600060041400e0841c000988a3000700320026
:100570008a81710082817100610164008904d10067
:100580000884d3008b05e800170037000978a30022
:1005900013003a000b00e000130034008b05e90063
:1005a0000804440089844c000a4474000978a300bc
:1005b0000d003a000b00e000070034008b05e90055
:1005c0000804440089844c0001003a000b0020001c
:1005d0000978a300f7ff32000001eb0002003700aa
:1005e000828171000a017800930007000cf0a700d7
:1005f00001f0a000dc0037006420e10002003a00b6
:10060000838f6c00dc0033000801be000200be00d6
:10061000d5003700889fbe008a9fbe008c1f7800df
:10062000c0000700c700330003866c006450e1007f
:100630002e0032006420e100330032006150e100fe
:100640002f0032006120e100310032008585550025
:10065000eb07b00009002000080420000500370067
:100660000804440089844c000a003100060343005a
:1006700087834b000001530081815b00f8ff33004a
:100680000203be000800a0000804440089844c0056
:10069000f6ff3900c639dd00830173000100320026
:1006a000130020008904d1000884d3000998a30016
:1006b000050032000800a7000300a0008904d10053
:1006c0000884d3008b05e8008904d1000884d30096
:1006d0000001eb000281d2005700070001f0a100e9
:1006e0000cf0a70001f0a0009f0037006420e1009b
:1006f000a10032000801be000200be00f7ff370073
:100700006120e1009c0032006000b800f3ff370078
:100710000000200001f82700f0ff3700140020003f
:1007200047023700f4ff2f00450237000001be00ea
:10073000670007000470a70003f0a1006509b1007d
:10074000160032000d0035006828e1000600350073
:10075000f0ff2f00f1ff27000300e00013003b0033
:1007600001002800000005000000400081804800d2
:100770008502e900fcff3a0008003700f88f4200cc
:1007800002003c008000eb00000005008100d10069
:100790000080d3008502e800fcff3a000300e0007f
:1007a00002003b0060001000e0801800000006001e
:1007b0000001be00460007000470a70003f0a1007e
:1007c00003f8a30013003a006509b10010003200dd
:1007d000090035006928e100020035000100280009
:1007e0000000050000004000818048008502e9000b
:1007f000fcff3a0000000600f88f420005003500bb
:100800008100d1000080d3008502e800fcff3a009f
:10081000000006008000eb00000005004f89de00ac
:1008200082017800210237006011b8002f023700e2
:100830000400200002023700810020006180550082
:100840000b003d000b00200061fe2f000100e100c5
:100850001d00340082817100610164008904d100af
:100860000884d3000000e800faff3a00710020007d
:1008700061006400030070000200600009003200a3
:1008800061044400e0844c000988a50005003200a2
:100890008b05e8006808e10002003a008904d100f5
:1008a0000884d300f20f20000258e10005003d004b
:1008b000c75ddd00f907b200898075000800780087
:1008c000000006000bf827008b00780000000500f0
:1008d000c70ade00f107b200f50fb20008003200cf
:1008e000e1cf4200020032000170a00024000500a8
:1008f000810f70000100320004080500440005006b
:10090000810f700002003a00140005008502e90022
:100910000000400081c04800fcff3b000170a000c7
:10092000240005000004be00e9ff07000003be002c
:100930000405be000200be00e5ff0700844f7500fd
:10094000000006000200be006450e1000500360011
:100950006420e100020036000968a30001003a00ab
:100960000800be000160a0004f0678004f05be00e1
:100970004f04be0000000600f0ff2f00f1ff27002b
:10098000f9ff3700889fbe008a9fbe008c1f780049
:10099000e4ff0700ebff330003866c006450e100c6
:1009a000240032006420e100270032006150e100a1
:1009b000220032006120e100210032008b854200dc
:1009c000eb07b1000134b800003ab8000804420057
:1009d00089844a00013ab8000030b800888040009d
:1009e00009014a00040033000000400081804800f3
:1009f000020149008b05e900c909dd00830170008f
:100a00000100320013002000c814de004814dd008d
:100a10004709de001200b200c808de00088470003a
:100a200085ff070001f0a1000cf0a70001f0a00075
:100a3000cdff37006120e100cfff32000801be008a
:100a40000200be00f7ff37006150e100fcff3a00f2
:100a5000c9ff37000c00fa00889fbe008a9fbe00c5
:100a60008c9fbe00afff07000206be008405780021
:100a70000200be00020020004a01070005003a0003
:100a80008b02b300120020004601070001003a006b
:100a9000f8856d000c01be00c60007000800be000e
:100aa0009b0032000b08a3009e003a000df0a70047
:100ab0000be0a00009f0a7000bf0a00009f0a100d6
:100ac0000801be00bb0007000bf0a6009500320035
:100ad00001003c000bd0a0008acf7500b2003300ab
:100ae0006000b8006250e10099003900a1003e00aa
:100af0000b28a300a2003a000bf8a3000600320066
:100b00000b58a300a70032000801be00a90007008f
:100b10000800be00940032000800be00b2000700ca
:100b20000004be00050578000bf0a7000b30a600fe
:100b30000bf0a1005b079800324f200053f3230015
:100b4000f6fe070005003d000800be001200200070
:100b5000950107000004be000a05e9004a07980055
:100b60006150b9002dff0700008fbe000c01be00d0
:100b700084ff0700edfe0700300798000100e00049
:100b800002003d0060001000e0801800f2ff270026
:100b9000820f5000e08f580064003e000c00be0041
:100ba000e2fe070020079800f2072000820f5000a5
:100bb000e08f580005003c0012f82f00f3ff2f00d3
:100bc000820f5000838f580009003d000a00e000aa
:100bd0000300320001003c000201ea000205780037
:100be0006000b800200798003a0798001900370005
:100bf0003e0090006100b90008ff0700809fbe0022
:100c00000c00be004109dd004811de007208b10091
:100c1000e40007000005be001e01be0059ff0700ea
:100c20004f01be001dfe0700809fbe000c00be00ed
:100c30000a01be0019fe07001e01be0051ff070099
:100c40004f01be0016fe07008221270013f3230088
:100c50004cff07000005be002e0090006100b900a7
:100c6000eefe070001f0a2000c01be000cfe070022
:100c70000006be000800be006d0107000c01be00aa
:100c800040ff07000a01be0005fe0700809fbe006e
:100c90004a0007002e0590000af0a7000a05ea00a6
:100ca000050037000800be000801be0035ff070040
:100cb0000004be000c00be000801be000a00a70030
:100cc00030ff07000006be000a05d100f5ff3a001c
:100cd0005e01900002e0a600030037000001be00a4
:100ce000360007004bfe07000004be004f00be00a8
:100cf0004a0007000801be0022ff07003e019000e5
:100d000029010700de0590000bf0a70001f0a2000a
:100d10004f06be004f05be004f04be000080fa0023
:100d20000000060025000700f9ff37002700070034
:100d30006000b8000bd0a7000bc0a0000be0a7001c
:100d40000bc0a2000bc0a70001f82700f0ff37007e
:100d50000df8a300020032001e0007001900070072
:100d60000bf8a300eaff32000b30a70001f0a2004d
:100d7000e7ff37000df8a300f9ff3a00f7ff37004f
:100d80000801be000b000700e6ff320001003c0036
:100d90000df0a2006000b8000df0a70009000700e8
:100da000dbff37000b000700f1ff2700f0ff2f00eb
:100db000d7ff37000100070058fe370001f8230075
:100dc0000000050001f827000000050020022000b7
:100dd0000100370010022000a04288000000060039
:100de0000001eb00690137000003be00b8fe0700f8
:100df0006220e100020032000600be00050005008e
:100e0000e507b100f107b20004f023008480700010
:100e100007f0a70001f0a00024000500889fbe0095
:100e20008a9fbe008c9fbe000004be00a8fe070083
:100e30000800be006420e10048003e00550032007a
:100e400072212700132b240036fe070047003c00c8
:100e50000800be00c2ec2800e32c2c002ffe070087
:100e6000470035000800be0001f0a100020020008c
:100e70000338230029fe0700430035000800be00a8
:100e8000b2a32a0083fb2300befe0700020020005d
:100e900003f0230001f0a70003f0a00080fd07008d
:100ea00022fe07000005be005cfe070001f0a20064
:100eb0000006be000200280013f32300b1fe070065
:100ec0000801be0076fd0700809fbe000c00be003a
:100ed00032082800e3952b00aafe07004f01be0050
:100ee0006ffd07000006be000001be00a5fe070062
:100ef000809fbe004241250083b82300a1fe070069
:100f00000200200003e8230065fd07000c01be007d
:100f10009cfe07000006be004f00be00f2f92b0049
:100f2000c3d4230097fe07000200200003f0230033
:100f30005bfd07000c01be0058fd07000001be006c
:100f40000c00be00b3fd07000200200003f02300e8
:100f500053fd070061014500930007004f06be00e6
:100f60004f05be004f04be000000060001f8270038
:100f70000000200022022000a2428800f7ff370074
:100f80006000b800fbff370001f8230000002000dc
:100f9000f2ff370009f8a300f0ff32006000b8004c
:100fa000eeff3700889fbe008a9fbe000003be0090
:100fb00047fe07008505780082815200020020006c
:100fc0006220e10004003a00f307b100040035009c
:100fd0007718e100040035000600be001400370059
:100fe0006000b8000f003700f50f2000faff2f0057
:100ff0008502d1000a85d3008301e900fcff3b0094
:101000008184620000046500890f7400f2ff3200e1
:101010008582ea000a85ea00818462000004650096
:1010200005fe070007f0a70001f0a0000081eb001b
:101030000200e0004f05be004f04be0000000600a5
:10104000889fbe008a9fbe00841f780035fe07007f
:101050004f00780011003300f0ff2f00838f6c00e9
:1010600006003b00040565000a00a70008003700e1
:1010700009f0a6001000200008003700820f54007d
:10108000838f5c00030039001000200001003e0047
:101090000000200009f0a7000000ea004f05be0094
:1010a0004f04be000000e00000000600881f78002a
:1010b000030478000300e00007003d00600010001a
:1010c000e080180060011900e081190002003b0077
:1010d00001f02d00030037000400070008f0a7000e
:1010e00001f0a0004f04780000000600889fbe00b9
:1010f0008a9fbe00008270000402710004827100a9
:10110000260032000004be000200be006011b800dc
:101110006b092000950220000182cf000a003900ef
:101120000541b1000082cf00070039000541b10040
:101130000982cf00040039000541b1000882cf00c8
:10114000010039000541b100054252001200320091
:101150000a003b0082817100610164008100d100be
:101160000080d3008984d3000884d3008b05e80075
:101170000442e800f7ff3a00070037000804440083
:1011800089844c0000004800818048008b05e900fc
:101190000442e900f9ff3a00a7fd07004f05be0031
:1011a0004f04be00000006000003be00c8fd07009b
:1011b0006220e100020032000600be0000000600ce
:1011c00085024100e30f20000328e10005003c00f8
:1011d000a3fe2f000328e10007003d0005002000ca
:1011e00001003700f50f200020022000a0428800f7
:1011f0006000b8000800370013002000838152000f
:1012000005003d008100d1000080d3008301e8008b
:10121000fcff3a0005002000c72add00f107b200fc
:101220008580700007f0a70001f0a0000000060014
:10123000889fbe008a9fbe008c9fbe00eafe07000a
:10124000850478000005be006420e10049003e00ee
:101250006220e10003003200090035000bf8a30012
:10126000440032000bf8a3000800320010022000f6
:10127000a0428800f0ff2f00f1ff27003d0037005b
:1012800001f82f00000020003a0037003d00070061
:1012900082fc07000006be000a00be00324f20009c
:1012a00053f323001ffd0700060034000c00be00ae
:1012b0003400070079fc07000006be000a00be00eb
:1012c000020037008904e9000c00be002d00070071
:1012d000acfd07002b00070071fc07000001be00f9
:1012e0000c00be00cbfc07000005be000001be00e4
:1012f000a4fd07000006be00a2f32300430d2c004e
:1013000067fc0700809fbe000c00be00d2e32700f0
:10131000d3f02b009bfd07004f01be00bdfc070072
:101320000006be000a01be0096fd07000a01be00cd
:101330005bfc07000006be006148b90037fd0700ee
:101340000005be0032082800e3952b008dfd070044
:101350000c01be0052fc07000006be000a00be00e1
:101360000200280013f3230086fd07000c01be00d5
:101370004bfc07004f06be004f05be004f04be00e9
:101380000000060003f0230002000500889fbe0055
:101390008a9fbe008c9fbe00820578000004be00bc
:1013a0004bfd07000800be006420e1000700390083
:1013b00002003a00f1ff2700f0ff2f000160a000bb
:1013c00012022000a2428800550037006120e1008f
:1013d00003003a000b00a70001f82300500037007b
:1013e00001f0a1000200210093642400cbfc07005f
:1013f0000800be0004003500b2fd2000930c24005c
:101400004b0007000004be000005eb000b00a60027
:101410004f0dde0001f0a1000004be0032982f0045
:1014200023ea230057fd07000001eb0003f023002f
:101430000b00a70003f8230019fc0700bbfc070002
:101440000000a7000a00a200f4fc07000b00e00067
:10145000030032000200200003f023000ffc07000d
:1014600001f0a2000006be00020020009304240048
:1014700044fd07000801be0009fc0700809fbe0074
:101480000c00be0022a22a00d3a723003dfd0700c6
:101490004f01be0002fc07000004be0001f0a100e5
:1014a00002002000039823009cfc07000800be00f7
:1014b000190035000001be0032fd07000006be0025
:1014c000b2c52900e36223002efd070022222b0073
:1014d000f3942b00f2fb07000c01be0029fd07006e
:1014e000e273280083c02300edfb07000c01be005f
:1014f00024fd070042aa2a00a3e22b00e8fb070014
:101500000c01be001ffd07000801be001dfd070005
:101510000801be00e2fb07000a00a70001f0a200dc
:101520004f06be004f05be004f04be00000006007f
:101530000400200000003700889fbe008a9fbe0084
:101540008c1f78004f26dd00f6fc0700fdfc330001
:101550006120e100430032006250e10041003e00a2
:101560003e0039006420e1003c0032000582550055
:101570000f003b000402e80038003a00800f5300df
:10158000818f5b00350034000800be0003f0a1002d
:1015900001f0a60003f0a0000cf0a700c0fb0700bc
:1015a000f1fc37000603430087834b000c464600de
:1015b0000005530081855b00020033000a03be0072
:1015c0000c00a0000402e900f6ff3b00850578004e
:1015d0000602430087824b0004003a006000b80016
:1015e00009f0a70001f0a000dffc37000002520064
:1015f00081825a000704e000040033000603430020
:1016000087834b008b05e900faff37000905780056
:101610000604be000203be006011b80086fc07008d
:10162000e00f5200e08f5a000700350002003c0036
:101630000c08a300040032000601be0003f0a00065
:101640000cf0a70096fb07000a85680001f0a100d6
:101650000af0a70001f0a000c3fc37000800be009c
:10166000c1fc3700100220000cf0a600a042880048
:10167000c1fc3700800078003104e000feff3a0032
:101680000080ea0000804000000006000c00fa0024
:10169000889fbe0000047800f0ff2700d0bf9f00a5
:1016a0008004eb0099bf9f0088bf9f00a8bf9f00e8
:1016b000200c2000b0bf9f0078815700cfb097006a
:1016c00070805700cf0007000fb8970009487800d6
:1016d0008fb89700088050004f04be000080fa00c9
:1016e000000006000800fa00889fbe008a9fbe0026
:1016f0000084fb00d1c6b300814f50003400360097
:101700004b062000110009000b84d80081057800e9
:10171000720040004300dd00a90621000080440063
:101720006022b8000600200007fe23005001be0022
:101730004000be00b40707000002be000203be0066
:1017400084bf9f0095bf9f00a6bf9f00b7bf9f00ab
:10175000aa002000110009008a85d80080057800c1
:10176000e9854500c35ddd008b8544003b02be007a
:101770002b03be000fb897009fb897002fb99700b2
:10178000bfb99700a00707000002be000203be0019
:1017900084bf9f0095bf9f00a6bf9f00b7bf9f005b
:1017a000110009000a84d800010478004344dd00d8
:1017b000888444003902be002903be000fb8970098
:1017c0009fb897002fb99700bfb997001d00370049
:1017d000ea4f500013003600aa0020001100090053
:1017e0000a84d80001057800690440004344dd0004
:1017f000a9062100088444006022b80006002000e9
:1018000007fe23003800be002801be007e07070047
:101810004355dd008a8444003902be002903be001e
:10182000080037004344dd00a00621000804400002
:101830006022b8000600200007fe23003800be002a
:101840002801be00700707004f05be004f04be0010
:101850000080fa00000006000800fa00889fbe0021
:101860008a9fbe00d1c6b3000004e00023003d0003
:101870000040ea000004fb00814f50000a003400e1
:1018800042062000110009000204d800a90020002f
:10189000110009008900d800e9004000c308dd00fc
:1018a000aa06210021003700ea4f50001000340042
:1018b000a2002000110009000204d80001017800f4
:1018c000690040004300dd00a106210000804000c7
:1018d0004311dd00828040003102be002103be00c2
:1018e0005001be004000be00470707003800370027
:1018f0004344dd00a0062100320037000004fb0055
:10190000814f5000230034004206200011000900de
:101910000204d800a9002000110009008900d800a5
:10192000e9004000c308dd00aafb2000810045005b
:101930003102be002103be008b0920008a854500cc
:101940003b00be002b01be002f0707000002be00b7
:101950000203be0084bf9f0095bf9f00a6bf9f00eb
:10196000b7bf9f00110009000904d80001047800e6
:101970004344dd00080545003a02be002a03be00cc
:101980000fb897009fb897002fb99700bfb997007d
:10199000d5ff3700ea4f500008003400a2002000b5
:1019a000110009000204d80001017800690040001c
:1019b0004300dd00a1fb2000c4ff37004344dd00ed
:1019c000a0fb2000080440003800be002801be0033
:1019d0004f05be004f04be000080fa000000060064
:1019e000d0019000028151004240a9000300340060
:1019f00010017800014978000208e8000100780031
:101a0000000006006f02b000889fbe008a9fbe00e3
:101a10008c9fbe008e1f780000067800b1af9f003b
:101a200092b79f006000b8006011b800d0af9f006f
:101a3000e1af9f00f2af9f0083b79f008006eb00ed
:101a4000c5043700bfa897008100e800b1af9f0030
:101a500051c2b300814f500003003a00bfa8970065
:101a60000007eb0011003700bc0090000000fb00f5
:101a70000168a300070032000d01780080007800a3
:101a80000c007800d6ff07000000e00005003a00d7
:101a9000b10437008c007800bb040700e10f400060
:101aa000ad0432008d06e800ab0437000101780078
:101ab00031407800d3c2b300834f50000c00320095
:101ac00007003c00edc15100834f50000a00320076
:101ad000ebc14100834f50000d003a000800370071
:101ae00003c3b300834f500009003a0006003700db
:101af0000e30a000edff37000e00a000ebff370016
:101b00000e10a000e9ff37000e20a000e7ff37000d
:101b10000e18a300010032000e00a1000e38a30031
:101b2000010032000e20a1008000fb000103b10083
:101b3000e98f50000c003e00020078008005eb00a9
:101b40006a59b900b005fb000b03b100828545005e
:101b5000000178009000fb000103b100e98f500004
:101b6000f7ff3600080037008005eb00a1c2b30084
:101b7000814f500004003a009fb19700c3057800e0
:101b800093b79f000201e800e0c2b300924f10003b
:101b900016003a000ee0a00064405000d24f100042
:101ba00003003200020078008001eb0008003700db
:101bb0009fb297004503780095b79f00e6b79f0056
:101bc0000201e8000c0037006a19b9008281400068
:101bd00000017800b000fb000103b100e98f500064
:101be000f9ff3600e3b79f00030037000ec0a000e6
:101bf0008003eb00e7b79f00820178003340780054
:101c000003017800c1c6b300814f50002b003200a1
:101c1000b3af9f0014003c00e8c05000814f50005b
:101c20002400320009003c00ecc05000814f5000fd
:101c30002a003200ebc04000814f50008c0032007f
:101c40000004e00049043200a200370061c6b3007e
:101c5000814f50001b003200e3c04000814f500014
:101c60009c003a001300370031c7b300814f500089
:101c70001e00320007003c00e4c05000814f5000bd
:101c8000130032008140e800814f500091003a007b
:101c90001200370051c7b300814f5000920032004c
:101ca000e3c04000814f50008a003a00e0cf9f001f
:101cb0000c003700e0cf9f008d0037000e40a000e1
:101cc000cdff3700e0cf9f000ea0a00088003700b6
:101cd000e0cf9f000e60a00085003700e0cf9f009e
:101ce0000e50a0000e70a00081003700e0cf9f00d2
:101cf0009fb097004100780091b79f0000047800e2
:101d00000000e00001003a00282d21008800780042
:101d10000000eb00010037000000e800614178009e
:101d20000204e000fcff3a00800478006fb19700e5
:101d30000200e00003003200890f51000100310071
:101d4000820478000005eb00898f55000100360001
:101d500009855500680767002a003a00110037001e
:101d60003c0090000068a300070032000d017800dd
:101d7000010220000c00780019ff07000000e000bd
:101d800006003a00060037008c00780000022000b0
:101d9000fd030700e10f4000010032008d06e8005e
:101da0000a05e9000a00e000edff3a000085eb00bb
:101db000140037003c0090000068a30009003200c6
:101dc00008007800b000fb00000478000d017800e6
:101dd0000c00780002ff07000000e00008003a0055
:101de00008003700880078003100fb00010478000b
:101df0008c007800e4030700e10f4000010032008e
:101e00008d06e800090078008004e9000000e00089
:101e1000e8ff3a000e00e000cf0332001100370067
:101e20003c0090000068a300070032000d0178001c
:101e3000010220000c007800e9fe07000000e0002d
:101e400006003a00060037008c00780000022000ef
:101e5000cd030700e10f4000010032008d06e800cd
:101e60000a05e9000a00e000edff3a00ba03370076
:101e70009fb197004302780093b79f00cfa2de0086
:101e8000482bdd004820de0000007300c828de007b
:101e9000e0cf9f000e48a300080032000004e000dd
:101ea00006003200e14f400004003200f0cf9f00f6
:101eb00084d79f002900200002003700f4cf9f0044
:101ec00019002000e7fc2f008f8343000704e8007f
:101ed00096ff3700e0cf9f00e8fc2f000f0444007e
:101ee0001900200091ff3700e0cf9f000e0cb300d7
:101ef0000170200081006700700067000100e000b1
:101f0000190232000ec8a300020032006100200056
:101f1000e1b79f000000e000060032001fb097000c
:101f2000680050003002be002003be0090b79f0042
:101f3000060037001fb197004200be0092b79f0015
:101f4000410507000002be000203be00a4b79f00c7
:101f5000b5b79f00c6b79f00d7b79f006022b800f3
:101f60006033b8002fb09700bfb097004fb1970013
:101f7000dfb19700860407000000e0000a003d0082
:101f80002fb09700bfb097004fb19700dfb1970017
:101f900003f0a200a0b79f00b1b79f00c2b79f0097
:101fa000d3b79f003e00b3000000eb0090af9f004e
:101fb0006022b8006033b8002fb09700bfb0970020
:101fc0004fb19700dfb19700d50407000000e00093
:101fd0003400320024fd2f000f0242002fb0970082
:101fe000bfb097004fb19700dfb1970068050700b9
:101ff0001fa897000000e9006302b900a2002000ba
:10200000110009000202d80090af9f000000e0001c
:1020100002003d000000e90090af9f001fac970058
:102020000840ea000cfe07002fb29700bfb29700ed
:102030004fb39700dfb39700730507000002be009f
:102040000203be00d4af9f00e5af9f00f6af9f0034
:1020500087b79f006022b8000600200007ff23001a
:102060004b0407000000e00002003d000804e90006
:102070000b0037006022b800060020004702240051
:102080005fa89700efa897007fa997008fb19700ee
:10209000440407000000e000020035000804e800e6
:1020a00098af9f00efb29700ec8f52000f003c00fa
:1020b000054078008bfd07000002be000203be0051
:1020c0002fb09700bfb097004fb19700dfb19700d6
:1020d000b10307000002be000203be00a4b79f00c8
:1020e000b5b79f00c6b79f00d7b79f001fac97003a
:1020f000e90f540015003c006022b8006033b800be
:102100002fb09700bfb097004fb19700dfb1970095
:10211000830407000000e000310032002fb0970078
:10212000bfb097004fb19700dfb19700e5040700fb
:10213000e00f5000e08f5800e00f5900e08f590089
:1021400027003a00e10f540025003400040020006d
:1021500005002e00b6e02200170124005fa89700ba
:10216000efa897007fa997008fb197000804070098
:102170000000e00002003d00690454000100370047
:102180006804540098af9f002fd09700b2fd07005d
:102190000002be000203be00d4af9f00e5af9f0067
:1021a000f6af9f0087b79f002fb09700bfb0970092
:1021b0004fb19700dfb19700ff030700c10407008c
:1021c0000004be006000b8006011b800a0b79f0016
:1021d000b1b79f00c2b79f00d3b79f00160037006a
:1021e0002fb09700bfb097004fb19700dfb19700b5
:1021f000b40407000004be00e30407000002be00b0
:102200000203be002fb09700bfb097004fb19700f8
:10221000dfb19700720507000002be000203be0096
:10222000a4b79f00b5b79f00c6b79f00d7b79f0060
:102230000000eb0090af9f00a12d210010c0b30063
:1022400005003700e4804000b10f5400a18f5c000e
:10225000030039000040e800ea4f5000f9ff3a005f
:10226000e0cf9f009fa8970081805500efb29700b4
:10227000858050000000fb00008550000500e00054
:10228000010032000a05e900630067000100320026
:102290000a05e9000e28a300390032006101670039
:1022a0000e18a3000f0032003c0090000068a3004d
:1022b00006003200b10220000200e00001003200fe
:1022c0008180e8000d0178000d003700b002200089
:1022d0000200e000010032000080e8008c0078007d
:1022e0000e0037000200e000220032003c009000a7
:1022f0000068a300070032000d01780001022000f1
:102300000c007800b6fd07000000e00006003a006f
:10231000180037008c007800000220009a020700a5
:10232000e10f4000130032008d06e8001100370075
:102330003c0090000068a300070032000d01780007
:10234000010320000c007800a5fd07000000e0005c
:1023500006003a00060037008c00780000032000d9
:1023600089020700e10f4000010032008d06e800fd
:102370000a05e9000a00e000edff3c0057003700c5
:102380000e38a30014003a00110037003c00900002
:102390000068a300070032000d0178000102200050
:1023a0000c0078008efd07000000e00006003a00f7
:1023b000060037008c00780000022000720207003f
:1023c000e10f4000010032008d06e8000a05e90037
:1023d0000a00e000edff3c00610167000e18a30059
:1023e0000e0032003c0090000068a300050032009f
:1023f000b10220000200e000220032008180e800eb
:1024000020003700b00220000200e000010032008e
:102410000080e8008c0078002c0037000200e0000b
:102420002e0032003c0090000068a3000300320040
:102430000d01780001022000130037008c007800a5
:1024400000022000210037003c019000a02d210057
:102450008100fb000268a30010003200c208dd000a
:10246000810040001101be000800be00de0407002c
:10247000a200200003002000eb040700010320005d
:10248000808040000d0178000c00780054fd0700aa
:102490000000e00010003a0010003700c208dd0024
:1024a000810040001101be000800be00ce040700fc
:1024b000a200200003002000db040700020320002c
:1024c000000141008c007800020078002e02070015
:1024d000e10f4000010032008d06e8006fc8970050
:1024e0008040e900e1cf9f000004e000d6ff3a0001
:1024f000130037003c0090000068a3000700320082
:102500000d017800010320000c00780034fd070065
:102510000000e00006003a00060037008c0078005a
:102520000003200018020700e10f40000100320004
:102530008d06e8001fa897000000e90090af9f00fb
:102540001fa897000000e000eaff3c006fb397006f
:10255000e80f53000300340080c0b300e0cf9f00b9
:1025600002003700cfeb9700e7cf9f006fc89700be
:102570008005fb00efb097008b8550000004e00061
:10258000100032003c0090000068a30007003200f9
:102590000d017800e10220000c00780010fd07001a
:1025a0000000e00006003a00060037008c007800ca
:1025b000e0022000f4010700e10f400001003200ba
:1025c0008d06e8006fc89700a3fc07000002be005c
:1025d0000203be002fb09700bfb097004fb1970025
:1025e000dfb1970008040700b60307002d0037008d
:1025f0003c019000a12d21000000fb000268a30017
:10260000100032004200dd00808040001101be0059
:102610000800be0074040700a20020000300200090
:102620008104070001032000808040000d01780034
:102630000c007800eafc07000000e00010003a00ff
:10264000100037004200dd00808040001101be0014
:102650000800be0064040700a20020000300200060
:102660007104070002032000000141008c00780083
:1026700002007800c4010700e10f400001003200b1
:102680008d06e8006fc997000200fb004200dd00e4
:10269000a12d2100008040001001be000800be00f6
:1026a000610407000004be00efc897000140e90084
:1026b000e0cf9f000104e000cdff3a001100370099
:1026c0003c0090000068a300070032000d01780074
:1026d000010320000c007800c1fc07000000e000ae
:1026e00006003a00060037008c0078000003200046
:1026f000a5010700e10f4000010032008d06e8004f
:102700008b05e9000b00e000edff3a000e38a30056
:10271000910132000a00e0008f0134003c0090007b
:102720000068a300070032000d01780001022000bc
:102730000c007800aafc07000000e00006003a0048
:10274000060037008c007800000220008e01070090
:10275000e10f4000010032008d06e8000a05e900a3
:10276000eeff3a007c0137008e007800010cb200c9
:1027700011003a000000e000040032009fb1970011
:102780004304be0093b79f00040037001fb29700b8
:102790004404780094b79f00cfc4de00e00f5400db
:1027a000e08f5c000e003d003e00b30060041400aa
:1027b000e0841c000a0037000000e0000400320042
:1027c0009fb297004504be0095b79f0004003700f4
:1027d0001fb397004604780096b79f008004eb0073
:1027e000efb397000700e00006003a00088074008d
:1027f00000f0a7000000ea000000e9004f00de0042
:10280000e0b79f000e007800000cb200c0af9f0040
:1028100000042000cfa89700808f500023003200d2
:1028200003003c000100e000080032002d003700ea
:10283000000820004fa99700800f51000d003200c2
:10284000000c2000800f510026003a00a12d21002d
:1028500010c0b300e4804000b10f5400a18f5c00b1
:102860001f0039000040e800ea4f5000f9ff3a002d
:102870001b00370010c0b30002012000030020003d
:10288000820f5400838f5c0015003900441add006c
:10289000cc11de00830172004411dd000040e8002d
:1028a000e84f5000f6ff3a000d00370010c0b300ab
:1028b0008200200003002000820f5400838f5c0000
:1028c00007003900c31add00cd11de0083817200dc
:1028d0004311dd000040e800eb4f5000f6ff3a00e6
:1028e000e0cf9f006fcb97000600fb00efb397008f
:1028f000870f500002003d00e7cf9f000400370023
:10290000efb09700808f500001003d00e0b79f00be
:102910000b00e0000300320063006700010032009a
:102920008b05e9000ee8a300060032006fb19700a6
:10293000828f550002003400828555000100370067
:102940008005eb00efc997000300fb000002eb00dd
:10295000a4b79f00808f550002003400008055000e
:10296000a0b79f000e28a3003c0032006101670061
:102970000e18a3000f0032003c0090000068a30076
:1029800006003200b10220000200e0000100320027
:102990008180e8000d0178000d003700b0022000b2
:1029a0000200e000010032000080e8008c007800a6
:1029b0000e0037000200e000100032003c009000e2
:1029c0000068a300070032000d017800010220001a
:1029d0000c00780002fc07000000e00006003a004e
:1029e000060037008c00780000022000e600070097
:1029f000e10f4000010032008d06e800afb2970001
:102a00000500e00052003200050578003c0090000f
:102a10000068a300070032000d01780001032000c8
:102a20000c007800eefb07000000e00006003a0012
:102a3000060037008c00780000032000d200070059
:102a4000e10f4000010032008d06e8000a05e900b0
:102a5000eeff3a00aab79f003d0037002fb3970062
:102a60000600e000160032000e38a30014003a0001
:102a7000060578003c0090000068a30007003200c3
:102a80000d017800010220000c007800d4fb070043
:102a90000000e00006003a00060037008c007800d5
:102aa00000022000b8000700e10f400001003200e2
:102ab0008d06e8000a05e900eeff3a00aab79f007c
:102ac000610167000e18a3000f0032003c00900067
:102ad0000068a30006003200b10220000200e000fe
:102ae000010032008180e8000d0178000d00370000
:102af000b00220000200e000010032000080e80087
:102b00008c0078000e0037000200e0001000320058
:102b10003c0090000068a300070032000d0178001f
:102b2000010220000c007800adfb07000000e0006f
:102b300006003a00060037008c00780000022000f2
:102b400091000700e10f4000010032008d06e8000f
:102b5000efb397000702e9006320b9000001780095
:102b6000a2af9f004222dd00a02d21000002420002
:102b700004057800cfad97005c003700efb19700f7
:102b80008301e900e3b79f0000042000808f550017
:102b90003700320003003c000b00e0000700320069
:102ba0003d00370000082000808f550020003200d3
:102bb000000c2000808f550037003a000e48a3001b
:102bc000100032001a02be000401be000800be0060
:102bd000f4b79f0085bf9f0003030700e0cf9f006d
:102be0000000fb00cf80de007fb297008fba970015
:102bf0000401be000f0307000004540081845c0040
:102c0000070037001a017800110009000284d8007b
:102c1000a2002000110009000280d800e1cf9f002f
:102c20006fca97000443b000e4cf9f001a0037003a
:102c3000102c21000e58a30001003200002b2100af
:102c4000a12d2100810055000801be008100e9008e
:102c5000030033008301d1000281d300fbff370062
:102c60006f01610060417900e2cf9f000a003700e8
:102c70000800be00afaa97008502e90003003300f8
:102c80008100d1000080d300fbff37006740600067
:102c90000043b000e0cf9f00bc0090006fcb9700d6
:102ca0000600fb000168a300070032000d01780058
:102cb000800078000c00780049fb07000000e0006d
:102cc00005003a00050037008c0078002e00070050
:102cd000e10f4000010032008d06e800afab970025
:102ce000e3835300a7af9f00640555006fb09700c2
:102cf0000000e000a1ff3a000e38a30016003200e9
:102d0000afb097000100e000130034000105780027
:102d10003c0090000068a300070032000d0178001d
:102d2000010220000c0078002dfb07000000e000ed
:102d300006003a00060037008c00780000022000f0
:102d400011000700e10f4000010032008d06e8008d
:102d50000a05e900eeff3a003fa99700124078000b
:102d6000e0cf9f000004e00036fb3a000d00780041
:102d70004f0778004f06be004f05be004f04be004f
:102d80006f02b10000000600889fbe0001047800b9
:102d9000b80090008084eb000118a3003a003200d4
:102da000180190000198a30002003a000200e00020
:102db00035003a000190a0003104980080047800aa
:102dc000f90fb2000200e00002003a002800900073
:102dd000000c7800ea8f540005003a000178a30047
:102de00003003a0088007800d0002000e6ff0700ca
:102df00018009000d8009000810f50000b003200a6
:102e00000000e800100498001800780009487800d5
:102e1000000ce80011c0b300a03421000148780084
:102e2000ea8f540018003a00050037008800780047
:102e3000094078001700070080047800120037006e
:102e4000380090000088a3000f00320018019000a5
:102e5000a8009000480090004df5070098009000f1
:102e6000810f500004003200380090000003b300ce
:102e7000300498008084eb000000eb001004980000
:102e800028009000000c7800090078004f04be0074
:102e9000000006000200fa00889fbe00a0ff9f000d
:102ea00001047800380090000068a30033003a0065
:102eb000e200600005003a000003b300300498000f
:102ec000110498000080eb002e003700d804900019
:102ed0000900e00006003a0012002000e6805700da
:102ee000480090002af507001904980023003700d5
:102ef000a80090000100e00008003a00d134210051
:102f000021049800010c7800210020005104980051
:102f1000110498000030a0003004980018019000bf
:102f2000a80090004800900019f5070028009000c4
:102f30008080eb0011049800aff8970001487800fa
:102f4000000ce8002ff89700ea4f50000b003a0001
:102f5000380090000088a30008003200180190009b
:102f6000a80090004800900009f507000000eb0061
:102f700010049800a8009000010c7800aff89700aa
:102f80000100fb004f04be000080fa0000000600b4
:102f900000c0da00000006002800fa00889fbe008a
:102fa0008a9fbe008c9fbe00070678008786690056
:102fb0000c003b00030478008704780008f0a100af
:102fc00009f0a100840f5000858f5800860f59002a
:102fd000890f5c00030033000cf0a20001003a00ee
:102fe0000cf0a100ff0007006400e1005f00320068
:102ff000780147006408e100610032006c0147007d
:10300000748557003200be001201be003a04be00b3
:103010001a05be001e039000be0a900085035300ef
:1030200006003d000004fd008104fd000205fd00d6
:103030008305fd008703ea00050378000df8a3006f
:103040000400320060041400e0841c0060051d00d0
:10305000e0851d006022b8007d0320000d38e100ee
:103060008006eb000b0039004433dd00f300b200b2
:103070008301730039003700848272000d027800ea
:10308000e10664008b85d1000a85d3008984d300d2
:103090000884d3008703e900f7ff3b0008004000e5
:1030a000898048000a0149008b81490004003b00e7
:1030b00060001000e080180060011900e081190034
:1030c0000358a300090032008d82720084827200ce
:1030d000610260008301d1000281d3008180d300ae
:1030e0000080d3000603e8001b0037000348a3005c
:1030f00017003a000600e000170034000603e9005c
:103100000d00a30000004800818048000201490032
:10311000838149000348a3000f003a000600e00045
:10312000090034000603e9000000400081804800e7
:10313000020149008381490001003a000003eb00cd
:103140000348a300f5ff32006022b80002003700f8
:1031500084827200618266007600070003f0a1009d
:103160000cf0a70003f0a000b20037006401470094
:103170006408e10002003a000df8a300aa003a003a
:103180003200be001201be00aa003700000000009d
:103190008f1fd100ad0107008f87e9000000e0001c
:1031a00000000600809feb00a80107008f87e90060
:1031b0000000e000000006002800fa00889fbe0022
:1031c0008a9fbe008c9fbe0003866b0085000700af
:1031d0006400e100440032006408e1004a0032006b
:1031e0006100e100460032006108e1004900320060
:1031f000ec0647006000b8003d02be003d03be0083
:10320000f48657006011b8003d04be003d05be00c5
:103210007d0320000b0037000000a0008d06e900b0
:10322000130032000402420085824a0006034b006c
:1032300087834b0000004000818048000201490064
:10324000838149000802520089825a000a035b0008
:103250008b835b00f0ff3b000802420089824a003a
:103260000a034b008b834b008d06e900edff3a000b
:103270008482720086827200f707b2008782720031
:1032800001003200150020001e0490003e0b90004b
:1032900006035400e63fb0000368a30007003200b5
:1032a0000000a7000500a0008301d1000281d30027
:1032b0008180d3000080d3000603e8008301d100a1
:1032c0000281d3008180d3000080d3000002eb0094
:1032d0000482d2001700070003f0a1000cf0a70041
:1032e00003f0a00053003700640247006408e100c7
:1032f0004d0032003400be003401be00f6ff37003e
:103300006108e100480032006011b8006000b800b8
:10331000f1ff370003ff270002002000fbff37000a
:10332000801feb00490107008f87e9000000e000e3
:103330000000060018002000570020000804530079
:103340000d003d000600200097fc2f000740e10023
:103350001e00340084827200610260008301d1008b
:103360000281d3008180d3000080d3000804e800ec
:10337000f8ff3a0047002000610460000504740073
:10338000040464000d00320061004000e080480049
:1033900060014900e081490003b8a5000700320040
:1033a0000603e8006538e10004003a008301d1001b
:1033b0000281d3008180d3000080d300f87f2000f9
:1033c0000830e10003003500080378006000b80011
:1033d0006011b8004433dd00f300b20083017300d4
:1033e00000000600680447000294be000094be007e
:1033f000fc0447008694be008494be000900780057
:103400005b01070008007800590107009900780067
:10341000814f70000b003b000800be003401070024
:103420004f00b10003003700f3ff2700f2ff2f0029
:103430006110b9004f06be004f05be004f04be002c
:103440000080fa00000006008103780020f50700e4
:103450000001be006000b8000478a30013003a0029
:103460006220e10015003e000d0039008301d1000b
:103470000281d3008180d3008301d1000281d30077
:103480008180d3008301d1000281d3008180d300e9
:103490000538b000c42add00f300b2008381720059
:1034a00007f0a70003f0a00000000600f3ff2700cc
:1034b000f2ff2f006110b900fbff370003ff270068
:1034c000f7ff37001400fa00889fbe008a9fbe00f5
:1034d0008c9fbe000004be000205be0068004700cd
:1034e0000a90be000890be00210107000070a700ee
:1034f0000bf0a1000bf8a30020003a009e099000f9
:103500000e099000fe0090006e0090009e02900058
:103510003443200084825200c6ff32000a003c007f
:10352000b4fc2f000428e100140034008301d10012
:103530000281d3008180d3000080d3008502e8009f
:10354000faff3a00bbff3700b40020000428e10076
:1035500007003c0000004000818048000201490053
:10356000838149008502e900faff3a00b1ff370084
:103570000300280002002000010037006011b8009d
:103580006000b800abff37006011b8001f013700c2
:103590001400fa00889fbe008a9fbe008c9fbe0068
:1035a000040678000004be000205be006800470063
:1035b0000a90be000890be00ed0007006200e10026
:1035c0000800be000a01be00040020000b003a0003
:1035d0001e029000e43fb1006e009000fe009000db
:1035e0000e0990009e099000f300b20005fe230032
:1035f000858171000bf0a70003f0a000040e780095
:103600008cff3700000000002800fa00889fbe00f1
:103610008a9fbe008c9fbe0003866b0071ff07006f
:103620000028a30064003a000128a30067003a00c4
:103630000008a30062003a000108a30065003a00f8
:103640001e009000be08900081064000ed3fb100d2
:10365000f4805700ee019000111ab8008e09900016
:10366000311bb8009e099000311cb800511db800f4
:10367000f485570046000700fe0190003a0007005d
:103680008b85e8003e0007008e099000400007008f
:10369000ee019000340007008b85e8003800070039
:1036a0008e099000400007009e0990001b18b8008a
:1036b000890440000a854800fe019000340007009c
:1036c0008b85e80038000700ee019000300007000d
:1036d0008e0990001b18b800890440000a85480034
:1036e0000a98a30008003a000402420085824a00ba
:1036f00006034b0087834b0008044c0089844c0070
:103700000a054d008d06e90084827200850273006f
:103710004c3add00850272000100320015002000e5
:10372000443ade001400b2004538de00cb45dd002f
:103730000b007000c540de00cb4ddd008b807000bb
:103740004549de00cb55dd000b017100c551de009f
:103750000d037800f7fe070003f0a1000cf0a700ae
:1037600003f0a00033ff37001b18b80085024000ab
:1037700006834800e0834b0060044c0007003700dc
:103780001b18b8000603400087834800faff370083
:103790001b18b8008703400008844800e0844c00f0
:1037a00060054d00000006001b18b800080440002a
:1037b00089844800faff37000108a3001aff3a0085
:1037c0005800be005801be00e3ff37000008a30008
:1037d00015ff3a0009047800f9ff370000000000e7
:1037e00007f0a200ecfd37006022b80006022000be
:1037f0000000d0008180d2000482d2008582d200f5
:103800000000a0000202520083825a00030031002f
:103810000202420083824a000000a1000603e90080
:10382000f3ff3a0000000600efff07000400be00af
:1038300000000600020ab900001bb9000200b8002f
:10384000810042008100430000000600889fbe0006
:103850008a9fbe008c9fbe000404be000605be0009
:10386000809fbe00829fbe002f00070004067800e4
:103870000800be000a01be002b0007008406780085
:103880004f03be004f02be008d4f76007fb0970001
:1038900013003300f0ff2f008b8f6b0006003b00fe
:1038a0000d0666000c00a7000a00370007f0a6000e
:1038b000100020000a003700880f5200898f5a003c
:1038c0008a0f5b008b8f5b00030039001000200023
:1038d00001003e000000200007f0a7000000ea0001
:1038e0004f06be004f05be004f04be00000006009c
:1038f000e48240001078a300070032006402400018
:103900001178a3003400be001401be000400320090
:103910000330a700000006003500be001501be0000
:103920000330a0000000060005ff270005826100ab
:10393000070032000428e1000100320024000500e5
:103940000600070001003a004400050004080500d5
:1039500002000700f9ff3a00140005006f826100c1
:10396000810270008502710085027200000006006d
:10397000800078005002be005003be004439de00d3
:10398000f700b200f37f200003016100090032005c
:103990000218e10016003a008501720083017300ed
:1039a000838173000008200015003a0040002000c9
:1039b0001300370085017200830173008381730057
:1039c00005003a0004a8be0006a8be0010002000b2
:1039d0000b0037000201e9000402420085824a0020
:1039e00006034b0087834b000748a300f9ff320012
:1039f0000740a00004a8be0006a8be0020002000ca
:103a0000800098009200980000000600889fbe0089
:103a100000827000040271000482710024003200f0
:103a200036432000c50020008383cf000a00390000
:103a30000541b1008283cf00070039000541b10084
:103a40008183cf00040039000541b1008083cf009d
:103a5000010039000541b10085c353006022b80060
:103a6000120032000a003b00848272006102600092
:103a70008301d1000281d3008180d3000080d30074
:103a80000603e8008743e800f7ff3a000700370025
:103a90000000400081804800020149008381490004
:103aa0000603e9008743e900f9ff3a0021fe070019
:083ab0004f04be0000000600f7
:020000040000fa
:103ab800256c000064000000256c00006600000012
:020000040000fa
:103ac8000200fa00000f78009e007800e19188005b
:103ad8000080fa00000006000200fa00000f7800db
:103ae8009e007800819a88001e0078000000e0009f
:103af800030035001e007800e30f50000200340078
:103b08000000eb00000f78000080fa0000000600bb
:103b18000000fa0028600200000000000080fa009f
:103b2800000006002000fa00889fbe008a9fbe00a1
:103b3800400f9800510f9800620f9800730f98007b
:103b48000f0578000f00780080057800d088800085
:103b58008000e900410798000000e8000000e80044
:103b68000000d100800040000f00780081874700e6
:103b78000000e8000000d100000040005007980055
:103b88006e089000fe0890009603020000000000f6
:103b9800600798006e009000cf80de000e040200df
:103ba800000000000001be006e089000fe089000b2
:103bb8004e0202000000000070079800010f9800f4
:103bc800d0888000630060000000e0000900320037
:103bd800d08880000000e00001003d006300400044
:103be8004280de00d0888800d08880004200dd0056
:103bf800d08888004e089000de0890000001be00c2
:103c08005002020000000000b2fd200093042400ce
:103c1800c20402000000000002002000135e24001d
:103c28000a03020000000000100f9800210f9800fe
:103c3800809a8000e10f50007c003200e10f5000b4
:103c480003003c000000e0000600320033013700aa
:103c5800e20f500025003200e30f5000e000320070
:103c68002e0137000000eb00000f78001a00370023
:103c78001e007800cf80de000e0402000000000065
:103c88001e099000ae099000c20402000000000066
:103c9800f0060200000000000004be00e091800071
:103ca800cf80de000e040200000000000001be000c
:103cb8000800be00c20402000000000096030200d3
:103cc80000000000804078005e0090001e00400068
:103cd800014878001e0fe800d08880009e00780018
:103ce800808f5000e2ff35000c0137000000eb0028
:103cf800000f7800480037001e007800cf80de00f3
:103d08000e040200000000001e099000ae09900099
:103d1800c204020000000000200798003107980044
:103d2800b2fd2000930c24002e009000be009000ed
:103d38000a030200000000009603020000000000d1
:103d480000007800cf80de000e04020000000000b2
:103d58000001be005002020000000000b2fd200079
:103d680093042400c2040200000000000001be0009
:103d78002e009000be0090004e02020000000000dd
:103d8800200798003107980018c0b300b2fd200042
:103d9800930424002e009000be0090008e030200c1
:103da800000000000000e000010034000044eb00c7
:103db8000804e000050032000000200001f823009c
:103dc8002007980031079800040037000000200001
:103dd80001f82b002007980031079800e091800037
:103de800cf80de000e040200000000002e019000cb
:103df800be019000c2040200000000009603020009
:103e080000000000804078005e0090001e00400026
:103e1800014878001e0fe800d08880009e007800d6
:103e2800808f5000b4ff3500bc0037000000eb0065
:103e3800000f7800650037001e007800cf80de0094
:103e48000e040200000000001e099000ae09900058
:103e5800c204020000000000200798003107980003
:103e6800b2fd200093fc23002e009000be009000bd
:103e78004e02020000000000200798003107980059
:103e8800b2fd2000930c24002e009000be0090008c
:103e98000a03020000000000960302000000000070
:103ea80000007800cf80de000e0402000000000051
:103eb8000001be005002020000000000b2fd200018
:103ec80093042400c2040200000000000001be00a8
:103ed8002e009000be0090004e020200000000007c
:103ee800200798003107980018c0b300b2fd2000e1
:103ef800930424002e009000be0090008e03020060
:103f0800000000000000e000010034000044eb0065
:103f18000804e0000e00320032982f0023f223003c
:103f28002e009000be009000c204020000000000b5
:103f38000001be000000200001f823004e0202002c
:103f48000000000020079800310798001000370093
:103f5800b2fd2000930424002e009000be009000c3
:103f68004e0202000000000032982f0023f22300c6
:103f7800c2040200000000000200200003f8230031
:103f88004e02020000000000200798003107980048
:103f9800e0918000cf80de000e04020000000000e7
:103fa8002e019000be019000c20402000000000033
:103fb8009603020000000000804078005e00900038
:103fc8001e004000014878001e0fe800d0888000dd
:103fd8009e007800808f500097ff35004f00370013
:103fe8000000eb00000f7800470037001e00780043
:103ff800cf80de000e040200000000001e099000c1
:10400800ae099000c20402000000000020079800da
:1040180031079800b2fd2000930424002e00900080
:10402800be0090004e020200000000002007980029
:1040380031079800b2fd2000930c24002e00900058
:10404800be0090000a030200000000009603020070
:104058000000000000007800cf80de000e0402009f
:10406800000000000001be00500202000000000035
:10407800b2fd200093042400c204020000000000e6
:104088000001be002e009000be0090004e0202000b
:10409800000000002007980031079800b2fd2000ba
:1040a800930424002e009000be0090000a03020032
:1040b800000000000200200003f823004e02020066
:1040c800000000002007980031079800e091800068
:1040d800cf80de000e040200000000002e019000d8
:1040e800be019000c2040200000000009603020016
:1040f80000000000804078005e0090001e00400034
:10410800014878001e0fe800d08880009e007800e3
:10411800808f5000b5ff3500000000000000eb0064
:10412800100798000c003700d18880005e009000ce
:104138004860020000000000010037000000000095
:10414800304280000000e000fcff3a001e009000b2
:104158000000e800100798009e0090006e00900094
:10416800808f5000f0ff35006011b8007e0090008d
:104178008e08900018040200000000000000e00013
:104188001d003200d0888000cf80de000e040200bf
:10419800000000007e0190008e099000c204020019
:1041a800000000009603020000000000300f980095
:1041b8003e0890000000e00001003d006300400060
:1041c8004280de00300f98003e0890004200dd007b
:1041d800300f98005e009000be0890004860020012
:1041e800000000000100370000000000304280009d
:1041f8000000e000fcff3a008b0778008a0778008f
:104208004f05be004f04be000080fa000000060003
:104218002a00fa00889fbe008a9fbe008c1f780083
:10422800700f98000117980012179800231798002c
:1042380034179800451798008f0578000f0078000c
:1042480000067800d08880008000e90061079800a7
:104258000000e8000000e8000000d10080004000f5
:104268000f007800818747000000e8000000d100b7
:1042780000004000700798003e109000ce1090009b
:104288009603020000000000000f98000e0890003e
:10429800cf80de000e040200000000000001be0016
:1042a8003e109000ce1090004e0202000000000068
:1042b800100f9800210f9800d088800063006000dc
:1042c8000000e00009003200d08880000000e00013
:1042d80001003d00630040004280de00d088880075
:1042e800d08880004200dd00d08888007e099000d8
:1042f8008e1190001e109000ae1090004e02020029
:10430800000000000004be00d0888000cf80de00de
:104318000e040200000000003e119000ce11900033
:10432800c2040200000000000001be000800be0038
:104338000a03020000000000300f9800410f9800a7
:104348007e0990008e11900042079800530798004c
:104358000000eb0010079800a3013700809a800046
:10436800e10f5000aa003200e10f500003003c00aa
:104378000000e000060032008f013700e20f500015
:104388003c003200e30f5000250132008a0137005b
:104398000000eb00000f7800310037003e09900064
:1043a800ce0990004e009000de00900050020200fe
:1043b8000000000040079800510798004e00900048
:1043c800de0090000001be00500202000000000064
:1043d800b2fd200093042400c20402000000000083
:1043e80002002000135e24000a03020000000000ff
:1043f800500f9800610f98001e007800cf80de00f3
:104408000e040200000000005e099000ee09900012
:10441800c204020000000000f006020000000000d4
:104428000004be00e0918000cf80de000e04020090
:10443800000000000001be000800be00c204020027
:104448000000000096030200000000008040780091
:104458007e0090001e004000014878001e0fe80012
:10446800d08880009e007800808f5000cbff3500f8
:10447800510137000000eb00000f78005f003700a3
:104488003e099000ce0990004e009000de0090009a
:1044980050020200000000004007980051079800f1
:1044a8004e009000de0090000001be0050020200a5
:1044b80000000000b2fd200093042400c2040200a2
:1044c8000000000002002000135e24000a0302001e
:1044d80000000000500f9800610f98001e0078003f
:1044e800cf80de000e040200000000005e0990008c
:1044f800ee099000c20402000000000020079800a6
:1045080031079800b2fd2000930c24002e00900083
:10451800be0090000a03020000000000960302009b
:104528000000000000007800cf80de000e040200ca
:10453800000000000001be00500202000000000060
:10454800b2fd200093042400c20402000000000011
:104558000001be002e009000be0090004e02020036
:1045680000000000200798003107980018c0b30029
:10457800b2fd2000930424002e009000be0090009d
:104588008e030200000000000000e000010034007b
:104598000044eb000804e0000500320000002000a1
:1045a80001f823002007980031079800040037001d
:1045b8000000200001f82b00200798003107980020
:1045c800e0918000cf80de000e04020000000000b1
:1045d8002e019000be019000c204020000000000fd
:1045e8009603020000000000804078007e009000e2
:1045f8001e004000014878001e0fe800d0888000a7
:104608009e007800808f50009dff3500ea0037003b
:104618000000eb00000f78007c0037003e09900096
:10462800ce0990004e009000de009000500202007b
:104638000000000040079800510798004e009000c5
:10464800de0090000001be005002020000000000e1
:10465800b2fd200093042400c20402000000000000
:1046680002002000135e24000a030200000000007c
:10467800500f9800610f98001e007800cf80de0070
:104688000e040200000000005e099000ee09900090
:10469800c2040200000000002007980031079800bb
:1046a800b2fd200093fc23002e009000be00900075
:1046b8004e02020000000000200798003107980011
:1046c800b2fd2000930c24002e009000be00900044
:1046d8000a03020000000000960302000000000028
:1046e80000007800cf80de000e0402000000000009
:1046f8000001be005002020000000000b2fd2000d0
:1047080093042400c2040200000000000001be005f
:104718002e009000be0090004e0202000000000033
:10472800200798003107980018c0b300b2fd200098
:10473800930424002e009000be0090008e03020017
:10474800000000000000e000010034000044eb001d
:104758000804e0000e00320032982f0023f22300f4
:104768002e009000be009000c2040200000000006d
:104778000001be000000200001f823004e020200e4
:10478800000000002007980031079800100037004b
:10479800b2fd2000930424002e009000be0090007b
:1047a8004e0202000000000032982f0023f223007e
:1047b800c2040200000000000200200003f82300e9
:1047c8004e02020000000000200798003107980000
:1047d800e0918000cf80de000e040200000000009f
:1047e8002e019000be019000c204020000000000eb
:1047f8009603020000000000804078007e009000d0
:104808001e004000014878001e0fe800d088800094
:104818009e007800808f500080ff350066003700ca
:104828000000eb00000f78005e0037003e099000a2
:10483800ce0990004e009000de0090005002020069
:104848000000000040079800510798004e009000b3
:10485800de0090000001be005002020000000000cf
:10486800b2fd200093042400c204020000000000ee
:1048780002002000135e24000a030200000000006a
:10488800500f9800610f98001e007800cf80de005e
:104898000e040200000000005e099000ee0990007e
:1048a800c2040200000000002007980031079800a9
:1048b800b2fd2000930424002e009000be0090005a
:1048c8004e020200000000002007980031079800ff
:1048d800b2fd2000930c24002e009000be00900032
:1048e8000a03020000000000960302000000000016
:1048f80000007800cf80de000e04020000000000f7
:104908000001be005002020000000000b2fd2000bd
:1049180093042400c2040200000000000001be004d
:104928002e009000be0090004e0202000000000021
:104938002007980031079800b2fd20009304240056
:104948002e009000be0090000a0302000000000044
:104958000200200003f823004e02020000000000bd
:104968002007980031079800e0918000cf80de0092
:104978000e040200000000002e019000be0190000d
:10498800c2040200000000009603020000000000bc
:10499800804078007e0090001e00400001487800aa
:1049a8001e0fe800d08880009e007800808f50009d
:1049b8009eff350000000000d18880007e00900036
:1049c80048600200000000000100370000000000fd
:1049d800304280000000e000fcff3a001e0090001a
:1049e8000000e800100798009e0090000e08900054
:1049f800808f500059fe350018c0b3006011b80010
:104a08001e089000ae08900092030200000000000b
:104a18000000e00001003c000044eb000804e00056
:104a2800f6013200809a8000e10f5000d000320079
:104a3800e10f500003003c000000e00006003200d7
:104a4800db013700e20f50004f003200e30f500047
:104a58005e013200d60137000000eb00000f78003d
:104a6800310037003e099000ce0990004e009000ba
:104a7800de0090005002020000000000400798008d
:104a8800510798004e009000de0090000001be0023
:104a98005002020000000000b2fd20009304240030
:104aa800c20402000000000002002000135e24007f
:104ab8000a03020000000000500f9800610f9800e0
:104ac8001e007800cf80de000e0402000000000007
:104ad8005e099000ee099000c20402000000000088
:104ae800f0060200000000000004be00e091800013
:104af800cf80de000e040200000000000001be00ae
:104b08000800be00c2040200000000009603020074
:104b180000000000804078007e0090001e004000e9
:104b2800014878001e0fe8001e007800cf80de00e4
:104b38000e040200000000000004be00d0888000bf
:104b4800cf80de000e040200000000001e09900065
:104b5800ae099000c2040200000000001ac0b300b1
:104b68000001be000800be008e0302000000000025
:104b78000000e000010035000045eb000a04e000f9
:104b8800b8ff3a008a0137000000eb00000f7800f8
:104b98005f0037003e099000ce0990004e0090005b
:104ba800de0090005002020000000000400798005c
:104bb800510798004e009000de0090000001be00f2
:104bc8005002020000000000b2fd200093042400ff
:104bd800c20402000000000002002000135e24004e
:104be8000a03020000000000500f9800610f9800af
:104bf8001e007800cf80de000e04020000000000d6
:104c08005e099000ee099000c20402000000000056
:104c18002007980031079800b2fd2000930c24006b
:104c28002e009000be0090000a0302000000000061
:104c3800960302000000000000007800cf80de002c
:104c48000e040200000000000001be005002020035
:104c580000000000b2fd200093042400c2040200fa
:104c6800000000000001be002e009000be00900071
:104c78004e0202000000000020079800310798004b
:104c880018c0b300b2fd2000930424002e00900049
:104c9800be0090008e030200000000000000e0004b
:104ca800010034000044eb000804e0000500320075
:104cb8000000200001f82300200798003107980021
:104cc800040037000000200001f82b00200798009e
:104cd80031079800e0918000cf80de000e040200ca
:104ce800000000002e019000be019000c2040200e6
:104cf80000000000960302000000000080407800d9
:104d08007e0090001e004000014878001e0fe80059
:104d18001e007800cf80de000e04020000000000b4
:104d28000004be00d0888000cf80de000e040200a0
:104d3800000000001e099000ae099000c2040200a5
:104d4800000000001ac0b3000001be000800be0049
:104d58008e030200000000000000e00001003500a2
:104d68000045eb000a04e0008aff3a001001370012
:104d78000000eb00000f78007c0037003e0990002f
:104d8800ce0990004e009000de0090005002020014
:104d98000000000040079800510798004e0090005e
:104da800de0090000001be0050020200000000007a
:104db800b2fd200093042400c20402000000000099
:104dc80002002000135e24000a0302000000000015
:104dd800500f9800610f98001e007800cf80de0009
:104de8000e040200000000005e099000ee09900029
:104df800c204020000000000200798003107980054
:104e0800b2fd200093fc23002e009000be0090000d
:104e18004e020200000000002007980031079800a9
:104e2800b2fd2000930c24002e009000be009000dc
:104e38000a030200000000009603020000000000c0
:104e480000007800cf80de000e04020000000000a1
:104e58000001be005002020000000000b2fd200068
:104e680093042400c2040200000000000001be00f8
:104e78002e009000be0090004e02020000000000cc
:104e8800200798003107980018c0b300b2fd200031
:104e9800930424002e009000be0090008e030200b0
:104ea800000000000000e000010034000044eb00b6
:104eb8000804e0000e00320032982f0023f223008d
:104ec8002e009000be009000c20402000000000006
:104ed8000001be000000200001f823004e0202007d
:104ee80000000000200798003107980010003700e4
:104ef800b2fd2000930424002e009000be00900014
:104f08004e0202000000000032982f0023f2230016
:104f1800c2040200000000000200200003f8230081
:104f28004e02020000000000200798003107980098
:104f3800e0918000cf80de000e0402000000000037
:104f48002e019000be019000c20402000000000083
:104f58009603020000000000804078007e00900068
:104f68001e004000014878001e0fe8001e0078006f
:104f7800cf80de000e040200000000000004be0026
:104f8800d0888000cf80de000e0402000000000000
:104f98001e099000ae099000c20402000000000043
:104fa8001ac0b3000001be000800be008e03020054
:104fb800000000000000e000010035000045eb00a3
:104fc8000a04e0006dff3a00790037000000eb00aa
:104fd800000f78005e0037003e099000ce0990006f
:104fe8004e009000de009000500202000000000019
:104ff80040079800510798004e009000de0090008e
:105008000001be005002020000000000b2fd2000b6
:1050180093042400c20402000000000002002000e3
:10502800135e24000a03020000000000500f9800dd
:10503800610f98001e007800cf80de000e04020089
:10504800000000005e099000ee099000c204020012
:10505800000000002007980031079800b2fd2000ea
:10506800930424002e009000be0090004e0202001f
:10507800000000002007980031079800b2fd2000ca
:10508800930c24002e009000be0090000a0302003a
:1050980000000000960302000000000000007800f5
:1050a800cf80de000e040200000000000001be00f8
:1050b8005002020000000000b2fd2000930424000a
:1050c800c2040200000000000001be002e00900093
:1050d800be0090004e020200000000002007980069
:1050e80031079800b2fd2000930424002e009000a0
:1050f800be0090000a030200000000000200200029
:1051080003f823004e020200000000002007980068
:1051180031079800e0918000cf80de000e04020085
:10512800000000002e019000be019000c2040200a1
:105138000000000096030200000000008040780094
:105148007e0090001e004000014878001e0fe80015
:105158001e007800cf80de000e0402000000000070
:105168000004be00d0888000cf80de000e0402005c
:10517800000000001e099000ae099000c204020061
:10518800000000001ac0b3000001be000800be0005
:105198008e030200000000000000e000010035005e
:1051a8000045eb000a04e0008bff3a000000000015
:1051b800d0888000cf80de000e04020000000000ce
:1051c8001e099000ae099000c20402000000000011
:1051d8009603020000000000800078007e00900026
:1051e80048600200000000000100370000000000d5
:1051f800304280000000e000fcff3a008c07780095
:105208008b0778004f0678004f05be004f04be009c
:105218000080fa00000006000400fa00008fbe00bb
:10522800110020000000eb00084b02000000000005
:105238001e01be00000020000154240039fa0700b6
:105248008000eb000000eb00084b020000000000ab
:105258000080fa00000006000400fa00008fbe007b
:105268001e01be0000002000015424002dfa070092
:105278000080fa00000006000400fa00008fbe005b
:10528800110020000000eb00084b020000000000a5
:105298001e01be00000024006153240021fa07000b
:1052a8008000eb000000eb00084b0200000000004b
:1052b8000080fa00000006000400fa00008fbe001b
:1052c8001e01be00000024006153240015fa0700e7
:1052d8000080fa00000006000400fa00008fbe00fb
:1052e8001e02be0002002000c34d24000000200062
:1052f800c1452400c6fb07000080fa000000060034
:105308000400fa00008fbe001e02be00020020004a
:10531800c345240000002000c14d2400bcfb070049
:105328000080fa00000006000800fa00000f78006c
:105338001107980022079800330798001e00900074
:105348006600b900000078001e004000c200dd00c1
:10535800c0112100008040001000be002e01900006
:10536800be019000eff907000080fa000000060077
:105378000200fa00000f78009e007800f191880082
:105388000080fa00000006000400fa00008fbe004a
:1053980002002000832c24001e00be00c20402006c
:1053a80000000000960302000000000000007800e2
:1053b80034470200000000000080fa0000000600e8
:1053c8000400fa00008fbe00f09180000000e000a9
:1053d8000700320010002000484e020000000000c4
:1053e8001100200040002000084b020000000000cf
:1053f8001e01be0010d72900e1422400c9f90700a8
:10540800f09180000000e000070032008000eb000f
:1054180040002000084b0200000000000000eb00e4
:10542800484e0200000000000080fa00000006005c
:105438000400fa00008fbe001e00be00e0ff070057
:105448000080fa00000006000400fa00008fbe0089
:10545800f09180000000e0000b00320010002000f6
:10546800484e02000000000011002000400020000b
:10547800084b02000000000011002000500020002e
:10548800084b0200000000001e01be00c0f52f00fe
:1054980081432400a3f90700f09180000000e00098
:1054a8000b0032008000eb0040002000084b020097
:1054b800000000008000eb0050002000084b0200b4
:1054c800000000000000eb00484e02000000000051
:1054d8000080fa00000006000400fa00008fbe00f9
:1054e8001e00be00d8ff07000080fa00000006007a
:1054f8000400fa00008fbe001e00be00d2ff0700a5
:105508000080fa00000006000400fa00008fbe00c8
:105518001e00be00ccff07000080fa000000060055
:105528000400fa00008fbe00f09180000000e00047
:105538000700320010002000484e02000000000062
:105548001100200050002000084b0200000000005d
:105558001e01be00c0f52f003144240071f9070078
:10556800f09180000000e000070032008000eb00ae
:1055780050002000084b0200000000000000eb0073
:10558800484e0200000000000080fa0000000600fb
:105598000400fa00008fbe001e00be00e0ff0700f6
:1055a8000080fa00000006000400fa00008fbe0028
:1055b800f09180000000e0000b0032001000200095
:1055c800484e02000000000011002000500020009a
:1055d800084b0200000000001100200060002000bd
:1055e800084b0200000000001e01be00a0702a0047
:1055f800f14424004bf90700f09180000000e0001e
:105608000b0032008000eb0050002000084b020025
:10561800000000008000eb0060002000084b020042
:10562800000000000000eb00484e020000000000ef
:105638000080fa00000006000400fa00008fbe0097
:105648001e00be00d8ff07000080fa000000060018
:105658000400fa00008fbe001e00be00d2ff070043
:105668000080fa00000006000400fa00008fbe0067
:105678001e00be00ccff07000080fa0000000600f4
:105688000400fa00008fbe00f09180000000e000e6
:105698000700320010002000484e02000000000001
:1056a8001100200060002000084b020000000000ec
:1056b8001e01be0000002000c145240019f90700a2
:1056c800f09180000000e000070032008000eb004d
:1056d80060002000084b0200000000000000eb0002
:1056e800484e0200000000000080fa00000006009a
:1056f8000400fa00008fbe001e00be00e0ff070095
:105708000080fa00000006000400fa00008fbe00c6
:10571800f09180000000e0000b0032001000200033
:10572800484e020000000000110020006000200028
:10573800084b02000000000011002000700020004b
:10574800084b0200000000001e01be00f0512100bd
:1057580091462400f3f80700f09180000000e00073
:105768000b0032008000eb0060002000084b0200b4
:10577800000000008000eb0070002000084b0200d1
:10578800000000000000eb00484e0200000000008e
:105798000080fa00000006000400fa00008fbe0036
:1057a8001e00be00d8ff07000080fa0000000600b7
:1057b8000400fa00008fbe001e00be00d2ff0700e2
:1057c8000080fa00000006000400fa00008fbe0006
:1057d8001e00be00ccff07000080fa000000060093
:1057e8000400fa00008fbe00f09180000000e00085
:1057f8000700320010002000484e020000000000a0
:105808001100200070002000084b0200000000007a
:105818001e01be0080142f0061472400c1f8070054
:10582800f09180000000e000070032008000eb00eb
:1058380070002000084b0200000000000000eb0090
:10584800484e0200000000000080fa000000060038
:105858000400fa00008fbe001e00be00e0ff070033
:105868000080fa00000006000400fa00008fbe0065
:10587800f09180000000e0000400320011002000d8
:1058880010002000084b0200000000001e01be00ae
:1058980000002d0021482400a2f80700f0918000a4
:1058a8000000e000040032008000eb00100020003f
:1058b800084b0200000000000080fa00000006000b
:1058c8000400fa00008fbe001e00be00e6ff0700bd
:1058d8000080fa00000006000400fa00008fbe00f5
:1058e800f09180000000e000080032001100200064
:1058f80010002000084b02000000000011002000ea
:1059080020002000084b0200000000001e01be001d
:10591800c0752900a148240082f80700f091800092
:105928000000e000080032008000eb0010002000ba
:10593800084b0200000000008000eb00200020005f
:10594800084b0200000000000080fa00000006007a
:105958000400fa00008fbe001e00be00deff070034
:105968000080fa00000006000400fa00008fbe0064
:105978001e00be00d8ff07000080fa0000000600e5
:105988000400fa00008fbe001e00be00d2ff070010
:105998000080fa00000006000400fa00008fbe0034
:1059a800f09180000000e0000400320011002000a7
:1059b80020002000084b0200000000001e01be006d
:1059c800f0512d002149240056f80700f09180007d
:1059d8000000e000040032008000eb0020002000fe
:1059e800084b0200000000000080fa0000000600da
:1059f8000400fa00008fbe001e00be00e6ff07008c
:105a08000080fa00000006000400fa00008fbe00c3
:105a1800f09180000000e000080032001100200032
:105a280020002000084b02000000000011002000a8
:105a380030002000084b0200000000001e01be00dc
:105a480020052900b149240036f80700f0918000ac
:105a58000000e000080032008000eb002000200079
:105a6800084b0200000000008000eb00300020001e
:105a7800084b0200000000000080fa000000060049
:105a88000400fa00008fbe001e00be00deff070003
:105a98000080fa00000006000400fa00008fbe0033
:105aa8001e00be00d8ff07000080fa0000000600b4
